{"abi":[{"inputs":[{"internalType":"uint256","name":"minimum","type":"uint256"},{"internalType":"string","name":"name","type":"string"},{"internalType":"string","name":"desc","type":"string"},{"internalType":"string","name":"img","type":"string"}],"name":"createCampaign","outputs":[],"stateMutability":"nonpayable","type":"function"},{"inputs":[{"internalType":"uint256","name":"","type":"uint256"}],"name":"deployedCampaigns","outputs":[{"internalType":"contract Campaign","name":"","type":"address"}],"stateMutability":"view","type":"function"},{"inputs":[],"name":"getDeployedCampaigns","outputs":[{"internalType":"contract Campaign[]","name":"","type":"address[]"}],"stateMutability":"view","type":"function"}],"devdoc":{"kind":"dev","methods":{},"version":1},"evm":{"assembly":"    /* \"Campaign.sol\":63:500  contract CampaignFactory{... */\n  mstore(0x40, 0x80)\n  callvalue\n  dup1\n  iszero\n  tag_1\n  jumpi\n  0x00\n  dup1\n  revert\ntag_1:\n  pop\n  dataSize(sub_0)\n  dup1\n  dataOffset(sub_0)\n  0x00\n  codecopy\n  0x00\n  return\nstop\n\nsub_0: assembly {\n        /* \"Campaign.sol\":63:500  contract CampaignFactory{... */\n      mstore(0x40, 0x80)\n      callvalue\n      dup1\n      iszero\n      tag_1\n      jumpi\n      0x00\n      dup1\n      revert\n    tag_1:\n      pop\n      jumpi(tag_2, lt(calldatasize, 0x04))\n      shr(0xe0, calldataload(0x00))\n      dup1\n      0x339d50a5\n      eq\n      tag_3\n      jumpi\n      dup1\n      0x4acb9d4f\n      eq\n      tag_4\n      jumpi\n      dup1\n      0x8ef03928\n      eq\n      tag_5\n      jumpi\n    tag_2:\n      0x00\n      dup1\n      revert\n        /* \"Campaign.sol\":94:129  Campaign[] public deployedCampaigns */\n    tag_3:\n      tag_6\n      0x04\n      dup1\n      calldatasize\n      sub\n      dup2\n      add\n      swap1\n      tag_7\n      swap2\n      swap1\n      tag_8\n      jump\t// in\n    tag_7:\n      tag_9\n      jump\t// in\n    tag_6:\n      mload(0x40)\n      tag_10\n      swap2\n      swap1\n      tag_11\n      jump\t// in\n    tag_10:\n      mload(0x40)\n      dup1\n      swap2\n      sub\n      swap1\n      return\n        /* \"Campaign.sol\":383:497  function getDeployedCampaigns() public view returns (Campaign[] memory){... */\n    tag_4:\n      tag_12\n      tag_13\n      jump\t// in\n    tag_12:\n      mload(0x40)\n      tag_14\n      swap2\n      swap1\n      tag_15\n      jump\t// in\n    tag_14:\n      mload(0x40)\n      dup1\n      swap2\n      sub\n      swap1\n      return\n        /* \"Campaign.sol\":138:375  function createCampaign(uint minimum, string memory name, string memory desc, string memory img ) public {... */\n    tag_5:\n      tag_16\n      0x04\n      dup1\n      calldatasize\n      sub\n      dup2\n      add\n      swap1\n      tag_17\n      swap2\n      swap1\n      tag_18\n      jump\t// in\n    tag_17:\n      tag_19\n      jump\t// in\n    tag_16:\n      stop\n        /* \"Campaign.sol\":94:129  Campaign[] public deployedCampaigns */\n    tag_9:\n      0x00\n      dup2\n      dup2\n      sload\n      dup2\n      lt\n      tag_20\n      jumpi\n      0x00\n      dup1\n      revert\n    tag_20:\n      swap1\n      0x00\n      mstore\n      keccak256(0x00, 0x20)\n      add\n      0x00\n      swap2\n      pop\n      sload\n      swap1\n      0x0100\n      exp\n      swap1\n      div\n      0xffffffffffffffffffffffffffffffffffffffff\n      and\n      dup2\n      jump\t// out\n        /* \"Campaign.sol\":383:497  function getDeployedCampaigns() public view returns (Campaign[] memory){... */\n    tag_13:\n        /* \"Campaign.sol\":436:453  Campaign[] memory */\n      0x60\n        /* \"Campaign.sol\":472:489  deployedCampaigns */\n      0x00\n        /* \"Campaign.sol\":465:489  return deployedCampaigns */\n      dup1\n      sload\n      dup1\n      0x20\n      mul\n      0x20\n      add\n      mload(0x40)\n      swap1\n      dup2\n      add\n      0x40\n      mstore\n      dup1\n      swap3\n      swap2\n      swap1\n      dup2\n      dup2\n      mstore\n      0x20\n      add\n      dup3\n      dup1\n      sload\n      dup1\n      iszero\n      tag_23\n      jumpi\n      0x20\n      mul\n      dup3\n      add\n      swap2\n      swap1\n      0x00\n      mstore\n      keccak256(0x00, 0x20)\n      swap1\n    tag_24:\n      dup2\n      0x00\n      swap1\n      sload\n      swap1\n      0x0100\n      exp\n      swap1\n      div\n      0xffffffffffffffffffffffffffffffffffffffff\n      and\n      0xffffffffffffffffffffffffffffffffffffffff\n      and\n      dup2\n      mstore\n      0x20\n      add\n      swap1\n      0x01\n      add\n      swap1\n      dup1\n      dup4\n      gt\n      tag_24\n      jumpi\n    tag_23:\n      pop\n      pop\n      pop\n      pop\n      pop\n      swap1\n      pop\n        /* \"Campaign.sol\":383:497  function getDeployedCampaigns() public view returns (Campaign[] memory){... */\n      swap1\n      jump\t// out\n        /* \"Campaign.sol\":138:375  function createCampaign(uint minimum, string memory name, string memory desc, string memory img ) public {... */\n    tag_19:\n        /* \"Campaign.sol\":254:274  Campaign newCampaign */\n      0x00\n        /* \"Campaign.sol\":288:295  minimum */\n      dup5\n        /* \"Campaign.sol\":296:306  msg.sender */\n      caller\n        /* \"Campaign.sol\":307:311  name */\n      dup6\n        /* \"Campaign.sol\":312:316  desc */\n      dup6\n        /* \"Campaign.sol\":317:320  img */\n      dup6\n        /* \"Campaign.sol\":275:321  new Campaign(minimum,msg.sender,name,desc,img) */\n      mload(0x40)\n      tag_26\n      swap1\n      tag_27\n      jump\t// in\n    tag_26:\n      tag_28\n      swap6\n      swap5\n      swap4\n      swap3\n      swap2\n      swap1\n      tag_29\n      jump\t// in\n    tag_28:\n      mload(0x40)\n      dup1\n      swap2\n      sub\n      swap1\n      0x00\n      create\n      dup1\n      iszero\n      dup1\n      iszero\n      tag_30\n      jumpi\n      returndatasize\n      0x00\n      dup1\n      returndatacopy\n      revert(0x00, returndatasize)\n    tag_30:\n      pop\n        /* \"Campaign.sol\":254:321  Campaign newCampaign=new Campaign(minimum,msg.sender,name,desc,img) */\n      swap1\n      pop\n        /* \"Campaign.sol\":332:349  deployedCampaigns */\n      0x00\n        /* \"Campaign.sol\":355:366  newCampaign */\n      dup2\n        /* \"Campaign.sol\":332:367  deployedCampaigns.push(newCampaign) */\n      swap1\n      dup1\n      0x01\n      dup2\n      sload\n      add\n      dup1\n      dup3\n      sstore\n      dup1\n      swap2\n      pop\n      pop\n      0x01\n      swap1\n      sub\n      swap1\n      0x00\n      mstore\n      keccak256(0x00, 0x20)\n      add\n      0x00\n      swap1\n      swap2\n      swap1\n      swap2\n      swap1\n      swap2\n      0x0100\n      exp\n      dup2\n      sload\n      dup2\n      0xffffffffffffffffffffffffffffffffffffffff\n      mul\n      not\n      and\n      swap1\n      dup4\n      0xffffffffffffffffffffffffffffffffffffffff\n      and\n      mul\n      or\n      swap1\n      sstore\n      pop\n        /* \"Campaign.sol\":243:375  {... */\n      pop\n        /* \"Campaign.sol\":138:375  function createCampaign(uint minimum, string memory name, string memory desc, string memory img ) public {... */\n      pop\n      pop\n      pop\n      pop\n      jump\t// out\n    tag_27:\n      dataSize(sub_0)\n      dup1\n      dataOffset(sub_0)\n      dup4\n      codecopy\n      add\n      swap1\n      jump\t// out\n        /* \"#utility.yul\":7:82   */\n    tag_32:\n        /* \"#utility.yul\":40:46   */\n      0x00\n        /* \"#utility.yul\":73:75   */\n      0x40\n        /* \"#utility.yul\":67:76   */\n      mload\n        /* \"#utility.yul\":57:76   */\n      swap1\n      pop\n        /* \"#utility.yul\":7:82   */\n      swap1\n      jump\t// out\n        /* \"#utility.yul\":88:205   */\n    tag_33:\n        /* \"#utility.yul\":197:198   */\n      0x00\n        /* \"#utility.yul\":194:195   */\n      dup1\n        /* \"#utility.yul\":187:199   */\n      revert\n        /* \"#utility.yul\":211:328   */\n    tag_34:\n        /* \"#utility.yul\":320:321   */\n      0x00\n        /* \"#utility.yul\":317:318   */\n      dup1\n        /* \"#utility.yul\":310:322   */\n      revert\n        /* \"#utility.yul\":334:411   */\n    tag_35:\n        /* \"#utility.yul\":371:378   */\n      0x00\n        /* \"#utility.yul\":400:405   */\n      dup2\n        /* \"#utility.yul\":389:405   */\n      swap1\n      pop\n        /* \"#utility.yul\":334:411   */\n      swap2\n      swap1\n      pop\n      jump\t// out\n        /* \"#utility.yul\":417:539   */\n    tag_36:\n        /* \"#utility.yul\":490:514   */\n      tag_74\n        /* \"#utility.yul\":508:513   */\n      dup2\n        /* \"#utility.yul\":490:514   */\n      tag_35\n      jump\t// in\n    tag_74:\n        /* \"#utility.yul\":483:488   */\n      dup2\n        /* \"#utility.yul\":480:515   */\n      eq\n        /* \"#utility.yul\":470:533   */\n      tag_75\n      jumpi\n        /* \"#utility.yul\":529:530   */\n      0x00\n        /* \"#utility.yul\":526:527   */\n      dup1\n        /* \"#utility.yul\":519:531   */\n      revert\n        /* \"#utility.yul\":470:533   */\n    tag_75:\n        /* \"#utility.yul\":417:539   */\n      pop\n      jump\t// out\n        /* \"#utility.yul\":545:684   */\n    tag_37:\n        /* \"#utility.yul\":591:596   */\n      0x00\n        /* \"#utility.yul\":629:635   */\n      dup2\n        /* \"#utility.yul\":616:636   */\n      calldataload\n        /* \"#utility.yul\":607:636   */\n      swap1\n      pop\n        /* \"#utility.yul\":645:678   */\n      tag_77\n        /* \"#utility.yul\":672:677   */\n      dup2\n        /* \"#utility.yul\":645:678   */\n      tag_36\n      jump\t// in\n    tag_77:\n        /* \"#utility.yul\":545:684   */\n      swap3\n      swap2\n      pop\n      pop\n      jump\t// out\n        /* \"#utility.yul\":690:1019   */\n    tag_8:\n        /* \"#utility.yul\":749:755   */\n      0x00\n        /* \"#utility.yul\":798:800   */\n      0x20\n        /* \"#utility.yul\":786:795   */\n      dup3\n        /* \"#utility.yul\":777:784   */\n      dup5\n        /* \"#utility.yul\":773:796   */\n      sub\n        /* \"#utility.yul\":769:801   */\n      slt\n        /* \"#utility.yul\":766:885   */\n      iszero\n      tag_79\n      jumpi\n        /* \"#utility.yul\":804:883   */\n      tag_80\n      tag_33\n      jump\t// in\n    tag_80:\n        /* \"#utility.yul\":766:885   */\n    tag_79:\n        /* \"#utility.yul\":924:925   */\n      0x00\n        /* \"#utility.yul\":949:1002   */\n      tag_81\n        /* \"#utility.yul\":994:1001   */\n      dup5\n        /* \"#utility.yul\":985:991   */\n      dup3\n        /* \"#utility.yul\":974:983   */\n      dup6\n        /* \"#utility.yul\":970:992   */\n      add\n        /* \"#utility.yul\":949:1002   */\n      tag_37\n      jump\t// in\n    tag_81:\n        /* \"#utility.yul\":939:1002   */\n      swap2\n      pop\n        /* \"#utility.yul\":895:1012   */\n      pop\n        /* \"#utility.yul\":690:1019   */\n      swap3\n      swap2\n      pop\n      pop\n      jump\t// out\n        /* \"#utility.yul\":1025:1151   */\n    tag_38:\n        /* \"#utility.yul\":1062:1069   */\n      0x00\n        /* \"#utility.yul\":1102:1144   */\n      0xffffffffffffffffffffffffffffffffffffffff\n        /* \"#utility.yul\":1095:1100   */\n      dup3\n        /* \"#utility.yul\":1091:1145   */\n      and\n        /* \"#utility.yul\":1080:1145   */\n      swap1\n      pop\n        /* \"#utility.yul\":1025:1151   */\n      swap2\n      swap1\n      pop\n      jump\t// out\n        /* \"#utility.yul\":1157:1217   */\n    tag_39:\n        /* \"#utility.yul\":1185:1188   */\n      0x00\n        /* \"#utility.yul\":1206:1211   */\n      dup2\n        /* \"#utility.yul\":1199:1211   */\n      swap1\n      pop\n        /* \"#utility.yul\":1157:1217   */\n      swap2\n      swap1\n      pop\n      jump\t// out\n        /* \"#utility.yul\":1223:1365   */\n    tag_40:\n        /* \"#utility.yul\":1273:1282   */\n      0x00\n        /* \"#utility.yul\":1306:1359   */\n      tag_85\n        /* \"#utility.yul\":1324:1358   */\n      tag_86\n        /* \"#utility.yul\":1333:1357   */\n      tag_87\n        /* \"#utility.yul\":1351:1356   */\n      dup5\n        /* \"#utility.yul\":1333:1357   */\n      tag_38\n      jump\t// in\n    tag_87:\n        /* \"#utility.yul\":1324:1358   */\n      tag_39\n      jump\t// in\n    tag_86:\n        /* \"#utility.yul\":1306:1359   */\n      tag_38\n      jump\t// in\n    tag_85:\n        /* \"#utility.yul\":1293:1359   */\n      swap1\n      pop\n        /* \"#utility.yul\":1223:1365   */\n      swap2\n      swap1\n      pop\n      jump\t// out\n        /* \"#utility.yul\":1371:1497   */\n    tag_41:\n        /* \"#utility.yul\":1421:1430   */\n      0x00\n        /* \"#utility.yul\":1454:1491   */\n      tag_89\n        /* \"#utility.yul\":1485:1490   */\n      dup3\n        /* \"#utility.yul\":1454:1491   */\n      tag_40\n      jump\t// in\n    tag_89:\n        /* \"#utility.yul\":1441:1491   */\n      swap1\n      pop\n        /* \"#utility.yul\":1371:1497   */\n      swap2\n      swap1\n      pop\n      jump\t// out\n        /* \"#utility.yul\":1503:1645   */\n    tag_42:\n        /* \"#utility.yul\":1569:1578   */\n      0x00\n        /* \"#utility.yul\":1602:1639   */\n      tag_91\n        /* \"#utility.yul\":1633:1638   */\n      dup3\n        /* \"#utility.yul\":1602:1639   */\n      tag_41\n      jump\t// in\n    tag_91:\n        /* \"#utility.yul\":1589:1639   */\n      swap1\n      pop\n        /* \"#utility.yul\":1503:1645   */\n      swap2\n      swap1\n      pop\n      jump\t// out\n        /* \"#utility.yul\":1651:1814   */\n    tag_43:\n        /* \"#utility.yul\":1754:1807   */\n      tag_93\n        /* \"#utility.yul\":1801:1806   */\n      dup2\n        /* \"#utility.yul\":1754:1807   */\n      tag_42\n      jump\t// in\n    tag_93:\n        /* \"#utility.yul\":1749:1752   */\n      dup3\n        /* \"#utility.yul\":1742:1808   */\n      mstore\n        /* \"#utility.yul\":1651:1814   */\n      pop\n      pop\n      jump\t// out\n        /* \"#utility.yul\":1820:2074   */\n    tag_11:\n        /* \"#utility.yul\":1929:1933   */\n      0x00\n        /* \"#utility.yul\":1967:1969   */\n      0x20\n        /* \"#utility.yul\":1956:1965   */\n      dup3\n        /* \"#utility.yul\":1952:1970   */\n      add\n        /* \"#utility.yul\":1944:1970   */\n      swap1\n      pop\n        /* \"#utility.yul\":1980:2067   */\n      tag_95\n        /* \"#utility.yul\":2064:2065   */\n      0x00\n        /* \"#utility.yul\":2053:2062   */\n      dup4\n        /* \"#utility.yul\":2049:2066   */\n      add\n        /* \"#utility.yul\":2040:2046   */\n      dup5\n        /* \"#utility.yul\":1980:2067   */\n      tag_43\n      jump\t// in\n    tag_95:\n        /* \"#utility.yul\":1820:2074   */\n      swap3\n      swap2\n      pop\n      pop\n      jump\t// out\n        /* \"#utility.yul\":2080:2210   */\n    tag_44:\n        /* \"#utility.yul\":2163:2169   */\n      0x00\n        /* \"#utility.yul\":2197:2202   */\n      dup2\n        /* \"#utility.yul\":2191:2203   */\n      mload\n        /* \"#utility.yul\":2181:2203   */\n      swap1\n      pop\n        /* \"#utility.yul\":2080:2210   */\n      swap2\n      swap1\n      pop\n      jump\t// out\n        /* \"#utility.yul\":2216:2400   */\n    tag_45:\n        /* \"#utility.yul\":2315:2326   */\n      0x00\n        /* \"#utility.yul\":2349:2355   */\n      dup3\n        /* \"#utility.yul\":2344:2347   */\n      dup3\n        /* \"#utility.yul\":2337:2356   */\n      mstore\n        /* \"#utility.yul\":2389:2393   */\n      0x20\n        /* \"#utility.yul\":2384:2387   */\n      dup3\n        /* \"#utility.yul\":2380:2394   */\n      add\n        /* \"#utility.yul\":2365:2394   */\n      swap1\n      pop\n        /* \"#utility.yul\":2216:2400   */\n      swap3\n      swap2\n      pop\n      pop\n      jump\t// out\n        /* \"#utility.yul\":2406:2554   */\n    tag_46:\n        /* \"#utility.yul\":2489:2493   */\n      0x00\n        /* \"#utility.yul\":2512:2515   */\n      dup2\n        /* \"#utility.yul\":2504:2515   */\n      swap1\n      pop\n        /* \"#utility.yul\":2542:2546   */\n      0x20\n        /* \"#utility.yul\":2537:2540   */\n      dup3\n        /* \"#utility.yul\":2533:2547   */\n      add\n        /* \"#utility.yul\":2525:2547   */\n      swap1\n      pop\n        /* \"#utility.yul\":2406:2554   */\n      swap2\n      swap1\n      pop\n      jump\t// out\n        /* \"#utility.yul\":2560:2713   */\n    tag_47:\n        /* \"#utility.yul\":2653:2706   */\n      tag_100\n        /* \"#utility.yul\":2700:2705   */\n      dup2\n        /* \"#utility.yul\":2653:2706   */\n      tag_42\n      jump\t// in\n    tag_100:\n        /* \"#utility.yul\":2648:2651   */\n      dup3\n        /* \"#utility.yul\":2641:2707   */\n      mstore\n        /* \"#utility.yul\":2560:2713   */\n      pop\n      pop\n      jump\t// out\n        /* \"#utility.yul\":2719:2930   */\n    tag_48:\n        /* \"#utility.yul\":2804:2814   */\n      0x00\n        /* \"#utility.yul\":2825:2887   */\n      tag_102\n        /* \"#utility.yul\":2883:2886   */\n      dup4\n        /* \"#utility.yul\":2875:2881   */\n      dup4\n        /* \"#utility.yul\":2825:2887   */\n      tag_47\n      jump\t// in\n    tag_102:\n        /* \"#utility.yul\":2919:2923   */\n      0x20\n        /* \"#utility.yul\":2914:2917   */\n      dup4\n        /* \"#utility.yul\":2910:2924   */\n      add\n        /* \"#utility.yul\":2896:2924   */\n      swap1\n      pop\n        /* \"#utility.yul\":2719:2930   */\n      swap3\n      swap2\n      pop\n      pop\n      jump\t// out\n        /* \"#utility.yul\":2936:3065   */\n    tag_49:\n        /* \"#utility.yul\":3022:3026   */\n      0x00\n        /* \"#utility.yul\":3054:3058   */\n      0x20\n        /* \"#utility.yul\":3049:3052   */\n      dup3\n        /* \"#utility.yul\":3045:3059   */\n      add\n        /* \"#utility.yul\":3037:3059   */\n      swap1\n      pop\n        /* \"#utility.yul\":2936:3065   */\n      swap2\n      swap1\n      pop\n      jump\t// out\n        /* \"#utility.yul\":3111:3923   */\n    tag_50:\n        /* \"#utility.yul\":3246:3249   */\n      0x00\n        /* \"#utility.yul\":3275:3345   */\n      tag_105\n        /* \"#utility.yul\":3339:3344   */\n      dup3\n        /* \"#utility.yul\":3275:3345   */\n      tag_44\n      jump\t// in\n    tag_105:\n        /* \"#utility.yul\":3361:3447   */\n      tag_106\n        /* \"#utility.yul\":3440:3446   */\n      dup2\n        /* \"#utility.yul\":3435:3438   */\n      dup6\n        /* \"#utility.yul\":3361:3447   */\n      tag_45\n      jump\t// in\n    tag_106:\n        /* \"#utility.yul\":3354:3447   */\n      swap4\n      pop\n        /* \"#utility.yul\":3471:3543   */\n      tag_107\n        /* \"#utility.yul\":3537:3542   */\n      dup4\n        /* \"#utility.yul\":3471:3543   */\n      tag_46\n      jump\t// in\n    tag_107:\n        /* \"#utility.yul\":3566:3573   */\n      dup1\n        /* \"#utility.yul\":3597:3598   */\n      0x00\n        /* \"#utility.yul\":3582:3898   */\n    tag_108:\n        /* \"#utility.yul\":3607:3613   */\n      dup4\n        /* \"#utility.yul\":3604:3605   */\n      dup2\n        /* \"#utility.yul\":3601:3614   */\n      lt\n        /* \"#utility.yul\":3582:3898   */\n      iszero\n      tag_110\n      jumpi\n        /* \"#utility.yul\":3683:3689   */\n      dup2\n        /* \"#utility.yul\":3677:3690   */\n      mload\n        /* \"#utility.yul\":3710:3789   */\n      tag_111\n        /* \"#utility.yul\":3785:3788   */\n      dup9\n        /* \"#utility.yul\":3770:3783   */\n      dup3\n        /* \"#utility.yul\":3710:3789   */\n      tag_48\n      jump\t// in\n    tag_111:\n        /* \"#utility.yul\":3703:3789   */\n      swap8\n      pop\n        /* \"#utility.yul\":3812:3888   */\n      tag_112\n        /* \"#utility.yul\":3881:3887   */\n      dup4\n        /* \"#utility.yul\":3812:3888   */\n      tag_49\n      jump\t// in\n    tag_112:\n        /* \"#utility.yul\":3802:3888   */\n      swap3\n      pop\n        /* \"#utility.yul\":3642:3898   */\n      pop\n        /* \"#utility.yul\":3629:3630   */\n      0x01\n        /* \"#utility.yul\":3626:3627   */\n      dup2\n        /* \"#utility.yul\":3622:3631   */\n      add\n        /* \"#utility.yul\":3617:3631   */\n      swap1\n      pop\n        /* \"#utility.yul\":3582:3898   */\n      jump(tag_108)\n    tag_110:\n        /* \"#utility.yul\":3586:3600   */\n      pop\n        /* \"#utility.yul\":3914:3917   */\n      dup6\n        /* \"#utility.yul\":3907:3917   */\n      swap4\n      pop\n        /* \"#utility.yul\":3251:3923   */\n      pop\n      pop\n      pop\n        /* \"#utility.yul\":3111:3923   */\n      swap3\n      swap2\n      pop\n      pop\n      jump\t// out\n        /* \"#utility.yul\":3929:4334   */\n    tag_15:\n        /* \"#utility.yul\":4088:4092   */\n      0x00\n        /* \"#utility.yul\":4126:4128   */\n      0x20\n        /* \"#utility.yul\":4115:4124   */\n      dup3\n        /* \"#utility.yul\":4111:4129   */\n      add\n        /* \"#utility.yul\":4103:4129   */\n      swap1\n      pop\n        /* \"#utility.yul\":4175:4184   */\n      dup2\n        /* \"#utility.yul\":4169:4173   */\n      dup2\n        /* \"#utility.yul\":4165:4185   */\n      sub\n        /* \"#utility.yul\":4161:4162   */\n      0x00\n        /* \"#utility.yul\":4150:4159   */\n      dup4\n        /* \"#utility.yul\":4146:4163   */\n      add\n        /* \"#utility.yul\":4139:4186   */\n      mstore\n        /* \"#utility.yul\":4203:4327   */\n      tag_114\n        /* \"#utility.yul\":4322:4326   */\n      dup2\n        /* \"#utility.yul\":4313:4319   */\n      dup5\n        /* \"#utility.yul\":4203:4327   */\n      tag_50\n      jump\t// in\n    tag_114:\n        /* \"#utility.yul\":4195:4327   */\n      swap1\n      pop\n        /* \"#utility.yul\":3929:4334   */\n      swap3\n      swap2\n      pop\n      pop\n      jump\t// out\n        /* \"#utility.yul\":4340:4457   */\n    tag_51:\n        /* \"#utility.yul\":4449:4450   */\n      0x00\n        /* \"#utility.yul\":4446:4447   */\n      dup1\n        /* \"#utility.yul\":4439:4451   */\n      revert\n        /* \"#utility.yul\":4463:4580   */\n    tag_52:\n        /* \"#utility.yul\":4572:4573   */\n      0x00\n        /* \"#utility.yul\":4569:4570   */\n      dup1\n        /* \"#utility.yul\":4562:4574   */\n      revert\n        /* \"#utility.yul\":4586:4688   */\n    tag_53:\n        /* \"#utility.yul\":4627:4633   */\n      0x00\n        /* \"#utility.yul\":4678:4680   */\n      0x1f\n        /* \"#utility.yul\":4674:4681   */\n      not\n        /* \"#utility.yul\":4669:4671   */\n      0x1f\n        /* \"#utility.yul\":4662:4667   */\n      dup4\n        /* \"#utility.yul\":4658:4672   */\n      add\n        /* \"#utility.yul\":4654:4682   */\n      and\n        /* \"#utility.yul\":4644:4682   */\n      swap1\n      pop\n        /* \"#utility.yul\":4586:4688   */\n      swap2\n      swap1\n      pop\n      jump\t// out\n        /* \"#utility.yul\":4694:4874   */\n    tag_54:\n        /* \"#utility.yul\":4742:4819   */\n      0x4e487b7100000000000000000000000000000000000000000000000000000000\n        /* \"#utility.yul\":4739:4740   */\n      0x00\n        /* \"#utility.yul\":4732:4820   */\n      mstore\n        /* \"#utility.yul\":4839:4843   */\n      0x41\n        /* \"#utility.yul\":4836:4837   */\n      0x04\n        /* \"#utility.yul\":4829:4844   */\n      mstore\n        /* \"#utility.yul\":4863:4867   */\n      0x24\n        /* \"#utility.yul\":4860:4861   */\n      0x00\n        /* \"#utility.yul\":4853:4868   */\n      revert\n        /* \"#utility.yul\":4880:5161   */\n    tag_55:\n        /* \"#utility.yul\":4963:4990   */\n      tag_120\n        /* \"#utility.yul\":4985:4989   */\n      dup3\n        /* \"#utility.yul\":4963:4990   */\n      tag_53\n      jump\t// in\n    tag_120:\n        /* \"#utility.yul\":4955:4961   */\n      dup2\n        /* \"#utility.yul\":4951:4991   */\n      add\n        /* \"#utility.yul\":5093:5099   */\n      dup2\n        /* \"#utility.yul\":5081:5091   */\n      dup2\n        /* \"#utility.yul\":5078:5100   */\n      lt\n        /* \"#utility.yul\":5057:5075   */\n      0xffffffffffffffff\n        /* \"#utility.yul\":5045:5055   */\n      dup3\n        /* \"#utility.yul\":5042:5076   */\n      gt\n        /* \"#utility.yul\":5039:5101   */\n      or\n        /* \"#utility.yul\":5036:5124   */\n      iszero\n      tag_121\n      jumpi\n        /* \"#utility.yul\":5104:5122   */\n      tag_122\n      tag_54\n      jump\t// in\n    tag_122:\n        /* \"#utility.yul\":5036:5124   */\n    tag_121:\n        /* \"#utility.yul\":5144:5154   */\n      dup1\n        /* \"#utility.yul\":5140:5142   */\n      0x40\n        /* \"#utility.yul\":5133:5155   */\n      mstore\n        /* \"#utility.yul\":4923:5161   */\n      pop\n        /* \"#utility.yul\":4880:5161   */\n      pop\n      pop\n      jump\t// out\n        /* \"#utility.yul\":5167:5296   */\n    tag_56:\n        /* \"#utility.yul\":5201:5207   */\n      0x00\n        /* \"#utility.yul\":5228:5248   */\n      tag_124\n      tag_32\n      jump\t// in\n    tag_124:\n        /* \"#utility.yul\":5218:5248   */\n      swap1\n      pop\n        /* \"#utility.yul\":5257:5290   */\n      tag_125\n        /* \"#utility.yul\":5285:5289   */\n      dup3\n        /* \"#utility.yul\":5277:5283   */\n      dup3\n        /* \"#utility.yul\":5257:5290   */\n      tag_55\n      jump\t// in\n    tag_125:\n        /* \"#utility.yul\":5167:5296   */\n      swap2\n      swap1\n      pop\n      jump\t// out\n        /* \"#utility.yul\":5302:5610   */\n    tag_57:\n        /* \"#utility.yul\":5364:5368   */\n      0x00\n        /* \"#utility.yul\":5454:5472   */\n      0xffffffffffffffff\n        /* \"#utility.yul\":5446:5452   */\n      dup3\n        /* \"#utility.yul\":5443:5473   */\n      gt\n        /* \"#utility.yul\":5440:5496   */\n      iszero\n      tag_127\n      jumpi\n        /* \"#utility.yul\":5476:5494   */\n      tag_128\n      tag_54\n      jump\t// in\n    tag_128:\n        /* \"#utility.yul\":5440:5496   */\n    tag_127:\n        /* \"#utility.yul\":5514:5543   */\n      tag_129\n        /* \"#utility.yul\":5536:5542   */\n      dup3\n        /* \"#utility.yul\":5514:5543   */\n      tag_53\n      jump\t// in\n    tag_129:\n        /* \"#utility.yul\":5506:5543   */\n      swap1\n      pop\n        /* \"#utility.yul\":5598:5602   */\n      0x20\n        /* \"#utility.yul\":5592:5596   */\n      dup2\n        /* \"#utility.yul\":5588:5603   */\n      add\n        /* \"#utility.yul\":5580:5603   */\n      swap1\n      pop\n        /* \"#utility.yul\":5302:5610   */\n      swap2\n      swap1\n      pop\n      jump\t// out\n        /* \"#utility.yul\":5616:5770   */\n    tag_58:\n        /* \"#utility.yul\":5700:5706   */\n      dup3\n        /* \"#utility.yul\":5695:5698   */\n      dup2\n        /* \"#utility.yul\":5690:5693   */\n      dup4\n        /* \"#utility.yul\":5677:5707   */\n      calldatacopy\n        /* \"#utility.yul\":5762:5763   */\n      0x00\n        /* \"#utility.yul\":5753:5759   */\n      dup4\n        /* \"#utility.yul\":5748:5751   */\n      dup4\n        /* \"#utility.yul\":5744:5760   */\n      add\n        /* \"#utility.yul\":5737:5764   */\n      mstore\n        /* \"#utility.yul\":5616:5770   */\n      pop\n      pop\n      pop\n      jump\t// out\n        /* \"#utility.yul\":5776:6188   */\n    tag_59:\n        /* \"#utility.yul\":5854:5859   */\n      0x00\n        /* \"#utility.yul\":5879:5945   */\n      tag_132\n        /* \"#utility.yul\":5895:5944   */\n      tag_133\n        /* \"#utility.yul\":5937:5943   */\n      dup5\n        /* \"#utility.yul\":5895:5944   */\n      tag_57\n      jump\t// in\n    tag_133:\n        /* \"#utility.yul\":5879:5945   */\n      tag_56\n      jump\t// in\n    tag_132:\n        /* \"#utility.yul\":5870:5945   */\n      swap1\n      pop\n        /* \"#utility.yul\":5968:5974   */\n      dup3\n        /* \"#utility.yul\":5961:5966   */\n      dup2\n        /* \"#utility.yul\":5954:5975   */\n      mstore\n        /* \"#utility.yul\":6006:6010   */\n      0x20\n        /* \"#utility.yul\":5999:6004   */\n      dup2\n        /* \"#utility.yul\":5995:6011   */\n      add\n        /* \"#utility.yul\":6044:6047   */\n      dup5\n        /* \"#utility.yul\":6035:6041   */\n      dup5\n        /* \"#utility.yul\":6030:6033   */\n      dup5\n        /* \"#utility.yul\":6026:6042   */\n      add\n        /* \"#utility.yul\":6023:6048   */\n      gt\n        /* \"#utility.yul\":6020:6132   */\n      iszero\n      tag_134\n      jumpi\n        /* \"#utility.yul\":6051:6130   */\n      tag_135\n      tag_52\n      jump\t// in\n    tag_135:\n        /* \"#utility.yul\":6020:6132   */\n    tag_134:\n        /* \"#utility.yul\":6141:6182   */\n      tag_136\n        /* \"#utility.yul\":6175:6181   */\n      dup5\n        /* \"#utility.yul\":6170:6173   */\n      dup3\n        /* \"#utility.yul\":6165:6168   */\n      dup6\n        /* \"#utility.yul\":6141:6182   */\n      tag_58\n      jump\t// in\n    tag_136:\n        /* \"#utility.yul\":5860:6188   */\n      pop\n        /* \"#utility.yul\":5776:6188   */\n      swap4\n      swap3\n      pop\n      pop\n      pop\n      jump\t// out\n        /* \"#utility.yul\":6208:6548   */\n    tag_60:\n        /* \"#utility.yul\":6264:6269   */\n      0x00\n        /* \"#utility.yul\":6313:6316   */\n      dup3\n        /* \"#utility.yul\":6306:6310   */\n      0x1f\n        /* \"#utility.yul\":6298:6304   */\n      dup4\n        /* \"#utility.yul\":6294:6311   */\n      add\n        /* \"#utility.yul\":6290:6317   */\n      slt\n        /* \"#utility.yul\":6280:6402   */\n      tag_138\n      jumpi\n        /* \"#utility.yul\":6321:6400   */\n      tag_139\n      tag_51\n      jump\t// in\n    tag_139:\n        /* \"#utility.yul\":6280:6402   */\n    tag_138:\n        /* \"#utility.yul\":6438:6444   */\n      dup2\n        /* \"#utility.yul\":6425:6445   */\n      calldataload\n        /* \"#utility.yul\":6463:6542   */\n      tag_140\n        /* \"#utility.yul\":6538:6541   */\n      dup5\n        /* \"#utility.yul\":6530:6536   */\n      dup3\n        /* \"#utility.yul\":6523:6527   */\n      0x20\n        /* \"#utility.yul\":6515:6521   */\n      dup7\n        /* \"#utility.yul\":6511:6528   */\n      add\n        /* \"#utility.yul\":6463:6542   */\n      tag_59\n      jump\t// in\n    tag_140:\n        /* \"#utility.yul\":6454:6542   */\n      swap2\n      pop\n        /* \"#utility.yul\":6270:6548   */\n      pop\n        /* \"#utility.yul\":6208:6548   */\n      swap3\n      swap2\n      pop\n      pop\n      jump\t// out\n        /* \"#utility.yul\":6554:7859   */\n    tag_18:\n        /* \"#utility.yul\":6670:6676   */\n      0x00\n        /* \"#utility.yul\":6678:6684   */\n      dup1\n        /* \"#utility.yul\":6686:6692   */\n      0x00\n        /* \"#utility.yul\":6694:6700   */\n      dup1\n        /* \"#utility.yul\":6743:6746   */\n      0x80\n        /* \"#utility.yul\":6731:6740   */\n      dup6\n        /* \"#utility.yul\":6722:6729   */\n      dup8\n        /* \"#utility.yul\":6718:6741   */\n      sub\n        /* \"#utility.yul\":6714:6747   */\n      slt\n        /* \"#utility.yul\":6711:6831   */\n      iszero\n      tag_142\n      jumpi\n        /* \"#utility.yul\":6750:6829   */\n      tag_143\n      tag_33\n      jump\t// in\n    tag_143:\n        /* \"#utility.yul\":6711:6831   */\n    tag_142:\n        /* \"#utility.yul\":6870:6871   */\n      0x00\n        /* \"#utility.yul\":6895:6948   */\n      tag_144\n        /* \"#utility.yul\":6940:6947   */\n      dup8\n        /* \"#utility.yul\":6931:6937   */\n      dup3\n        /* \"#utility.yul\":6920:6929   */\n      dup9\n        /* \"#utility.yul\":6916:6938   */\n      add\n        /* \"#utility.yul\":6895:6948   */\n      tag_37\n      jump\t// in\n    tag_144:\n        /* \"#utility.yul\":6885:6948   */\n      swap5\n      pop\n        /* \"#utility.yul\":6841:6958   */\n      pop\n        /* \"#utility.yul\":7025:7027   */\n      0x20\n        /* \"#utility.yul\":7014:7023   */\n      dup6\n        /* \"#utility.yul\":7010:7028   */\n      add\n        /* \"#utility.yul\":6997:7029   */\n      calldataload\n        /* \"#utility.yul\":7056:7074   */\n      0xffffffffffffffff\n        /* \"#utility.yul\":7048:7054   */\n      dup2\n        /* \"#utility.yul\":7045:7075   */\n      gt\n        /* \"#utility.yul\":7042:7159   */\n      iszero\n      tag_145\n      jumpi\n        /* \"#utility.yul\":7078:7157   */\n      tag_146\n      tag_34\n      jump\t// in\n    tag_146:\n        /* \"#utility.yul\":7042:7159   */\n    tag_145:\n        /* \"#utility.yul\":7183:7246   */\n      tag_147\n        /* \"#utility.yul\":7238:7245   */\n      dup8\n        /* \"#utility.yul\":7229:7235   */\n      dup3\n        /* \"#utility.yul\":7218:7227   */\n      dup9\n        /* \"#utility.yul\":7214:7236   */\n      add\n        /* \"#utility.yul\":7183:7246   */\n      tag_60\n      jump\t// in\n    tag_147:\n        /* \"#utility.yul\":7173:7246   */\n      swap4\n      pop\n        /* \"#utility.yul\":6968:7256   */\n      pop\n        /* \"#utility.yul\":7323:7325   */\n      0x40\n        /* \"#utility.yul\":7312:7321   */\n      dup6\n        /* \"#utility.yul\":7308:7326   */\n      add\n        /* \"#utility.yul\":7295:7327   */\n      calldataload\n        /* \"#utility.yul\":7354:7372   */\n      0xffffffffffffffff\n        /* \"#utility.yul\":7346:7352   */\n      dup2\n        /* \"#utility.yul\":7343:7373   */\n      gt\n        /* \"#utility.yul\":7340:7457   */\n      iszero\n      tag_148\n      jumpi\n        /* \"#utility.yul\":7376:7455   */\n      tag_149\n      tag_34\n      jump\t// in\n    tag_149:\n        /* \"#utility.yul\":7340:7457   */\n    tag_148:\n        /* \"#utility.yul\":7481:7544   */\n      tag_150\n        /* \"#utility.yul\":7536:7543   */\n      dup8\n        /* \"#utility.yul\":7527:7533   */\n      dup3\n        /* \"#utility.yul\":7516:7525   */\n      dup9\n        /* \"#utility.yul\":7512:7534   */\n      add\n        /* \"#utility.yul\":7481:7544   */\n      tag_60\n      jump\t// in\n    tag_150:\n        /* \"#utility.yul\":7471:7544   */\n      swap3\n      pop\n        /* \"#utility.yul\":7266:7554   */\n      pop\n        /* \"#utility.yul\":7621:7623   */\n      0x60\n        /* \"#utility.yul\":7610:7619   */\n      dup6\n        /* \"#utility.yul\":7606:7624   */\n      add\n        /* \"#utility.yul\":7593:7625   */\n      calldataload\n        /* \"#utility.yul\":7652:7670   */\n      0xffffffffffffffff\n        /* \"#utility.yul\":7644:7650   */\n      dup2\n        /* \"#utility.yul\":7641:7671   */\n      gt\n        /* \"#utility.yul\":7638:7755   */\n      iszero\n      tag_151\n      jumpi\n        /* \"#utility.yul\":7674:7753   */\n      tag_152\n      tag_34\n      jump\t// in\n    tag_152:\n        /* \"#utility.yul\":7638:7755   */\n    tag_151:\n        /* \"#utility.yul\":7779:7842   */\n      tag_153\n        /* \"#utility.yul\":7834:7841   */\n      dup8\n        /* \"#utility.yul\":7825:7831   */\n      dup3\n        /* \"#utility.yul\":7814:7823   */\n      dup9\n        /* \"#utility.yul\":7810:7832   */\n      add\n        /* \"#utility.yul\":7779:7842   */\n      tag_60\n      jump\t// in\n    tag_153:\n        /* \"#utility.yul\":7769:7842   */\n      swap2\n      pop\n        /* \"#utility.yul\":7564:7852   */\n      pop\n        /* \"#utility.yul\":6554:7859   */\n      swap3\n      swap6\n      swap2\n      swap5\n      pop\n      swap3\n      pop\n      jump\t// out\n        /* \"#utility.yul\":7865:7983   */\n    tag_61:\n        /* \"#utility.yul\":7952:7976   */\n      tag_155\n        /* \"#utility.yul\":7970:7975   */\n      dup2\n        /* \"#utility.yul\":7952:7976   */\n      tag_35\n      jump\t// in\n    tag_155:\n        /* \"#utility.yul\":7947:7950   */\n      dup3\n        /* \"#utility.yul\":7940:7977   */\n      mstore\n        /* \"#utility.yul\":7865:7983   */\n      pop\n      pop\n      jump\t// out\n        /* \"#utility.yul\":7989:8085   */\n    tag_62:\n        /* \"#utility.yul\":8026:8033   */\n      0x00\n        /* \"#utility.yul\":8055:8079   */\n      tag_157\n        /* \"#utility.yul\":8073:8078   */\n      dup3\n        /* \"#utility.yul\":8055:8079   */\n      tag_38\n      jump\t// in\n    tag_157:\n        /* \"#utility.yul\":8044:8079   */\n      swap1\n      pop\n        /* \"#utility.yul\":7989:8085   */\n      swap2\n      swap1\n      pop\n      jump\t// out\n        /* \"#utility.yul\":8091:8209   */\n    tag_63:\n        /* \"#utility.yul\":8178:8202   */\n      tag_159\n        /* \"#utility.yul\":8196:8201   */\n      dup2\n        /* \"#utility.yul\":8178:8202   */\n      tag_62\n      jump\t// in\n    tag_159:\n        /* \"#utility.yul\":8173:8176   */\n      dup3\n        /* \"#utility.yul\":8166:8203   */\n      mstore\n        /* \"#utility.yul\":8091:8209   */\n      pop\n      pop\n      jump\t// out\n        /* \"#utility.yul\":8215:8314   */\n    tag_64:\n        /* \"#utility.yul\":8267:8273   */\n      0x00\n        /* \"#utility.yul\":8301:8306   */\n      dup2\n        /* \"#utility.yul\":8295:8307   */\n      mload\n        /* \"#utility.yul\":8285:8307   */\n      swap1\n      pop\n        /* \"#utility.yul\":8215:8314   */\n      swap2\n      swap1\n      pop\n      jump\t// out\n        /* \"#utility.yul\":8320:8489   */\n    tag_65:\n        /* \"#utility.yul\":8404:8415   */\n      0x00\n        /* \"#utility.yul\":8438:8444   */\n      dup3\n        /* \"#utility.yul\":8433:8436   */\n      dup3\n        /* \"#utility.yul\":8426:8445   */\n      mstore\n        /* \"#utility.yul\":8478:8482   */\n      0x20\n        /* \"#utility.yul\":8473:8476   */\n      dup3\n        /* \"#utility.yul\":8469:8483   */\n      add\n        /* \"#utility.yul\":8454:8483   */\n      swap1\n      pop\n        /* \"#utility.yul\":8320:8489   */\n      swap3\n      swap2\n      pop\n      pop\n      jump\t// out\n        /* \"#utility.yul\":8495:8802   */\n    tag_66:\n        /* \"#utility.yul\":8563:8564   */\n      0x00\n        /* \"#utility.yul\":8573:8686   */\n    tag_163:\n        /* \"#utility.yul\":8587:8593   */\n      dup4\n        /* \"#utility.yul\":8584:8585   */\n      dup2\n        /* \"#utility.yul\":8581:8594   */\n      lt\n        /* \"#utility.yul\":8573:8686   */\n      iszero\n      tag_165\n      jumpi\n        /* \"#utility.yul\":8672:8673   */\n      dup1\n        /* \"#utility.yul\":8667:8670   */\n      dup3\n        /* \"#utility.yul\":8663:8674   */\n      add\n        /* \"#utility.yul\":8657:8675   */\n      mload\n        /* \"#utility.yul\":8653:8654   */\n      dup2\n        /* \"#utility.yul\":8648:8651   */\n      dup5\n        /* \"#utility.yul\":8644:8655   */\n      add\n        /* \"#utility.yul\":8637:8676   */\n      mstore\n        /* \"#utility.yul\":8609:8611   */\n      0x20\n        /* \"#utility.yul\":8606:8607   */\n      dup2\n        /* \"#utility.yul\":8602:8612   */\n      add\n        /* \"#utility.yul\":8597:8612   */\n      swap1\n      pop\n        /* \"#utility.yul\":8573:8686   */\n      jump(tag_163)\n    tag_165:\n        /* \"#utility.yul\":8704:8710   */\n      dup4\n        /* \"#utility.yul\":8701:8702   */\n      dup2\n        /* \"#utility.yul\":8698:8711   */\n      gt\n        /* \"#utility.yul\":8695:8796   */\n      iszero\n      tag_166\n      jumpi\n        /* \"#utility.yul\":8784:8785   */\n      0x00\n        /* \"#utility.yul\":8775:8781   */\n      dup5\n        /* \"#utility.yul\":8770:8773   */\n      dup5\n        /* \"#utility.yul\":8766:8782   */\n      add\n        /* \"#utility.yul\":8759:8786   */\n      mstore\n        /* \"#utility.yul\":8695:8796   */\n    tag_166:\n        /* \"#utility.yul\":8544:8802   */\n      pop\n        /* \"#utility.yul\":8495:8802   */\n      pop\n      pop\n      pop\n      jump\t// out\n        /* \"#utility.yul\":8808:9172   */\n    tag_67:\n        /* \"#utility.yul\":8896:8899   */\n      0x00\n        /* \"#utility.yul\":8924:8963   */\n      tag_168\n        /* \"#utility.yul\":8957:8962   */\n      dup3\n        /* \"#utility.yul\":8924:8963   */\n      tag_64\n      jump\t// in\n    tag_168:\n        /* \"#utility.yul\":8979:9050   */\n      tag_169\n        /* \"#utility.yul\":9043:9049   */\n      dup2\n        /* \"#utility.yul\":9038:9041   */\n      dup6\n        /* \"#utility.yul\":8979:9050   */\n      tag_65\n      jump\t// in\n    tag_169:\n        /* \"#utility.yul\":8972:9050   */\n      swap4\n      pop\n        /* \"#utility.yul\":9059:9111   */\n      tag_170\n        /* \"#utility.yul\":9104:9110   */\n      dup2\n        /* \"#utility.yul\":9099:9102   */\n      dup6\n        /* \"#utility.yul\":9092:9096   */\n      0x20\n        /* \"#utility.yul\":9085:9090   */\n      dup7\n        /* \"#utility.yul\":9081:9097   */\n      add\n        /* \"#utility.yul\":9059:9111   */\n      tag_66\n      jump\t// in\n    tag_170:\n        /* \"#utility.yul\":9136:9165   */\n      tag_171\n        /* \"#utility.yul\":9158:9164   */\n      dup2\n        /* \"#utility.yul\":9136:9165   */\n      tag_53\n      jump\t// in\n    tag_171:\n        /* \"#utility.yul\":9131:9134   */\n      dup5\n        /* \"#utility.yul\":9127:9166   */\n      add\n        /* \"#utility.yul\":9120:9166   */\n      swap2\n      pop\n        /* \"#utility.yul\":8900:9172   */\n      pop\n        /* \"#utility.yul\":8808:9172   */\n      swap3\n      swap2\n      pop\n      pop\n      jump\t// out\n        /* \"#utility.yul\":9178:10115   */\n    tag_29:\n        /* \"#utility.yul\":9443:9447   */\n      0x00\n        /* \"#utility.yul\":9481:9484   */\n      0xa0\n        /* \"#utility.yul\":9470:9479   */\n      dup3\n        /* \"#utility.yul\":9466:9485   */\n      add\n        /* \"#utility.yul\":9458:9485   */\n      swap1\n      pop\n        /* \"#utility.yul\":9495:9566   */\n      tag_173\n        /* \"#utility.yul\":9563:9564   */\n      0x00\n        /* \"#utility.yul\":9552:9561   */\n      dup4\n        /* \"#utility.yul\":9548:9565   */\n      add\n        /* \"#utility.yul\":9539:9545   */\n      dup9\n        /* \"#utility.yul\":9495:9566   */\n      tag_61\n      jump\t// in\n    tag_173:\n        /* \"#utility.yul\":9576:9648   */\n      tag_174\n        /* \"#utility.yul\":9644:9646   */\n      0x20\n        /* \"#utility.yul\":9633:9642   */\n      dup4\n        /* \"#utility.yul\":9629:9647   */\n      add\n        /* \"#utility.yul\":9620:9626   */\n      dup8\n        /* \"#utility.yul\":9576:9648   */\n      tag_63\n      jump\t// in\n    tag_174:\n        /* \"#utility.yul\":9695:9704   */\n      dup2\n        /* \"#utility.yul\":9689:9693   */\n      dup2\n        /* \"#utility.yul\":9685:9705   */\n      sub\n        /* \"#utility.yul\":9680:9682   */\n      0x40\n        /* \"#utility.yul\":9669:9678   */\n      dup4\n        /* \"#utility.yul\":9665:9683   */\n      add\n        /* \"#utility.yul\":9658:9706   */\n      mstore\n        /* \"#utility.yul\":9723:9801   */\n      tag_175\n        /* \"#utility.yul\":9796:9800   */\n      dup2\n        /* \"#utility.yul\":9787:9793   */\n      dup7\n        /* \"#utility.yul\":9723:9801   */\n      tag_67\n      jump\t// in\n    tag_175:\n        /* \"#utility.yul\":9715:9801   */\n      swap1\n      pop\n        /* \"#utility.yul\":9848:9857   */\n      dup2\n        /* \"#utility.yul\":9842:9846   */\n      dup2\n        /* \"#utility.yul\":9838:9858   */\n      sub\n        /* \"#utility.yul\":9833:9835   */\n      0x60\n        /* \"#utility.yul\":9822:9831   */\n      dup4\n        /* \"#utility.yul\":9818:9836   */\n      add\n        /* \"#utility.yul\":9811:9859   */\n      mstore\n        /* \"#utility.yul\":9876:9954   */\n      tag_176\n        /* \"#utility.yul\":9949:9953   */\n      dup2\n        /* \"#utility.yul\":9940:9946   */\n      dup6\n        /* \"#utility.yul\":9876:9954   */\n      tag_67\n      jump\t// in\n    tag_176:\n        /* \"#utility.yul\":9868:9954   */\n      swap1\n      pop\n        /* \"#utility.yul\":10002:10011   */\n      dup2\n        /* \"#utility.yul\":9996:10000   */\n      dup2\n        /* \"#utility.yul\":9992:10012   */\n      sub\n        /* \"#utility.yul\":9986:9989   */\n      0x80\n        /* \"#utility.yul\":9975:9984   */\n      dup4\n        /* \"#utility.yul\":9971:9990   */\n      add\n        /* \"#utility.yul\":9964:10013   */\n      mstore\n        /* \"#utility.yul\":10030:10108   */\n      tag_177\n        /* \"#utility.yul\":10103:10107   */\n      dup2\n        /* \"#utility.yul\":10094:10100   */\n      dup5\n        /* \"#utility.yul\":10030:10108   */\n      tag_67\n      jump\t// in\n    tag_177:\n        /* \"#utility.yul\":10022:10108   */\n      swap1\n      pop\n        /* \"#utility.yul\":9178:10115   */\n      swap7\n      swap6\n      pop\n      pop\n      pop\n      pop\n      pop\n      pop\n      jump\t// out\n    stop\n\n    sub_0: assembly {\n            /* \"Campaign.sol\":504:4380  contract Campaign{... */\n          mstore(0x40, 0x80)\n            /* \"Campaign.sol\":1038:1273  constructor(uint minimum, address creator,string memory name, string memory desc, string memory url ) {... */\n          callvalue\n          dup1\n          iszero\n          tag_1\n          jumpi\n          0x00\n          dup1\n          revert\n        tag_1:\n          pop\n          mload(0x40)\n          sub(codesize, bytecodeSize)\n          dup1\n          bytecodeSize\n          dup4\n          codecopy\n          dup2\n          dup2\n          add\n          0x40\n          mstore\n          dup2\n          add\n          swap1\n          tag_2\n          swap2\n          swap1\n          tag_3\n          jump\t// in\n        tag_2:\n            /* \"Campaign.sol\":1159:1166  creator */\n          dup4\n            /* \"Campaign.sol\":1151:1158  manager */\n          0x02\n          0x00\n            /* \"Campaign.sol\":1151:1166  manager=creator */\n          0x0100\n          exp\n          dup2\n          sload\n          dup2\n          0xffffffffffffffffffffffffffffffffffffffff\n          mul\n          not\n          and\n          swap1\n          dup4\n          0xffffffffffffffffffffffffffffffffffffffff\n          and\n          mul\n          or\n          swap1\n          sstore\n          pop\n            /* \"Campaign.sol\":1197:1204  minimum */\n          dup5\n            /* \"Campaign.sol\":1177:1196  minimumContribution */\n          0x03\n            /* \"Campaign.sol\":1177:1204  minimumContribution=minimum */\n          dup2\n          swap1\n          sstore\n          pop\n            /* \"Campaign.sol\":1222:1226  name */\n          dup3\n            /* \"Campaign.sol\":1209:1221  campaignName */\n          0x04\n            /* \"Campaign.sol\":1209:1226  campaignName=name */\n          swap1\n          dup2\n          tag_6\n          swap2\n          swap1\n          tag_7\n          jump\t// in\n        tag_6:\n          pop\n            /* \"Campaign.sol\":1244:1248  desc */\n          dup2\n            /* \"Campaign.sol\":1231:1243  campaignDesc */\n          0x05\n            /* \"Campaign.sol\":1231:1248  campaignDesc=desc */\n          swap1\n          dup2\n          tag_8\n          swap2\n          swap1\n          tag_7\n          jump\t// in\n        tag_8:\n          pop\n            /* \"Campaign.sol\":1262:1265  url */\n          dup1\n            /* \"Campaign.sol\":1253:1261  imageUrl */\n          0x06\n            /* \"Campaign.sol\":1253:1265  imageUrl=url */\n          swap1\n          dup2\n          tag_9\n          swap2\n          swap1\n          tag_7\n          jump\t// in\n        tag_9:\n          pop\n            /* \"Campaign.sol\":1038:1273  constructor(uint minimum, address creator,string memory name, string memory desc, string memory url ) {... */\n          pop\n          pop\n          pop\n          pop\n          pop\n            /* \"Campaign.sol\":504:4380  contract Campaign{... */\n          jump(tag_10)\n            /* \"#utility.yul\":7:82   */\n        tag_11:\n            /* \"#utility.yul\":40:46   */\n          0x00\n            /* \"#utility.yul\":73:75   */\n          0x40\n            /* \"#utility.yul\":67:76   */\n          mload\n            /* \"#utility.yul\":57:76   */\n          swap1\n          pop\n            /* \"#utility.yul\":7:82   */\n          swap1\n          jump\t// out\n            /* \"#utility.yul\":88:205   */\n        tag_12:\n            /* \"#utility.yul\":197:198   */\n          0x00\n            /* \"#utility.yul\":194:195   */\n          dup1\n            /* \"#utility.yul\":187:199   */\n          revert\n            /* \"#utility.yul\":211:328   */\n        tag_13:\n            /* \"#utility.yul\":320:321   */\n          0x00\n            /* \"#utility.yul\":317:318   */\n          dup1\n            /* \"#utility.yul\":310:322   */\n          revert\n            /* \"#utility.yul\":334:411   */\n        tag_14:\n            /* \"#utility.yul\":371:378   */\n          0x00\n            /* \"#utility.yul\":400:405   */\n          dup2\n            /* \"#utility.yul\":389:405   */\n          swap1\n          pop\n            /* \"#utility.yul\":334:411   */\n          swap2\n          swap1\n          pop\n          jump\t// out\n            /* \"#utility.yul\":417:539   */\n        tag_15:\n            /* \"#utility.yul\":490:514   */\n          tag_55\n            /* \"#utility.yul\":508:513   */\n          dup2\n            /* \"#utility.yul\":490:514   */\n          tag_14\n          jump\t// in\n        tag_55:\n            /* \"#utility.yul\":483:488   */\n          dup2\n            /* \"#utility.yul\":480:515   */\n          eq\n            /* \"#utility.yul\":470:533   */\n          tag_56\n          jumpi\n            /* \"#utility.yul\":529:530   */\n          0x00\n            /* \"#utility.yul\":526:527   */\n          dup1\n            /* \"#utility.yul\":519:531   */\n          revert\n            /* \"#utility.yul\":470:533   */\n        tag_56:\n            /* \"#utility.yul\":417:539   */\n          pop\n          jump\t// out\n            /* \"#utility.yul\":545:688   */\n        tag_16:\n            /* \"#utility.yul\":602:607   */\n          0x00\n            /* \"#utility.yul\":633:639   */\n          dup2\n            /* \"#utility.yul\":627:640   */\n          mload\n            /* \"#utility.yul\":618:640   */\n          swap1\n          pop\n            /* \"#utility.yul\":649:682   */\n          tag_58\n            /* \"#utility.yul\":676:681   */\n          dup2\n            /* \"#utility.yul\":649:682   */\n          tag_15\n          jump\t// in\n        tag_58:\n            /* \"#utility.yul\":545:688   */\n          swap3\n          swap2\n          pop\n          pop\n          jump\t// out\n            /* \"#utility.yul\":694:820   */\n        tag_17:\n            /* \"#utility.yul\":731:738   */\n          0x00\n            /* \"#utility.yul\":771:813   */\n          0xffffffffffffffffffffffffffffffffffffffff\n            /* \"#utility.yul\":764:769   */\n          dup3\n            /* \"#utility.yul\":760:814   */\n          and\n            /* \"#utility.yul\":749:814   */\n          swap1\n          pop\n            /* \"#utility.yul\":694:820   */\n          swap2\n          swap1\n          pop\n          jump\t// out\n            /* \"#utility.yul\":826:922   */\n        tag_18:\n            /* \"#utility.yul\":863:870   */\n          0x00\n            /* \"#utility.yul\":892:916   */\n          tag_61\n            /* \"#utility.yul\":910:915   */\n          dup3\n            /* \"#utility.yul\":892:916   */\n          tag_17\n          jump\t// in\n        tag_61:\n            /* \"#utility.yul\":881:916   */\n          swap1\n          pop\n            /* \"#utility.yul\":826:922   */\n          swap2\n          swap1\n          pop\n          jump\t// out\n            /* \"#utility.yul\":928:1050   */\n        tag_19:\n            /* \"#utility.yul\":1001:1025   */\n          tag_63\n            /* \"#utility.yul\":1019:1024   */\n          dup2\n            /* \"#utility.yul\":1001:1025   */\n          tag_18\n          jump\t// in\n        tag_63:\n            /* \"#utility.yul\":994:999   */\n          dup2\n            /* \"#utility.yul\":991:1026   */\n          eq\n            /* \"#utility.yul\":981:1044   */\n          tag_64\n          jumpi\n            /* \"#utility.yul\":1040:1041   */\n          0x00\n            /* \"#utility.yul\":1037:1038   */\n          dup1\n            /* \"#utility.yul\":1030:1042   */\n          revert\n            /* \"#utility.yul\":981:1044   */\n        tag_64:\n            /* \"#utility.yul\":928:1050   */\n          pop\n          jump\t// out\n            /* \"#utility.yul\":1056:1199   */\n        tag_20:\n            /* \"#utility.yul\":1113:1118   */\n          0x00\n            /* \"#utility.yul\":1144:1150   */\n          dup2\n            /* \"#utility.yul\":1138:1151   */\n          mload\n            /* \"#utility.yul\":1129:1151   */\n          swap1\n          pop\n            /* \"#utility.yul\":1160:1193   */\n          tag_66\n            /* \"#utility.yul\":1187:1192   */\n          dup2\n            /* \"#utility.yul\":1160:1193   */\n          tag_19\n          jump\t// in\n        tag_66:\n            /* \"#utility.yul\":1056:1199   */\n          swap3\n          swap2\n          pop\n          pop\n          jump\t// out\n            /* \"#utility.yul\":1205:1322   */\n        tag_21:\n            /* \"#utility.yul\":1314:1315   */\n          0x00\n            /* \"#utility.yul\":1311:1312   */\n          dup1\n            /* \"#utility.yul\":1304:1316   */\n          revert\n            /* \"#utility.yul\":1328:1445   */\n        tag_22:\n            /* \"#utility.yul\":1437:1438   */\n          0x00\n            /* \"#utility.yul\":1434:1435   */\n          dup1\n            /* \"#utility.yul\":1427:1439   */\n          revert\n            /* \"#utility.yul\":1451:1553   */\n        tag_23:\n            /* \"#utility.yul\":1492:1498   */\n          0x00\n            /* \"#utility.yul\":1543:1545   */\n          0x1f\n            /* \"#utility.yul\":1539:1546   */\n          not\n            /* \"#utility.yul\":1534:1536   */\n          0x1f\n            /* \"#utility.yul\":1527:1532   */\n          dup4\n            /* \"#utility.yul\":1523:1537   */\n          add\n            /* \"#utility.yul\":1519:1547   */\n          and\n            /* \"#utility.yul\":1509:1547   */\n          swap1\n          pop\n            /* \"#utility.yul\":1451:1553   */\n          swap2\n          swap1\n          pop\n          jump\t// out\n            /* \"#utility.yul\":1559:1739   */\n        tag_24:\n            /* \"#utility.yul\":1607:1684   */\n          0x4e487b7100000000000000000000000000000000000000000000000000000000\n            /* \"#utility.yul\":1604:1605   */\n          0x00\n            /* \"#utility.yul\":1597:1685   */\n          mstore\n            /* \"#utility.yul\":1704:1708   */\n          0x41\n            /* \"#utility.yul\":1701:1702   */\n          0x04\n            /* \"#utility.yul\":1694:1709   */\n          mstore\n            /* \"#utility.yul\":1728:1732   */\n          0x24\n            /* \"#utility.yul\":1725:1726   */\n          0x00\n            /* \"#utility.yul\":1718:1733   */\n          revert\n            /* \"#utility.yul\":1745:2026   */\n        tag_25:\n            /* \"#utility.yul\":1828:1855   */\n          tag_72\n            /* \"#utility.yul\":1850:1854   */\n          dup3\n            /* \"#utility.yul\":1828:1855   */\n          tag_23\n          jump\t// in\n        tag_72:\n            /* \"#utility.yul\":1820:1826   */\n          dup2\n            /* \"#utility.yul\":1816:1856   */\n          add\n            /* \"#utility.yul\":1958:1964   */\n          dup2\n            /* \"#utility.yul\":1946:1956   */\n          dup2\n            /* \"#utility.yul\":1943:1965   */\n          lt\n            /* \"#utility.yul\":1922:1940   */\n          0xffffffffffffffff\n            /* \"#utility.yul\":1910:1920   */\n          dup3\n            /* \"#utility.yul\":1907:1941   */\n          gt\n            /* \"#utility.yul\":1904:1966   */\n          or\n            /* \"#utility.yul\":1901:1989   */\n          iszero\n          tag_73\n          jumpi\n            /* \"#utility.yul\":1969:1987   */\n          tag_74\n          tag_24\n          jump\t// in\n        tag_74:\n            /* \"#utility.yul\":1901:1989   */\n        tag_73:\n            /* \"#utility.yul\":2009:2019   */\n          dup1\n            /* \"#utility.yul\":2005:2007   */\n          0x40\n            /* \"#utility.yul\":1998:2020   */\n          mstore\n            /* \"#utility.yul\":1788:2026   */\n          pop\n            /* \"#utility.yul\":1745:2026   */\n          pop\n          pop\n          jump\t// out\n            /* \"#utility.yul\":2032:2161   */\n        tag_26:\n            /* \"#utility.yul\":2066:2072   */\n          0x00\n            /* \"#utility.yul\":2093:2113   */\n          tag_76\n          tag_11\n          jump\t// in\n        tag_76:\n            /* \"#utility.yul\":2083:2113   */\n          swap1\n          pop\n            /* \"#utility.yul\":2122:2155   */\n          tag_77\n            /* \"#utility.yul\":2150:2154   */\n          dup3\n            /* \"#utility.yul\":2142:2148   */\n          dup3\n            /* \"#utility.yul\":2122:2155   */\n          tag_25\n          jump\t// in\n        tag_77:\n            /* \"#utility.yul\":2032:2161   */\n          swap2\n          swap1\n          pop\n          jump\t// out\n            /* \"#utility.yul\":2167:2475   */\n        tag_27:\n            /* \"#utility.yul\":2229:2233   */\n          0x00\n            /* \"#utility.yul\":2319:2337   */\n          0xffffffffffffffff\n            /* \"#utility.yul\":2311:2317   */\n          dup3\n            /* \"#utility.yul\":2308:2338   */\n          gt\n            /* \"#utility.yul\":2305:2361   */\n          iszero\n          tag_79\n          jumpi\n            /* \"#utility.yul\":2341:2359   */\n          tag_80\n          tag_24\n          jump\t// in\n        tag_80:\n            /* \"#utility.yul\":2305:2361   */\n        tag_79:\n            /* \"#utility.yul\":2379:2408   */\n          tag_81\n            /* \"#utility.yul\":2401:2407   */\n          dup3\n            /* \"#utility.yul\":2379:2408   */\n          tag_23\n          jump\t// in\n        tag_81:\n            /* \"#utility.yul\":2371:2408   */\n          swap1\n          pop\n            /* \"#utility.yul\":2463:2467   */\n          0x20\n            /* \"#utility.yul\":2457:2461   */\n          dup2\n            /* \"#utility.yul\":2453:2468   */\n          add\n            /* \"#utility.yul\":2445:2468   */\n          swap1\n          pop\n            /* \"#utility.yul\":2167:2475   */\n          swap2\n          swap1\n          pop\n          jump\t// out\n            /* \"#utility.yul\":2481:2788   */\n        tag_28:\n            /* \"#utility.yul\":2549:2550   */\n          0x00\n            /* \"#utility.yul\":2559:2672   */\n        tag_83:\n            /* \"#utility.yul\":2573:2579   */\n          dup4\n            /* \"#utility.yul\":2570:2571   */\n          dup2\n            /* \"#utility.yul\":2567:2580   */\n          lt\n            /* \"#utility.yul\":2559:2672   */\n          iszero\n          tag_85\n          jumpi\n            /* \"#utility.yul\":2658:2659   */\n          dup1\n            /* \"#utility.yul\":2653:2656   */\n          dup3\n            /* \"#utility.yul\":2649:2660   */\n          add\n            /* \"#utility.yul\":2643:2661   */\n          mload\n            /* \"#utility.yul\":2639:2640   */\n          dup2\n            /* \"#utility.yul\":2634:2637   */\n          dup5\n            /* \"#utility.yul\":2630:2641   */\n          add\n            /* \"#utility.yul\":2623:2662   */\n          mstore\n            /* \"#utility.yul\":2595:2597   */\n          0x20\n            /* \"#utility.yul\":2592:2593   */\n          dup2\n            /* \"#utility.yul\":2588:2598   */\n          add\n            /* \"#utility.yul\":2583:2598   */\n          swap1\n          pop\n            /* \"#utility.yul\":2559:2672   */\n          jump(tag_83)\n        tag_85:\n            /* \"#utility.yul\":2690:2696   */\n          dup4\n            /* \"#utility.yul\":2687:2688   */\n          dup2\n            /* \"#utility.yul\":2684:2697   */\n          gt\n            /* \"#utility.yul\":2681:2782   */\n          iszero\n          tag_86\n          jumpi\n            /* \"#utility.yul\":2770:2771   */\n          0x00\n            /* \"#utility.yul\":2761:2767   */\n          dup5\n            /* \"#utility.yul\":2756:2759   */\n          dup5\n            /* \"#utility.yul\":2752:2768   */\n          add\n            /* \"#utility.yul\":2745:2772   */\n          mstore\n            /* \"#utility.yul\":2681:2782   */\n        tag_86:\n            /* \"#utility.yul\":2530:2788   */\n          pop\n            /* \"#utility.yul\":2481:2788   */\n          pop\n          pop\n          pop\n          jump\t// out\n            /* \"#utility.yul\":2794:3215   */\n        tag_29:\n            /* \"#utility.yul\":2883:2888   */\n          0x00\n            /* \"#utility.yul\":2908:2974   */\n          tag_88\n            /* \"#utility.yul\":2924:2973   */\n          tag_89\n            /* \"#utility.yul\":2966:2972   */\n          dup5\n            /* \"#utility.yul\":2924:2973   */\n          tag_27\n          jump\t// in\n        tag_89:\n            /* \"#utility.yul\":2908:2974   */\n          tag_26\n          jump\t// in\n        tag_88:\n            /* \"#utility.yul\":2899:2974   */\n          swap1\n          pop\n            /* \"#utility.yul\":2997:3003   */\n          dup3\n            /* \"#utility.yul\":2990:2995   */\n          dup2\n            /* \"#utility.yul\":2983:3004   */\n          mstore\n            /* \"#utility.yul\":3035:3039   */\n          0x20\n            /* \"#utility.yul\":3028:3033   */\n          dup2\n            /* \"#utility.yul\":3024:3040   */\n          add\n            /* \"#utility.yul\":3073:3076   */\n          dup5\n            /* \"#utility.yul\":3064:3070   */\n          dup5\n            /* \"#utility.yul\":3059:3062   */\n          dup5\n            /* \"#utility.yul\":3055:3071   */\n          add\n            /* \"#utility.yul\":3052:3077   */\n          gt\n            /* \"#utility.yul\":3049:3161   */\n          iszero\n          tag_90\n          jumpi\n            /* \"#utility.yul\":3080:3159   */\n          tag_91\n          tag_22\n          jump\t// in\n        tag_91:\n            /* \"#utility.yul\":3049:3161   */\n        tag_90:\n            /* \"#utility.yul\":3170:3209   */\n          tag_92\n            /* \"#utility.yul\":3202:3208   */\n          dup5\n            /* \"#utility.yul\":3197:3200   */\n          dup3\n            /* \"#utility.yul\":3192:3195   */\n          dup6\n            /* \"#utility.yul\":3170:3209   */\n          tag_28\n          jump\t// in\n        tag_92:\n            /* \"#utility.yul\":2889:3215   */\n          pop\n            /* \"#utility.yul\":2794:3215   */\n          swap4\n          swap3\n          pop\n          pop\n          pop\n          jump\t// out\n            /* \"#utility.yul\":3235:3590   */\n        tag_30:\n            /* \"#utility.yul\":3302:3307   */\n          0x00\n            /* \"#utility.yul\":3351:3354   */\n          dup3\n            /* \"#utility.yul\":3344:3348   */\n          0x1f\n            /* \"#utility.yul\":3336:3342   */\n          dup4\n            /* \"#utility.yul\":3332:3349   */\n          add\n            /* \"#utility.yul\":3328:3355   */\n          slt\n            /* \"#utility.yul\":3318:3440   */\n          tag_94\n          jumpi\n            /* \"#utility.yul\":3359:3438   */\n          tag_95\n          tag_21\n          jump\t// in\n        tag_95:\n            /* \"#utility.yul\":3318:3440   */\n        tag_94:\n            /* \"#utility.yul\":3469:3475   */\n          dup2\n            /* \"#utility.yul\":3463:3476   */\n          mload\n            /* \"#utility.yul\":3494:3584   */\n          tag_96\n            /* \"#utility.yul\":3580:3583   */\n          dup5\n            /* \"#utility.yul\":3572:3578   */\n          dup3\n            /* \"#utility.yul\":3565:3569   */\n          0x20\n            /* \"#utility.yul\":3557:3563   */\n          dup7\n            /* \"#utility.yul\":3553:3570   */\n          add\n            /* \"#utility.yul\":3494:3584   */\n          tag_29\n          jump\t// in\n        tag_96:\n            /* \"#utility.yul\":3485:3584   */\n          swap2\n          pop\n            /* \"#utility.yul\":3308:3590   */\n          pop\n            /* \"#utility.yul\":3235:3590   */\n          swap3\n          swap2\n          pop\n          pop\n          jump\t// out\n            /* \"#utility.yul\":3596:5092   */\n        tag_3:\n            /* \"#utility.yul\":3732:3738   */\n          0x00\n            /* \"#utility.yul\":3740:3746   */\n          dup1\n            /* \"#utility.yul\":3748:3754   */\n          0x00\n            /* \"#utility.yul\":3756:3762   */\n          dup1\n            /* \"#utility.yul\":3764:3770   */\n          0x00\n            /* \"#utility.yul\":3813:3816   */\n          0xa0\n            /* \"#utility.yul\":3801:3810   */\n          dup7\n            /* \"#utility.yul\":3792:3799   */\n          dup9\n            /* \"#utility.yul\":3788:3811   */\n          sub\n            /* \"#utility.yul\":3784:3817   */\n          slt\n            /* \"#utility.yul\":3781:3901   */\n          iszero\n          tag_98\n          jumpi\n            /* \"#utility.yul\":3820:3899   */\n          tag_99\n          tag_12\n          jump\t// in\n        tag_99:\n            /* \"#utility.yul\":3781:3901   */\n        tag_98:\n            /* \"#utility.yul\":3940:3941   */\n          0x00\n            /* \"#utility.yul\":3965:4029   */\n          tag_100\n            /* \"#utility.yul\":4021:4028   */\n          dup9\n            /* \"#utility.yul\":4012:4018   */\n          dup3\n            /* \"#utility.yul\":4001:4010   */\n          dup10\n            /* \"#utility.yul\":3997:4019   */\n          add\n            /* \"#utility.yul\":3965:4029   */\n          tag_16\n          jump\t// in\n        tag_100:\n            /* \"#utility.yul\":3955:4029   */\n          swap6\n          pop\n            /* \"#utility.yul\":3911:4039   */\n          pop\n            /* \"#utility.yul\":4078:4080   */\n          0x20\n            /* \"#utility.yul\":4104:4168   */\n          tag_101\n            /* \"#utility.yul\":4160:4167   */\n          dup9\n            /* \"#utility.yul\":4151:4157   */\n          dup3\n            /* \"#utility.yul\":4140:4149   */\n          dup10\n            /* \"#utility.yul\":4136:4158   */\n          add\n            /* \"#utility.yul\":4104:4168   */\n          tag_20\n          jump\t// in\n        tag_101:\n            /* \"#utility.yul\":4094:4168   */\n          swap5\n          pop\n            /* \"#utility.yul\":4049:4178   */\n          pop\n            /* \"#utility.yul\":4238:4240   */\n          0x40\n            /* \"#utility.yul\":4227:4236   */\n          dup7\n            /* \"#utility.yul\":4223:4241   */\n          add\n            /* \"#utility.yul\":4217:4242   */\n          mload\n            /* \"#utility.yul\":4269:4287   */\n          0xffffffffffffffff\n            /* \"#utility.yul\":4261:4267   */\n          dup2\n            /* \"#utility.yul\":4258:4288   */\n          gt\n            /* \"#utility.yul\":4255:4372   */\n          iszero\n          tag_102\n          jumpi\n            /* \"#utility.yul\":4291:4370   */\n          tag_103\n          tag_13\n          jump\t// in\n        tag_103:\n            /* \"#utility.yul\":4255:4372   */\n        tag_102:\n            /* \"#utility.yul\":4396:4470   */\n          tag_104\n            /* \"#utility.yul\":4462:4469   */\n          dup9\n            /* \"#utility.yul\":4453:4459   */\n          dup3\n            /* \"#utility.yul\":4442:4451   */\n          dup10\n            /* \"#utility.yul\":4438:4460   */\n          add\n            /* \"#utility.yul\":4396:4470   */\n          tag_30\n          jump\t// in\n        tag_104:\n            /* \"#utility.yul\":4386:4470   */\n          swap4\n          pop\n            /* \"#utility.yul\":4188:4480   */\n          pop\n            /* \"#utility.yul\":4540:4542   */\n          0x60\n            /* \"#utility.yul\":4529:4538   */\n          dup7\n            /* \"#utility.yul\":4525:4543   */\n          add\n            /* \"#utility.yul\":4519:4544   */\n          mload\n            /* \"#utility.yul\":4571:4589   */\n          0xffffffffffffffff\n            /* \"#utility.yul\":4563:4569   */\n          dup2\n            /* \"#utility.yul\":4560:4590   */\n          gt\n            /* \"#utility.yul\":4557:4674   */\n          iszero\n          tag_105\n          jumpi\n            /* \"#utility.yul\":4593:4672   */\n          tag_106\n          tag_13\n          jump\t// in\n        tag_106:\n            /* \"#utility.yul\":4557:4674   */\n        tag_105:\n            /* \"#utility.yul\":4698:4772   */\n          tag_107\n            /* \"#utility.yul\":4764:4771   */\n          dup9\n            /* \"#utility.yul\":4755:4761   */\n          dup3\n            /* \"#utility.yul\":4744:4753   */\n          dup10\n            /* \"#utility.yul\":4740:4762   */\n          add\n            /* \"#utility.yul\":4698:4772   */\n          tag_30\n          jump\t// in\n        tag_107:\n            /* \"#utility.yul\":4688:4772   */\n          swap3\n          pop\n            /* \"#utility.yul\":4490:4782   */\n          pop\n            /* \"#utility.yul\":4842:4845   */\n          0x80\n            /* \"#utility.yul\":4831:4840   */\n          dup7\n            /* \"#utility.yul\":4827:4846   */\n          add\n            /* \"#utility.yul\":4821:4847   */\n          mload\n            /* \"#utility.yul\":4874:4892   */\n          0xffffffffffffffff\n            /* \"#utility.yul\":4866:4872   */\n          dup2\n            /* \"#utility.yul\":4863:4893   */\n          gt\n            /* \"#utility.yul\":4860:4977   */\n          iszero\n          tag_108\n          jumpi\n            /* \"#utility.yul\":4896:4975   */\n          tag_109\n          tag_13\n          jump\t// in\n        tag_109:\n            /* \"#utility.yul\":4860:4977   */\n        tag_108:\n            /* \"#utility.yul\":5001:5075   */\n          tag_110\n            /* \"#utility.yul\":5067:5074   */\n          dup9\n            /* \"#utility.yul\":5058:5064   */\n          dup3\n            /* \"#utility.yul\":5047:5056   */\n          dup10\n            /* \"#utility.yul\":5043:5065   */\n          add\n            /* \"#utility.yul\":5001:5075   */\n          tag_30\n          jump\t// in\n        tag_110:\n            /* \"#utility.yul\":4991:5075   */\n          swap2\n          pop\n            /* \"#utility.yul\":4792:5085   */\n          pop\n            /* \"#utility.yul\":3596:5092   */\n          swap3\n          swap6\n          pop\n          swap3\n          swap6\n          swap1\n          swap4\n          pop\n          jump\t// out\n            /* \"#utility.yul\":5098:5197   */\n        tag_31:\n            /* \"#utility.yul\":5150:5156   */\n          0x00\n            /* \"#utility.yul\":5184:5189   */\n          dup2\n            /* \"#utility.yul\":5178:5190   */\n          mload\n            /* \"#utility.yul\":5168:5190   */\n          swap1\n          pop\n            /* \"#utility.yul\":5098:5197   */\n          swap2\n          swap1\n          pop\n          jump\t// out\n            /* \"#utility.yul\":5203:5383   */\n        tag_32:\n            /* \"#utility.yul\":5251:5328   */\n          0x4e487b7100000000000000000000000000000000000000000000000000000000\n            /* \"#utility.yul\":5248:5249   */\n          0x00\n            /* \"#utility.yul\":5241:5329   */\n          mstore\n            /* \"#utility.yul\":5348:5352   */\n          0x22\n            /* \"#utility.yul\":5345:5346   */\n          0x04\n            /* \"#utility.yul\":5338:5353   */\n          mstore\n            /* \"#utility.yul\":5372:5376   */\n          0x24\n            /* \"#utility.yul\":5369:5370   */\n          0x00\n            /* \"#utility.yul\":5362:5377   */\n          revert\n            /* \"#utility.yul\":5389:5709   */\n        tag_33:\n            /* \"#utility.yul\":5433:5439   */\n          0x00\n            /* \"#utility.yul\":5470:5471   */\n          0x02\n            /* \"#utility.yul\":5464:5468   */\n          dup3\n            /* \"#utility.yul\":5460:5472   */\n          div\n            /* \"#utility.yul\":5450:5472   */\n          swap1\n          pop\n            /* \"#utility.yul\":5517:5518   */\n          0x01\n            /* \"#utility.yul\":5511:5515   */\n          dup3\n            /* \"#utility.yul\":5507:5519   */\n          and\n            /* \"#utility.yul\":5538:5556   */\n          dup1\n            /* \"#utility.yul\":5528:5609   */\n          tag_114\n          jumpi\n            /* \"#utility.yul\":5594:5598   */\n          0x7f\n            /* \"#utility.yul\":5586:5592   */\n          dup3\n            /* \"#utility.yul\":5582:5599   */\n          and\n            /* \"#utility.yul\":5572:5599   */\n          swap2\n          pop\n            /* \"#utility.yul\":5528:5609   */\n        tag_114:\n            /* \"#utility.yul\":5656:5658   */\n          0x20\n            /* \"#utility.yul\":5648:5654   */\n          dup3\n            /* \"#utility.yul\":5645:5659   */\n          lt\n            /* \"#utility.yul\":5625:5643   */\n          dup2\n            /* \"#utility.yul\":5622:5660   */\n          sub\n            /* \"#utility.yul\":5619:5703   */\n          tag_115\n          jumpi\n            /* \"#utility.yul\":5675:5693   */\n          tag_116\n          tag_32\n          jump\t// in\n        tag_116:\n            /* \"#utility.yul\":5619:5703   */\n        tag_115:\n            /* \"#utility.yul\":5440:5709   */\n          pop\n            /* \"#utility.yul\":5389:5709   */\n          swap2\n          swap1\n          pop\n          jump\t// out\n            /* \"#utility.yul\":5715:5856   */\n        tag_34:\n            /* \"#utility.yul\":5764:5768   */\n          0x00\n            /* \"#utility.yul\":5787:5790   */\n          dup2\n            /* \"#utility.yul\":5779:5790   */\n          swap1\n          pop\n            /* \"#utility.yul\":5810:5813   */\n          dup2\n            /* \"#utility.yul\":5807:5808   */\n          0x00\n            /* \"#utility.yul\":5800:5814   */\n          mstore\n            /* \"#utility.yul\":5844:5848   */\n          0x20\n            /* \"#utility.yul\":5841:5842   */\n          0x00\n            /* \"#utility.yul\":5831:5849   */\n          keccak256\n            /* \"#utility.yul\":5823:5849   */\n          swap1\n          pop\n            /* \"#utility.yul\":5715:5856   */\n          swap2\n          swap1\n          pop\n          jump\t// out\n            /* \"#utility.yul\":5862:5955   */\n        tag_35:\n            /* \"#utility.yul\":5899:5905   */\n          0x00\n            /* \"#utility.yul\":5946:5948   */\n          0x20\n            /* \"#utility.yul\":5941:5943   */\n          0x1f\n            /* \"#utility.yul\":5934:5939   */\n          dup4\n            /* \"#utility.yul\":5930:5944   */\n          add\n            /* \"#utility.yul\":5926:5949   */\n          div\n            /* \"#utility.yul\":5916:5949   */\n          swap1\n          pop\n            /* \"#utility.yul\":5862:5955   */\n          swap2\n          swap1\n          pop\n          jump\t// out\n            /* \"#utility.yul\":5961:6068   */\n        tag_36:\n            /* \"#utility.yul\":6005:6013   */\n          0x00\n            /* \"#utility.yul\":6055:6060   */\n          dup3\n            /* \"#utility.yul\":6049:6053   */\n          dup3\n            /* \"#utility.yul\":6045:6061   */\n          shl\n            /* \"#utility.yul\":6024:6061   */\n          swap1\n          pop\n            /* \"#utility.yul\":5961:6068   */\n          swap3\n          swap2\n          pop\n          pop\n          jump\t// out\n            /* \"#utility.yul\":6074:6467   */\n        tag_37:\n            /* \"#utility.yul\":6143:6149   */\n          0x00\n            /* \"#utility.yul\":6193:6194   */\n          0x08\n            /* \"#utility.yul\":6181:6191   */\n          dup4\n            /* \"#utility.yul\":6177:6195   */\n          mul\n            /* \"#utility.yul\":6216:6313   */\n          tag_121\n            /* \"#utility.yul\":6246:6312   */\n          0xffffffffffffffffffffffffffffffffffffffffffffffffffffffffffffffff\n            /* \"#utility.yul\":6235:6244   */\n          dup3\n            /* \"#utility.yul\":6216:6313   */\n          tag_36\n          jump\t// in\n        tag_121:\n            /* \"#utility.yul\":6334:6373   */\n          tag_122\n            /* \"#utility.yul\":6364:6372   */\n          dup7\n            /* \"#utility.yul\":6353:6362   */\n          dup4\n            /* \"#utility.yul\":6334:6373   */\n          tag_36\n          jump\t// in\n        tag_122:\n            /* \"#utility.yul\":6322:6373   */\n          swap6\n          pop\n            /* \"#utility.yul\":6406:6410   */\n          dup1\n            /* \"#utility.yul\":6402:6411   */\n          not\n            /* \"#utility.yul\":6395:6400   */\n          dup5\n            /* \"#utility.yul\":6391:6412   */\n          and\n            /* \"#utility.yul\":6382:6412   */\n          swap4\n          pop\n            /* \"#utility.yul\":6455:6459   */\n          dup1\n            /* \"#utility.yul\":6445:6453   */\n          dup7\n            /* \"#utility.yul\":6441:6460   */\n          and\n            /* \"#utility.yul\":6434:6439   */\n          dup5\n            /* \"#utility.yul\":6431:6461   */\n          or\n            /* \"#utility.yul\":6421:6461   */\n          swap3\n          pop\n            /* \"#utility.yul\":6150:6467   */\n          pop\n          pop\n            /* \"#utility.yul\":6074:6467   */\n          swap4\n          swap3\n          pop\n          pop\n          pop\n          jump\t// out\n            /* \"#utility.yul\":6473:6533   */\n        tag_38:\n            /* \"#utility.yul\":6501:6504   */\n          0x00\n            /* \"#utility.yul\":6522:6527   */\n          dup2\n            /* \"#utility.yul\":6515:6527   */\n          swap1\n          pop\n            /* \"#utility.yul\":6473:6533   */\n          swap2\n          swap1\n          pop\n          jump\t// out\n            /* \"#utility.yul\":6539:6681   */\n        tag_39:\n            /* \"#utility.yul\":6589:6598   */\n          0x00\n            /* \"#utility.yul\":6622:6675   */\n          tag_125\n            /* \"#utility.yul\":6640:6674   */\n          tag_126\n            /* \"#utility.yul\":6649:6673   */\n          tag_127\n            /* \"#utility.yul\":6667:6672   */\n          dup5\n            /* \"#utility.yul\":6649:6673   */\n          tag_14\n          jump\t// in\n        tag_127:\n            /* \"#utility.yul\":6640:6674   */\n          tag_38\n          jump\t// in\n        tag_126:\n            /* \"#utility.yul\":6622:6675   */\n          tag_14\n          jump\t// in\n        tag_125:\n            /* \"#utility.yul\":6609:6675   */\n          swap1\n          pop\n            /* \"#utility.yul\":6539:6681   */\n          swap2\n          swap1\n          pop\n          jump\t// out\n            /* \"#utility.yul\":6687:6762   */\n        tag_40:\n            /* \"#utility.yul\":6730:6733   */\n          0x00\n            /* \"#utility.yul\":6751:6756   */\n          dup2\n            /* \"#utility.yul\":6744:6756   */\n          swap1\n          pop\n            /* \"#utility.yul\":6687:6762   */\n          swap2\n          swap1\n          pop\n          jump\t// out\n            /* \"#utility.yul\":6768:7037   */\n        tag_41:\n            /* \"#utility.yul\":6878:6917   */\n          tag_130\n            /* \"#utility.yul\":6909:6916   */\n          dup4\n            /* \"#utility.yul\":6878:6917   */\n          tag_39\n          jump\t// in\n        tag_130:\n            /* \"#utility.yul\":6939:7030   */\n          tag_131\n            /* \"#utility.yul\":6988:7029   */\n          tag_132\n            /* \"#utility.yul\":7012:7028   */\n          dup3\n            /* \"#utility.yul\":6988:7029   */\n          tag_40\n          jump\t// in\n        tag_132:\n            /* \"#utility.yul\":6980:6986   */\n          dup5\n            /* \"#utility.yul\":6973:6977   */\n          dup5\n            /* \"#utility.yul\":6967:6978   */\n          sload\n            /* \"#utility.yul\":6939:7030   */\n          tag_37\n          jump\t// in\n        tag_131:\n            /* \"#utility.yul\":6933:6937   */\n          dup3\n            /* \"#utility.yul\":6926:7031   */\n          sstore\n            /* \"#utility.yul\":6844:7037   */\n          pop\n            /* \"#utility.yul\":6768:7037   */\n          pop\n          pop\n          pop\n          jump\t// out\n            /* \"#utility.yul\":7043:7116   */\n        tag_42:\n            /* \"#utility.yul\":7088:7091   */\n          0x00\n            /* \"#utility.yul\":7043:7116   */\n          swap1\n          jump\t// out\n            /* \"#utility.yul\":7122:7311   */\n        tag_43:\n            /* \"#utility.yul\":7199:7231   */\n          tag_135\n          tag_42\n          jump\t// in\n        tag_135:\n            /* \"#utility.yul\":7240:7305   */\n          tag_136\n            /* \"#utility.yul\":7298:7304   */\n          dup2\n            /* \"#utility.yul\":7290:7296   */\n          dup5\n            /* \"#utility.yul\":7284:7288   */\n          dup5\n            /* \"#utility.yul\":7240:7305   */\n          tag_41\n          jump\t// in\n        tag_136:\n            /* \"#utility.yul\":7175:7311   */\n          pop\n            /* \"#utility.yul\":7122:7311   */\n          pop\n          pop\n          jump\t// out\n            /* \"#utility.yul\":7317:7503   */\n        tag_44:\n            /* \"#utility.yul\":7377:7497   */\n        tag_138:\n            /* \"#utility.yul\":7394:7397   */\n          dup2\n            /* \"#utility.yul\":7387:7392   */\n          dup2\n            /* \"#utility.yul\":7384:7398   */\n          lt\n            /* \"#utility.yul\":7377:7497   */\n          iszero\n          tag_140\n          jumpi\n            /* \"#utility.yul\":7448:7487   */\n          tag_141\n            /* \"#utility.yul\":7485:7486   */\n          0x00\n            /* \"#utility.yul\":7478:7483   */\n          dup3\n            /* \"#utility.yul\":7448:7487   */\n          tag_43\n          jump\t// in\n        tag_141:\n            /* \"#utility.yul\":7421:7422   */\n          0x01\n            /* \"#utility.yul\":7414:7419   */\n          dup2\n            /* \"#utility.yul\":7410:7423   */\n          add\n            /* \"#utility.yul\":7401:7423   */\n          swap1\n          pop\n            /* \"#utility.yul\":7377:7497   */\n          jump(tag_138)\n        tag_140:\n            /* \"#utility.yul\":7317:7503   */\n          pop\n          pop\n          jump\t// out\n            /* \"#utility.yul\":7509:8052   */\n        tag_45:\n            /* \"#utility.yul\":7610:7612   */\n          0x1f\n            /* \"#utility.yul\":7605:7608   */\n          dup3\n            /* \"#utility.yul\":7602:7613   */\n          gt\n            /* \"#utility.yul\":7599:8045   */\n          iszero\n          tag_143\n          jumpi\n            /* \"#utility.yul\":7644:7682   */\n          tag_144\n            /* \"#utility.yul\":7676:7681   */\n          dup2\n            /* \"#utility.yul\":7644:7682   */\n          tag_34\n          jump\t// in\n        tag_144:\n            /* \"#utility.yul\":7728:7757   */\n          tag_145\n            /* \"#utility.yul\":7746:7756   */\n          dup5\n            /* \"#utility.yul\":7728:7757   */\n          tag_35\n          jump\t// in\n        tag_145:\n            /* \"#utility.yul\":7718:7726   */\n          dup2\n            /* \"#utility.yul\":7714:7758   */\n          add\n            /* \"#utility.yul\":7911:7913   */\n          0x20\n            /* \"#utility.yul\":7899:7909   */\n          dup6\n            /* \"#utility.yul\":7896:7914   */\n          lt\n            /* \"#utility.yul\":7893:7942   */\n          iszero\n          tag_146\n          jumpi\n            /* \"#utility.yul\":7932:7940   */\n          dup2\n            /* \"#utility.yul\":7917:7940   */\n          swap1\n          pop\n            /* \"#utility.yul\":7893:7942   */\n        tag_146:\n            /* \"#utility.yul\":7955:8035   */\n          tag_147\n            /* \"#utility.yul\":8011:8033   */\n          tag_148\n            /* \"#utility.yul\":8029:8032   */\n          dup6\n            /* \"#utility.yul\":8011:8033   */\n          tag_35\n          jump\t// in\n        tag_148:\n            /* \"#utility.yul\":8001:8009   */\n          dup4\n            /* \"#utility.yul\":7997:8034   */\n          add\n            /* \"#utility.yul\":7984:7995   */\n          dup3\n            /* \"#utility.yul\":7955:8035   */\n          tag_44\n          jump\t// in\n        tag_147:\n            /* \"#utility.yul\":7614:8045   */\n          pop\n          pop\n            /* \"#utility.yul\":7599:8045   */\n        tag_143:\n            /* \"#utility.yul\":7509:8052   */\n          pop\n          pop\n          pop\n          jump\t// out\n            /* \"#utility.yul\":8058:8175   */\n        tag_46:\n            /* \"#utility.yul\":8112:8120   */\n          0x00\n            /* \"#utility.yul\":8162:8167   */\n          dup3\n            /* \"#utility.yul\":8156:8160   */\n          dup3\n            /* \"#utility.yul\":8152:8168   */\n          shr\n            /* \"#utility.yul\":8131:8168   */\n          swap1\n          pop\n            /* \"#utility.yul\":8058:8175   */\n          swap3\n          swap2\n          pop\n          pop\n          jump\t// out\n            /* \"#utility.yul\":8181:8350   */\n        tag_47:\n            /* \"#utility.yul\":8225:8231   */\n          0x00\n            /* \"#utility.yul\":8258:8309   */\n          tag_151\n            /* \"#utility.yul\":8306:8307   */\n          0x00\n            /* \"#utility.yul\":8302:8308   */\n          not\n            /* \"#utility.yul\":8294:8299   */\n          dup5\n            /* \"#utility.yul\":8291:8292   */\n          0x08\n            /* \"#utility.yul\":8287:8300   */\n          mul\n            /* \"#utility.yul\":8258:8309   */\n          tag_46\n          jump\t// in\n        tag_151:\n            /* \"#utility.yul\":8254:8310   */\n          not\n            /* \"#utility.yul\":8339:8343   */\n          dup1\n            /* \"#utility.yul\":8333:8337   */\n          dup4\n            /* \"#utility.yul\":8329:8344   */\n          and\n            /* \"#utility.yul\":8319:8344   */\n          swap2\n          pop\n            /* \"#utility.yul\":8232:8350   */\n          pop\n            /* \"#utility.yul\":8181:8350   */\n          swap3\n          swap2\n          pop\n          pop\n          jump\t// out\n            /* \"#utility.yul\":8355:8650   */\n        tag_48:\n            /* \"#utility.yul\":8431:8435   */\n          0x00\n            /* \"#utility.yul\":8577:8606   */\n          tag_153\n            /* \"#utility.yul\":8602:8605   */\n          dup4\n            /* \"#utility.yul\":8596:8600   */\n          dup4\n            /* \"#utility.yul\":8577:8606   */\n          tag_47\n          jump\t// in\n        tag_153:\n            /* \"#utility.yul\":8569:8606   */\n          swap2\n          pop\n            /* \"#utility.yul\":8639:8642   */\n          dup3\n            /* \"#utility.yul\":8636:8637   */\n          0x02\n            /* \"#utility.yul\":8632:8643   */\n          mul\n            /* \"#utility.yul\":8626:8630   */\n          dup3\n            /* \"#utility.yul\":8623:8644   */\n          or\n            /* \"#utility.yul\":8615:8644   */\n          swap1\n          pop\n            /* \"#utility.yul\":8355:8650   */\n          swap3\n          swap2\n          pop\n          pop\n          jump\t// out\n            /* \"#utility.yul\":8655:10050   */\n        tag_7:\n            /* \"#utility.yul\":8772:8809   */\n          tag_155\n            /* \"#utility.yul\":8805:8808   */\n          dup3\n            /* \"#utility.yul\":8772:8809   */\n          tag_31\n          jump\t// in\n        tag_155:\n            /* \"#utility.yul\":8874:8892   */\n          0xffffffffffffffff\n            /* \"#utility.yul\":8866:8872   */\n          dup2\n            /* \"#utility.yul\":8863:8893   */\n          gt\n            /* \"#utility.yul\":8860:8916   */\n          iszero\n          tag_156\n          jumpi\n            /* \"#utility.yul\":8896:8914   */\n          tag_157\n          tag_24\n          jump\t// in\n        tag_157:\n            /* \"#utility.yul\":8860:8916   */\n        tag_156:\n            /* \"#utility.yul\":8940:8978   */\n          tag_158\n            /* \"#utility.yul\":8972:8976   */\n          dup3\n            /* \"#utility.yul\":8966:8977   */\n          sload\n            /* \"#utility.yul\":8940:8978   */\n          tag_33\n          jump\t// in\n        tag_158:\n            /* \"#utility.yul\":9025:9092   */\n          tag_159\n            /* \"#utility.yul\":9085:9091   */\n          dup3\n            /* \"#utility.yul\":9077:9083   */\n          dup3\n            /* \"#utility.yul\":9071:9075   */\n          dup6\n            /* \"#utility.yul\":9025:9092   */\n          tag_45\n          jump\t// in\n        tag_159:\n            /* \"#utility.yul\":9119:9120   */\n          0x00\n            /* \"#utility.yul\":9143:9147   */\n          0x20\n            /* \"#utility.yul\":9130:9147   */\n          swap1\n          pop\n            /* \"#utility.yul\":9175:9177   */\n          0x1f\n            /* \"#utility.yul\":9167:9173   */\n          dup4\n            /* \"#utility.yul\":9164:9178   */\n          gt\n            /* \"#utility.yul\":9192:9193   */\n          0x01\n            /* \"#utility.yul\":9187:9805   */\n          dup2\n          eq\n          tag_161\n          jumpi\n            /* \"#utility.yul\":9849:9850   */\n          0x00\n            /* \"#utility.yul\":9866:9872   */\n          dup5\n            /* \"#utility.yul\":9863:9940   */\n          iszero\n          tag_162\n          jumpi\n            /* \"#utility.yul\":9915:9924   */\n          dup3\n            /* \"#utility.yul\":9910:9913   */\n          dup8\n            /* \"#utility.yul\":9906:9925   */\n          add\n            /* \"#utility.yul\":9900:9926   */\n          mload\n            /* \"#utility.yul\":9891:9926   */\n          swap1\n          pop\n            /* \"#utility.yul\":9863:9940   */\n        tag_162:\n            /* \"#utility.yul\":9966:10033   */\n          tag_163\n            /* \"#utility.yul\":10026:10032   */\n          dup6\n            /* \"#utility.yul\":10019:10024   */\n          dup3\n            /* \"#utility.yul\":9966:10033   */\n          tag_48\n          jump\t// in\n        tag_163:\n            /* \"#utility.yul\":9960:9964   */\n          dup7\n            /* \"#utility.yul\":9953:10034   */\n          sstore\n            /* \"#utility.yul\":9822:10044   */\n          pop\n            /* \"#utility.yul\":9157:10044   */\n          jump(tag_160)\n            /* \"#utility.yul\":9187:9805   */\n        tag_161:\n            /* \"#utility.yul\":9239:9243   */\n          0x1f\n            /* \"#utility.yul\":9235:9244   */\n          not\n            /* \"#utility.yul\":9227:9233   */\n          dup5\n            /* \"#utility.yul\":9223:9245   */\n          and\n            /* \"#utility.yul\":9273:9310   */\n          tag_164\n            /* \"#utility.yul\":9305:9309   */\n          dup7\n            /* \"#utility.yul\":9273:9310   */\n          tag_34\n          jump\t// in\n        tag_164:\n            /* \"#utility.yul\":9332:9333   */\n          0x00\n            /* \"#utility.yul\":9346:9554   */\n        tag_165:\n            /* \"#utility.yul\":9360:9367   */\n          dup3\n            /* \"#utility.yul\":9357:9358   */\n          dup2\n            /* \"#utility.yul\":9354:9368   */\n          lt\n            /* \"#utility.yul\":9346:9554   */\n          iszero\n          tag_167\n          jumpi\n            /* \"#utility.yul\":9439:9448   */\n          dup5\n            /* \"#utility.yul\":9434:9437   */\n          dup10\n            /* \"#utility.yul\":9430:9449   */\n          add\n            /* \"#utility.yul\":9424:9450   */\n          mload\n            /* \"#utility.yul\":9416:9422   */\n          dup3\n            /* \"#utility.yul\":9409:9451   */\n          sstore\n            /* \"#utility.yul\":9490:9491   */\n          0x01\n            /* \"#utility.yul\":9482:9488   */\n          dup3\n            /* \"#utility.yul\":9478:9492   */\n          add\n            /* \"#utility.yul\":9468:9492   */\n          swap2\n          pop\n            /* \"#utility.yul\":9537:9539   */\n          0x20\n            /* \"#utility.yul\":9526:9535   */\n          dup6\n            /* \"#utility.yul\":9522:9540   */\n          add\n            /* \"#utility.yul\":9509:9540   */\n          swap5\n          pop\n            /* \"#utility.yul\":9383:9387   */\n          0x20\n            /* \"#utility.yul\":9380:9381   */\n          dup2\n            /* \"#utility.yul\":9376:9388   */\n          add\n            /* \"#utility.yul\":9371:9388   */\n          swap1\n          pop\n            /* \"#utility.yul\":9346:9554   */\n          jump(tag_165)\n        tag_167:\n            /* \"#utility.yul\":9582:9588   */\n          dup7\n            /* \"#utility.yul\":9573:9580   */\n          dup4\n            /* \"#utility.yul\":9570:9589   */\n          lt\n            /* \"#utility.yul\":9567:9746   */\n          iszero\n          tag_168\n          jumpi\n            /* \"#utility.yul\":9640:9649   */\n          dup5\n            /* \"#utility.yul\":9635:9638   */\n          dup10\n            /* \"#utility.yul\":9631:9650   */\n          add\n            /* \"#utility.yul\":9625:9651   */\n          mload\n            /* \"#utility.yul\":9683:9731   */\n          tag_169\n            /* \"#utility.yul\":9725:9729   */\n          0x1f\n            /* \"#utility.yul\":9717:9723   */\n          dup10\n            /* \"#utility.yul\":9713:9730   */\n          and\n            /* \"#utility.yul\":9702:9711   */\n          dup3\n            /* \"#utility.yul\":9683:9731   */\n          tag_47\n          jump\t// in\n        tag_169:\n            /* \"#utility.yul\":9675:9681   */\n          dup4\n            /* \"#utility.yul\":9668:9732   */\n          sstore\n            /* \"#utility.yul\":9590:9746   */\n          pop\n            /* \"#utility.yul\":9567:9746   */\n        tag_168:\n            /* \"#utility.yul\":9792:9793   */\n          0x01\n            /* \"#utility.yul\":9788:9789   */\n          0x02\n            /* \"#utility.yul\":9780:9786   */\n          dup9\n            /* \"#utility.yul\":9776:9790   */\n          mul\n            /* \"#utility.yul\":9772:9794   */\n          add\n            /* \"#utility.yul\":9766:9770   */\n          dup9\n            /* \"#utility.yul\":9759:9795   */\n          sstore\n            /* \"#utility.yul\":9194:9805   */\n          pop\n          pop\n          pop\n            /* \"#utility.yul\":9157:10044   */\n        tag_160:\n          pop\n            /* \"#utility.yul\":8747:10050   */\n          pop\n          pop\n          pop\n            /* \"#utility.yul\":8655:10050   */\n          pop\n          pop\n          jump\t// out\n            /* \"Campaign.sol\":504:4380  contract Campaign{... */\n        tag_10:\n          dataSize(sub_0)\n          dup1\n          dataOffset(sub_0)\n          0x00\n          codecopy\n          0x00\n          return\n        stop\n\n        sub_0: assembly {\n                /* \"Campaign.sol\":504:4380  contract Campaign{... */\n              mstore(0x40, 0x80)\n              jumpi(tag_1, lt(calldatasize, 0x04))\n              shr(0xe0, calldataload(0x00))\n              dup1\n              0x82fde093\n              gt\n              tag_16\n              jumpi\n              dup1\n              0xaba83150\n              gt\n              tag_17\n              jumpi\n              dup1\n              0xaba83150\n              eq\n              tag_12\n              jumpi\n              dup1\n              0xd7bb99ba\n              eq\n              tag_13\n              jumpi\n              dup1\n              0xd7d1bbdb\n              eq\n              tag_14\n              jumpi\n              dup1\n              0xebd94e21\n              eq\n              tag_15\n              jumpi\n              jump(tag_1)\n            tag_17:\n              dup1\n              0x82fde093\n              eq\n              tag_9\n              jumpi\n              dup1\n              0x8a9cfd55\n              eq\n              tag_10\n              jumpi\n              dup1\n              0x937e09b1\n              eq\n              tag_11\n              jumpi\n              jump(tag_1)\n            tag_16:\n              dup1\n              0x4051ddac\n              gt\n              tag_18\n              jumpi\n              dup1\n              0x4051ddac\n              eq\n              tag_5\n              jumpi\n              dup1\n              0x481c6a75\n              eq\n              tag_6\n              jumpi\n              dup1\n              0x49367252\n              eq\n              tag_7\n              jumpi\n              dup1\n              0x81d12c58\n              eq\n              tag_8\n              jumpi\n              jump(tag_1)\n            tag_18:\n              dup1\n              0x03441006\n              eq\n              tag_2\n              jumpi\n              dup1\n              0x0724fda9\n              eq\n              tag_3\n              jumpi\n              dup1\n              0x0a144391\n              eq\n              tag_4\n              jumpi\n            tag_1:\n              0x00\n              dup1\n              revert\n                /* \"Campaign.sol\":3552:3849  function finalizeRequest(uint index) public restricted{... */\n            tag_2:\n              callvalue\n              dup1\n              iszero\n              tag_19\n              jumpi\n              0x00\n              dup1\n              revert\n            tag_19:\n              pop\n              tag_20\n              0x04\n              dup1\n              calldatasize\n              sub\n              dup2\n              add\n              swap1\n              tag_21\n              swap2\n              swap1\n              tag_22\n              jump\t// in\n            tag_21:\n              tag_23\n              jump\t// in\n            tag_20:\n              stop\n                /* \"Campaign.sol\":943:969  string public campaignName */\n            tag_3:\n              callvalue\n              dup1\n              iszero\n              tag_24\n              jumpi\n              0x00\n              dup1\n              revert\n            tag_24:\n              pop\n              tag_25\n              tag_26\n              jump\t// in\n            tag_25:\n              mload(0x40)\n              tag_27\n              swap2\n              swap1\n              tag_28\n              jump\t// in\n            tag_27:\n              mload(0x40)\n              dup1\n              swap2\n              sub\n              swap1\n              return\n                /* \"Campaign.sol\":1391:1430  mapping(address=>bool) public approvers */\n            tag_4:\n              callvalue\n              dup1\n              iszero\n              tag_29\n              jumpi\n              0x00\n              dup1\n              revert\n            tag_29:\n              pop\n              tag_30\n              0x04\n              dup1\n              calldatasize\n              sub\n              dup2\n              add\n              swap1\n              tag_31\n              swap2\n              swap1\n              tag_32\n              jump\t// in\n            tag_31:\n              tag_33\n              jump\t// in\n            tag_30:\n              mload(0x40)\n              tag_34\n              swap2\n              swap1\n              tag_35\n              jump\t// in\n            tag_34:\n              mload(0x40)\n              dup1\n              swap2\n              sub\n              swap1\n              return\n                /* \"Campaign.sol\":3854:4102  function getSummary() public view returns (uint,uint,uint,uint,address,string memory,string memory,string memory){... */\n            tag_5:\n              callvalue\n              dup1\n              iszero\n              tag_36\n              jumpi\n              0x00\n              dup1\n              revert\n            tag_36:\n              pop\n              tag_37\n              tag_38\n              jump\t// in\n            tag_37:\n              mload(0x40)\n              tag_39\n              swap9\n              swap8\n              swap7\n              swap6\n              swap5\n              swap4\n              swap3\n              swap2\n              swap1\n              tag_40\n              jump\t// in\n            tag_39:\n              mload(0x40)\n              dup1\n              swap2\n              sub\n              swap1\n              return\n                /* \"Campaign.sol\":879:901  address public manager */\n            tag_6:\n              callvalue\n              dup1\n              iszero\n              tag_41\n              jumpi\n              0x00\n              dup1\n              revert\n            tag_41:\n              pop\n              tag_42\n              tag_43\n              jump\t// in\n            tag_42:\n              mload(0x40)\n              tag_44\n              swap2\n              swap1\n              tag_45\n              jump\t// in\n            tag_44:\n              mload(0x40)\n              dup1\n              swap2\n              sub\n              swap1\n              return\n                /* \"Campaign.sol\":3413:3544  function hasApproved(uint index) public view returns (bool) {         ... */\n            tag_7:\n              callvalue\n              dup1\n              iszero\n              tag_46\n              jumpi\n              0x00\n              dup1\n              revert\n            tag_46:\n              pop\n              tag_47\n              0x04\n              dup1\n              calldatasize\n              sub\n              dup2\n              add\n              swap1\n              tag_48\n              swap2\n              swap1\n              tag_22\n              jump\t// in\n            tag_48:\n              tag_49\n              jump\t// in\n            tag_47:\n              mload(0x40)\n              tag_50\n              swap2\n              swap1\n              tag_35\n              jump\t// in\n            tag_50:\n              mload(0x40)\n              dup1\n              swap2\n              sub\n              swap1\n              return\n                /* \"Campaign.sol\":763:801  mapping(uint=>Request) public requests */\n            tag_8:\n              callvalue\n              dup1\n              iszero\n              tag_51\n              jumpi\n              0x00\n              dup1\n              revert\n            tag_51:\n              pop\n              tag_52\n              0x04\n              dup1\n              calldatasize\n              sub\n              dup2\n              add\n              swap1\n              tag_53\n              swap2\n              swap1\n              tag_22\n              jump\t// in\n            tag_53:\n              tag_54\n              jump\t// in\n            tag_52:\n              mload(0x40)\n              tag_55\n              swap6\n              swap5\n              swap4\n              swap3\n              swap2\n              swap1\n              tag_56\n              jump\t// in\n            tag_55:\n              mload(0x40)\n              dup1\n              swap2\n              sub\n              swap1\n              return\n                /* \"Campaign.sol\":1437:1463  uint public approversCount */\n            tag_9:\n              callvalue\n              dup1\n              iszero\n              tag_57\n              jumpi\n              0x00\n              dup1\n              revert\n            tag_57:\n              pop\n              tag_58\n              tag_59\n              jump\t// in\n            tag_58:\n              mload(0x40)\n              tag_60\n              swap2\n              swap1\n              tag_61\n              jump\t// in\n            tag_60:\n              mload(0x40)\n              dup1\n              swap2\n              sub\n              swap1\n              return\n                /* \"Campaign.sol\":2085:2911  function createRequest( string memory description, uint value, address payable recipient) public restricted {... */\n            tag_10:\n              callvalue\n              dup1\n              iszero\n              tag_62\n              jumpi\n              0x00\n              dup1\n              revert\n            tag_62:\n              pop\n              tag_63\n              0x04\n              dup1\n              calldatasize\n              sub\n              dup2\n              add\n              swap1\n              tag_64\n              swap2\n              swap1\n              tag_65\n              jump\t// in\n            tag_64:\n              tag_66\n              jump\t// in\n            tag_63:\n              stop\n                /* \"Campaign.sol\":908:939  uint public minimumContribution */\n            tag_11:\n              callvalue\n              dup1\n              iszero\n              tag_67\n              jumpi\n              0x00\n              dup1\n              revert\n            tag_67:\n              pop\n              tag_68\n              tag_69\n              jump\t// in\n            tag_68:\n              mload(0x40)\n              tag_70\n              swap2\n              swap1\n              tag_61\n              jump\t// in\n            tag_70:\n              mload(0x40)\n              dup1\n              swap2\n              sub\n              swap1\n              return\n                /* \"Campaign.sol\":1007:1029  string public imageUrl */\n            tag_12:\n              callvalue\n              dup1\n              iszero\n              tag_71\n              jumpi\n              0x00\n              dup1\n              revert\n            tag_71:\n              pop\n              tag_72\n              tag_73\n              jump\t// in\n            tag_72:\n              mload(0x40)\n              tag_74\n              swap2\n              swap1\n              tag_28\n              jump\t// in\n            tag_74:\n              mload(0x40)\n              dup1\n              swap2\n              sub\n              swap1\n              return\n                /* \"Campaign.sol\":1779:2031  function contribute() public payable{... */\n            tag_13:\n              tag_75\n              tag_76\n              jump\t// in\n            tag_75:\n              stop\n                /* \"Campaign.sol\":2919:3408  function approveRequest(uint index) public{... */\n            tag_14:\n              callvalue\n              dup1\n              iszero\n              tag_77\n              jumpi\n              0x00\n              dup1\n              revert\n            tag_77:\n              pop\n              tag_78\n              0x04\n              dup1\n              calldatasize\n              sub\n              dup2\n              add\n              swap1\n              tag_79\n              swap2\n              swap1\n              tag_22\n              jump\t// in\n            tag_79:\n              tag_80\n              jump\t// in\n            tag_78:\n              stop\n                /* \"Campaign.sol\":975:1001  string public campaignDesc */\n            tag_15:\n              callvalue\n              dup1\n              iszero\n              tag_81\n              jumpi\n              0x00\n              dup1\n              revert\n            tag_81:\n              pop\n              tag_82\n              tag_83\n              jump\t// in\n            tag_82:\n              mload(0x40)\n              tag_84\n              swap2\n              swap1\n              tag_28\n              jump\t// in\n            tag_84:\n              mload(0x40)\n              dup1\n              swap2\n              sub\n              swap1\n              return\n                /* \"Campaign.sol\":3552:3849  function finalizeRequest(uint index) public restricted{... */\n            tag_23:\n                /* \"Campaign.sol\":1618:1625  manager */\n              0x02\n              0x00\n              swap1\n              sload\n              swap1\n              0x0100\n              exp\n              swap1\n              div\n              0xffffffffffffffffffffffffffffffffffffffff\n              and\n                /* \"Campaign.sol\":1604:1625  msg.sender == manager */\n              0xffffffffffffffffffffffffffffffffffffffff\n              and\n                /* \"Campaign.sol\":1604:1614  msg.sender */\n              caller\n                /* \"Campaign.sol\":1604:1625  msg.sender == manager */\n              0xffffffffffffffffffffffffffffffffffffffff\n              and\n              eq\n                /* \"Campaign.sol\":1596:1652  require(msg.sender == manager,\"You are not authorized!\") */\n              tag_86\n              jumpi\n              mload(0x40)\n              0x08c379a000000000000000000000000000000000000000000000000000000000\n              dup2\n              mstore\n              0x04\n              add\n              tag_87\n              swap1\n              tag_88\n              jump\t// in\n            tag_87:\n              mload(0x40)\n              dup1\n              swap2\n              sub\n              swap1\n              revert\n            tag_86:\n                /* \"Campaign.sol\":3617:3640  Request storage request */\n              0x00\n                /* \"Campaign.sol\":3643:3651  requests */\n              0x01\n                /* \"Campaign.sol\":3643:3658  requests[index] */\n              0x00\n                /* \"Campaign.sol\":3652:3657  index */\n              dup4\n                /* \"Campaign.sol\":3643:3658  requests[index] */\n              dup2\n              mstore\n              0x20\n              add\n              swap1\n              dup2\n              mstore\n              0x20\n              add\n              0x00\n              keccak256\n                /* \"Campaign.sol\":3617:3658  Request storage request = requests[index] */\n              swap1\n              pop\n                /* \"Campaign.sol\":3678:3685  request */\n              dup1\n                /* \"Campaign.sol\":3678:3694  request.complete */\n              0x02\n              add\n              0x14\n              swap1\n              sload\n              swap1\n              0x0100\n              exp\n              swap1\n              div\n              0xff\n              and\n                /* \"Campaign.sol\":3677:3694  !request.complete */\n              iszero\n                /* \"Campaign.sol\":3669:3695  require(!request.complete) */\n              tag_90\n              jumpi\n              0x00\n              dup1\n              revert\n            tag_90:\n                /* \"Campaign.sol\":3752:3753  2 */\n              0x02\n                /* \"Campaign.sol\":3737:3751  approversCount */\n              sload(0x08)\n                /* \"Campaign.sol\":3737:3753  approversCount/2 */\n              tag_91\n              swap2\n              swap1\n              tag_92\n              jump\t// in\n            tag_91:\n                /* \"Campaign.sol\":3714:3721  request */\n              dup2\n                /* \"Campaign.sol\":3714:3735  request.approvalCount */\n              0x04\n              add\n              sload\n                /* \"Campaign.sol\":3714:3754  request.approvalCount>(approversCount/2) */\n              gt\n                /* \"Campaign.sol\":3706:3755  require(request.approvalCount>(approversCount/2)) */\n              tag_93\n              jumpi\n              0x00\n              dup1\n              revert\n            tag_93:\n                /* \"Campaign.sol\":3766:3773  request */\n              dup1\n                /* \"Campaign.sol\":3766:3783  request.recipient */\n              0x02\n              add\n              0x00\n              swap1\n              sload\n              swap1\n              0x0100\n              exp\n              swap1\n              div\n              0xffffffffffffffffffffffffffffffffffffffff\n              and\n                /* \"Campaign.sol\":3766:3792  request.recipient.transfer */\n              0xffffffffffffffffffffffffffffffffffffffff\n              and\n                /* \"Campaign.sol\":3766:3807  request.recipient.transfer(request.value) */\n              0x08fc\n                /* \"Campaign.sol\":3793:3800  request */\n              dup3\n                /* \"Campaign.sol\":3793:3806  request.value */\n              0x01\n              add\n              sload\n                /* \"Campaign.sol\":3766:3807  request.recipient.transfer(request.value) */\n              swap1\n              dup2\n              iszero\n              mul\n              swap1\n              mload(0x40)\n              0x00\n              mload(0x40)\n              dup1\n              dup4\n              sub\n              dup2\n              dup6\n              dup9\n              dup9\n              call\n              swap4\n              pop\n              pop\n              pop\n              pop\n              iszero\n              dup1\n              iszero\n              tag_95\n              jumpi\n              returndatasize\n              0x00\n              dup1\n              returndatacopy\n              revert(0x00, returndatasize)\n            tag_95:\n              pop\n                /* \"Campaign.sol\":3835:3839  true */\n              0x01\n                /* \"Campaign.sol\":3818:3825  request */\n              dup2\n                /* \"Campaign.sol\":3818:3834  request.complete */\n              0x02\n              add\n              0x14\n                /* \"Campaign.sol\":3818:3839  request.complete=true */\n              0x0100\n              exp\n              dup2\n              sload\n              dup2\n              0xff\n              mul\n              not\n              and\n              swap1\n              dup4\n              iszero\n              iszero\n              mul\n              or\n              swap1\n              sstore\n              pop\n                /* \"Campaign.sol\":3606:3849  {... */\n              pop\n                /* \"Campaign.sol\":3552:3849  function finalizeRequest(uint index) public restricted{... */\n              pop\n              jump\t// out\n                /* \"Campaign.sol\":943:969  string public campaignName */\n            tag_26:\n              0x04\n              dup1\n              sload\n              tag_96\n              swap1\n              tag_97\n              jump\t// in\n            tag_96:\n              dup1\n              0x1f\n              add\n              0x20\n              dup1\n              swap2\n              div\n              mul\n              0x20\n              add\n              mload(0x40)\n              swap1\n              dup2\n              add\n              0x40\n              mstore\n              dup1\n              swap3\n              swap2\n              swap1\n              dup2\n              dup2\n              mstore\n              0x20\n              add\n              dup3\n              dup1\n              sload\n              tag_98\n              swap1\n              tag_97\n              jump\t// in\n            tag_98:\n              dup1\n              iszero\n              tag_99\n              jumpi\n              dup1\n              0x1f\n              lt\n              tag_100\n              jumpi\n              0x0100\n              dup1\n              dup4\n              sload\n              div\n              mul\n              dup4\n              mstore\n              swap2\n              0x20\n              add\n              swap2\n              jump(tag_99)\n            tag_100:\n              dup3\n              add\n              swap2\n              swap1\n              0x00\n              mstore\n              keccak256(0x00, 0x20)\n              swap1\n            tag_101:\n              dup2\n              sload\n              dup2\n              mstore\n              swap1\n              0x01\n              add\n              swap1\n              0x20\n              add\n              dup1\n              dup4\n              gt\n              tag_101\n              jumpi\n              dup3\n              swap1\n              sub\n              0x1f\n              and\n              dup3\n              add\n              swap2\n            tag_99:\n              pop\n              pop\n              pop\n              pop\n              pop\n              dup2\n              jump\t// out\n                /* \"Campaign.sol\":1391:1430  mapping(address=>bool) public approvers */\n            tag_33:\n              mstore(0x20, 0x07)\n              dup1\n              0x00\n              mstore\n              keccak256(0x00, 0x40)\n              0x00\n              swap2\n              pop\n              sload\n              swap1\n              0x0100\n              exp\n              swap1\n              div\n              0xff\n              and\n              dup2\n              jump\t// out\n                /* \"Campaign.sol\":3854:4102  function getSummary() public view returns (uint,uint,uint,uint,address,string memory,string memory,string memory){... */\n            tag_38:\n                /* \"Campaign.sol\":3897:3901  uint */\n              0x00\n                /* \"Campaign.sol\":3902:3906  uint */\n              dup1\n                /* \"Campaign.sol\":3907:3911  uint */\n              0x00\n                /* \"Campaign.sol\":3912:3916  uint */\n              dup1\n                /* \"Campaign.sol\":3917:3924  address */\n              0x00\n                /* \"Campaign.sol\":3925:3938  string memory */\n              0x60\n                /* \"Campaign.sol\":3939:3952  string memory */\n              dup1\n                /* \"Campaign.sol\":3953:3966  string memory */\n              0x60\n                /* \"Campaign.sol\":3979:3998  minimumContribution */\n              sload(0x03)\n                /* \"Campaign.sol\":3999:4020  address(this).balance */\n              selfbalance\n                /* \"Campaign.sol\":4021:4032  numRequests */\n              sload(0x00)\n                /* \"Campaign.sol\":4034:4048  approversCount */\n              sload(0x08)\n                /* \"Campaign.sol\":4050:4057  manager */\n              0x02\n              0x00\n              swap1\n              sload\n              swap1\n              0x0100\n              exp\n              swap1\n              div\n              0xffffffffffffffffffffffffffffffffffffffff\n              and\n                /* \"Campaign.sol\":4059:4071  campaignName */\n              0x04\n                /* \"Campaign.sol\":4072:4084  campaignDesc */\n              0x05\n                /* \"Campaign.sol\":4085:4093  imageUrl */\n              0x06\n                /* \"Campaign.sol\":3972:4097  return(minimumContribution,address(this).balance,numRequests, approversCount, manager, campaignName,campaignDesc,imageUrl... */\n              dup3\n              dup1\n              sload\n              tag_103\n              swap1\n              tag_97\n              jump\t// in\n            tag_103:\n              dup1\n              0x1f\n              add\n              0x20\n              dup1\n              swap2\n              div\n              mul\n              0x20\n              add\n              mload(0x40)\n              swap1\n              dup2\n              add\n              0x40\n              mstore\n              dup1\n              swap3\n              swap2\n              swap1\n              dup2\n              dup2\n              mstore\n              0x20\n              add\n              dup3\n              dup1\n              sload\n              tag_104\n              swap1\n              tag_97\n              jump\t// in\n            tag_104:\n              dup1\n              iszero\n              tag_105\n              jumpi\n              dup1\n              0x1f\n              lt\n              tag_106\n              jumpi\n              0x0100\n              dup1\n              dup4\n              sload\n              div\n              mul\n              dup4\n              mstore\n              swap2\n              0x20\n              add\n              swap2\n              jump(tag_105)\n            tag_106:\n              dup3\n              add\n              swap2\n              swap1\n              0x00\n              mstore\n              keccak256(0x00, 0x20)\n              swap1\n            tag_107:\n              dup2\n              sload\n              dup2\n              mstore\n              swap1\n              0x01\n              add\n              swap1\n              0x20\n              add\n              dup1\n              dup4\n              gt\n              tag_107\n              jumpi\n              dup3\n              swap1\n              sub\n              0x1f\n              and\n              dup3\n              add\n              swap2\n            tag_105:\n              pop\n              pop\n              pop\n              pop\n              pop\n              swap3\n              pop\n              dup2\n              dup1\n              sload\n              tag_108\n              swap1\n              tag_97\n              jump\t// in\n            tag_108:\n              dup1\n              0x1f\n              add\n              0x20\n              dup1\n              swap2\n              div\n              mul\n              0x20\n              add\n              mload(0x40)\n              swap1\n              dup2\n              add\n              0x40\n              mstore\n              dup1\n              swap3\n              swap2\n              swap1\n              dup2\n              dup2\n              mstore\n              0x20\n              add\n              dup3\n              dup1\n              sload\n              tag_109\n              swap1\n              tag_97\n              jump\t// in\n            tag_109:\n              dup1\n              iszero\n              tag_110\n              jumpi\n              dup1\n              0x1f\n              lt\n              tag_111\n              jumpi\n              0x0100\n              dup1\n              dup4\n              sload\n              div\n              mul\n              dup4\n              mstore\n              swap2\n              0x20\n              add\n              swap2\n              jump(tag_110)\n            tag_111:\n              dup3\n              add\n              swap2\n              swap1\n              0x00\n              mstore\n              keccak256(0x00, 0x20)\n              swap1\n            tag_112:\n              dup2\n              sload\n              dup2\n              mstore\n              swap1\n              0x01\n              add\n              swap1\n              0x20\n              add\n              dup1\n              dup4\n              gt\n              tag_112\n              jumpi\n              dup3\n              swap1\n              sub\n              0x1f\n              and\n              dup3\n              add\n              swap2\n            tag_110:\n              pop\n              pop\n              pop\n              pop\n              pop\n              swap2\n              pop\n              dup1\n              dup1\n              sload\n              tag_113\n              swap1\n              tag_97\n              jump\t// in\n            tag_113:\n              dup1\n              0x1f\n              add\n              0x20\n              dup1\n              swap2\n              div\n              mul\n              0x20\n              add\n              mload(0x40)\n              swap1\n              dup2\n              add\n              0x40\n              mstore\n              dup1\n              swap3\n              swap2\n              swap1\n              dup2\n              dup2\n              mstore\n              0x20\n              add\n              dup3\n              dup1\n              sload\n              tag_114\n              swap1\n              tag_97\n              jump\t// in\n            tag_114:\n              dup1\n              iszero\n              tag_115\n              jumpi\n              dup1\n              0x1f\n              lt\n              tag_116\n              jumpi\n              0x0100\n              dup1\n              dup4\n              sload\n              div\n              mul\n              dup4\n              mstore\n              swap2\n              0x20\n              add\n              swap2\n              jump(tag_115)\n            tag_116:\n              dup3\n              add\n              swap2\n              swap1\n              0x00\n              mstore\n              keccak256(0x00, 0x20)\n              swap1\n            tag_117:\n              dup2\n              sload\n              dup2\n              mstore\n              swap1\n              0x01\n              add\n              swap1\n              0x20\n              add\n              dup1\n              dup4\n              gt\n              tag_117\n              jumpi\n              dup3\n              swap1\n              sub\n              0x1f\n              and\n              dup3\n              add\n              swap2\n            tag_115:\n              pop\n              pop\n              pop\n              pop\n              pop\n              swap1\n              pop\n              swap8\n              pop\n              swap8\n              pop\n              swap8\n              pop\n              swap8\n              pop\n              swap8\n              pop\n              swap8\n              pop\n              swap8\n              pop\n              swap8\n              pop\n                /* \"Campaign.sol\":3854:4102  function getSummary() public view returns (uint,uint,uint,uint,address,string memory,string memory,string memory){... */\n              swap1\n              swap2\n              swap3\n              swap4\n              swap5\n              swap6\n              swap7\n              swap8\n              jump\t// out\n                /* \"Campaign.sol\":879:901  address public manager */\n            tag_43:\n              0x02\n              0x00\n              swap1\n              sload\n              swap1\n              0x0100\n              exp\n              swap1\n              div\n              0xffffffffffffffffffffffffffffffffffffffff\n              and\n              dup2\n              jump\t// out\n                /* \"Campaign.sol\":3413:3544  function hasApproved(uint index) public view returns (bool) {         ... */\n            tag_49:\n                /* \"Campaign.sol\":3467:3471  bool */\n              0x00\n                /* \"Campaign.sol\":3497:3505  requests */\n              0x01\n                /* \"Campaign.sol\":3497:3512  requests[index] */\n              0x00\n                /* \"Campaign.sol\":3506:3511  index */\n              dup4\n                /* \"Campaign.sol\":3497:3512  requests[index] */\n              dup2\n              mstore\n              0x20\n              add\n              swap1\n              dup2\n              mstore\n              0x20\n              add\n              0x00\n              keccak256\n                /* \"Campaign.sol\":3497:3522  requests[index].approvals */\n              0x03\n              add\n                /* \"Campaign.sol\":3497:3534  requests[index].approvals[msg.sender] */\n              0x00\n                /* \"Campaign.sol\":3523:3533  msg.sender */\n              caller\n                /* \"Campaign.sol\":3497:3534  requests[index].approvals[msg.sender] */\n              0xffffffffffffffffffffffffffffffffffffffff\n              and\n              0xffffffffffffffffffffffffffffffffffffffff\n              and\n              dup2\n              mstore\n              0x20\n              add\n              swap1\n              dup2\n              mstore\n              0x20\n              add\n              0x00\n              keccak256\n              0x00\n              swap1\n              sload\n              swap1\n              0x0100\n              exp\n              swap1\n              div\n              0xff\n              and\n                /* \"Campaign.sol\":3490:3534  return requests[index].approvals[msg.sender] */\n              swap1\n              pop\n                /* \"Campaign.sol\":3413:3544  function hasApproved(uint index) public view returns (bool) {         ... */\n              swap2\n              swap1\n              pop\n              jump\t// out\n                /* \"Campaign.sol\":763:801  mapping(uint=>Request) public requests */\n            tag_54:\n              mstore(0x20, 0x01)\n              dup1\n              0x00\n              mstore\n              keccak256(0x00, 0x40)\n              0x00\n              swap2\n              pop\n              swap1\n              pop\n              dup1\n              0x00\n              add\n              dup1\n              sload\n              tag_119\n              swap1\n              tag_97\n              jump\t// in\n            tag_119:\n              dup1\n              0x1f\n              add\n              0x20\n              dup1\n              swap2\n              div\n              mul\n              0x20\n              add\n              mload(0x40)\n              swap1\n              dup2\n              add\n              0x40\n              mstore\n              dup1\n              swap3\n              swap2\n              swap1\n              dup2\n              dup2\n              mstore\n              0x20\n              add\n              dup3\n              dup1\n              sload\n              tag_120\n              swap1\n              tag_97\n              jump\t// in\n            tag_120:\n              dup1\n              iszero\n              tag_121\n              jumpi\n              dup1\n              0x1f\n              lt\n              tag_122\n              jumpi\n              0x0100\n              dup1\n              dup4\n              sload\n              div\n              mul\n              dup4\n              mstore\n              swap2\n              0x20\n              add\n              swap2\n              jump(tag_121)\n            tag_122:\n              dup3\n              add\n              swap2\n              swap1\n              0x00\n              mstore\n              keccak256(0x00, 0x20)\n              swap1\n            tag_123:\n              dup2\n              sload\n              dup2\n              mstore\n              swap1\n              0x01\n              add\n              swap1\n              0x20\n              add\n              dup1\n              dup4\n              gt\n              tag_123\n              jumpi\n              dup3\n              swap1\n              sub\n              0x1f\n              and\n              dup3\n              add\n              swap2\n            tag_121:\n              pop\n              pop\n              pop\n              pop\n              pop\n              swap1\n              dup1\n              0x01\n              add\n              sload\n              swap1\n              dup1\n              0x02\n              add\n              0x00\n              swap1\n              sload\n              swap1\n              0x0100\n              exp\n              swap1\n              div\n              0xffffffffffffffffffffffffffffffffffffffff\n              and\n              swap1\n              dup1\n              0x02\n              add\n              0x14\n              swap1\n              sload\n              swap1\n              0x0100\n              exp\n              swap1\n              div\n              0xff\n              and\n              swap1\n              dup1\n              0x04\n              add\n              sload\n              swap1\n              pop\n              dup6\n              jump\t// out\n                /* \"Campaign.sol\":1437:1463  uint public approversCount */\n            tag_59:\n              sload(0x08)\n              dup2\n              jump\t// out\n                /* \"Campaign.sol\":2085:2911  function createRequest( string memory description, uint value, address payable recipient) public restricted {... */\n            tag_66:\n                /* \"Campaign.sol\":1618:1625  manager */\n              0x02\n              0x00\n              swap1\n              sload\n              swap1\n              0x0100\n              exp\n              swap1\n              div\n              0xffffffffffffffffffffffffffffffffffffffff\n              and\n                /* \"Campaign.sol\":1604:1625  msg.sender == manager */\n              0xffffffffffffffffffffffffffffffffffffffff\n              and\n                /* \"Campaign.sol\":1604:1614  msg.sender */\n              caller\n                /* \"Campaign.sol\":1604:1625  msg.sender == manager */\n              0xffffffffffffffffffffffffffffffffffffffff\n              and\n              eq\n                /* \"Campaign.sol\":1596:1652  require(msg.sender == manager,\"You are not authorized!\") */\n              tag_125\n              jumpi\n              mload(0x40)\n              0x08c379a000000000000000000000000000000000000000000000000000000000\n              dup2\n              mstore\n              0x04\n              add\n              tag_126\n              swap1\n              tag_88\n              jump\t// in\n            tag_126:\n              mload(0x40)\n              dup1\n              swap2\n              sub\n              swap1\n              revert\n            tag_125:\n                /* \"Campaign.sol\":2273:2282  approvers */\n              0x07\n                /* \"Campaign.sol\":2273:2294  approvers[msg.sender] */\n              0x00\n                /* \"Campaign.sol\":2283:2293  msg.sender */\n              caller\n                /* \"Campaign.sol\":2273:2294  approvers[msg.sender] */\n              0xffffffffffffffffffffffffffffffffffffffff\n              and\n              0xffffffffffffffffffffffffffffffffffffffff\n              and\n              dup2\n              mstore\n              0x20\n              add\n              swap1\n              dup2\n              mstore\n              0x20\n              add\n              0x00\n              keccak256\n              0x00\n              swap1\n              sload\n              swap1\n              0x0100\n              exp\n              swap1\n              div\n              0xff\n              and\n                /* \"Campaign.sol\":2265:2295  require(approvers[msg.sender]) */\n              tag_128\n              jumpi\n              0x00\n              dup1\n              revert\n            tag_128:\n                /* \"Campaign.sol\":2325:2346  address(this).balance */\n              selfbalance\n                /* \"Campaign.sol\":2316:2321  value */\n              dup3\n                /* \"Campaign.sol\":2316:2346  value <= address(this).balance */\n              gt\n              iszero\n                /* \"Campaign.sol\":2308:2347  require(value <= address(this).balance) */\n              tag_129\n              jumpi\n              0x00\n              dup1\n              revert\n            tag_129:\n                /* \"Campaign.sol\":2388:2414  Request storage newRequest */\n              0x00\n                /* \"Campaign.sol\":2417:2425  requests */\n              0x01\n                /* \"Campaign.sol\":2417:2438  requests[numRequests] */\n              0x00\n                /* \"Campaign.sol\":2426:2437  numRequests */\n              dup1\n              sload\n                /* \"Campaign.sol\":2417:2438  requests[numRequests] */\n              dup2\n              mstore\n              0x20\n              add\n              swap1\n              dup2\n              mstore\n              0x20\n              add\n              0x00\n              keccak256\n                /* \"Campaign.sol\":2388:2438  Request storage newRequest = requests[numRequests] */\n              swap1\n              pop\n                /* \"Campaign.sol\":2490:2501  numRequests */\n              0x00\n              dup1\n                /* \"Campaign.sol\":2490:2503  numRequests++ */\n              dup2\n              sload\n              dup1\n              swap3\n              swap2\n              swap1\n              tag_130\n              swap1\n              tag_131\n              jump\t// in\n            tag_130:\n              swap2\n              swap1\n              pop\n              sstore\n              pop\n                /* \"Campaign.sol\":2582:2593  description */\n              dup4\n                /* \"Campaign.sol\":2559:2569  newRequest */\n              dup2\n                /* \"Campaign.sol\":2559:2581  newRequest.description */\n              0x00\n              add\n                /* \"Campaign.sol\":2559:2593  newRequest.description=description */\n              swap1\n              dup2\n              tag_132\n              swap2\n              swap1\n              tag_133\n              jump\t// in\n            tag_132:\n              pop\n                /* \"Campaign.sol\":2621:2626  value */\n              dup3\n                /* \"Campaign.sol\":2604:2614  newRequest */\n              dup2\n                /* \"Campaign.sol\":2604:2620  newRequest.value */\n              0x01\n              add\n                /* \"Campaign.sol\":2604:2626  newRequest.value=value */\n              dup2\n              swap1\n              sstore\n              pop\n                /* \"Campaign.sol\":2658:2667  recipient */\n              dup2\n                /* \"Campaign.sol\":2637:2647  newRequest */\n              dup2\n                /* \"Campaign.sol\":2637:2657  newRequest.recipient */\n              0x02\n              add\n              0x00\n                /* \"Campaign.sol\":2637:2667  newRequest.recipient=recipient */\n              0x0100\n              exp\n              dup2\n              sload\n              dup2\n              0xffffffffffffffffffffffffffffffffffffffff\n              mul\n              not\n              and\n              swap1\n              dup4\n              0xffffffffffffffffffffffffffffffffffffffff\n              and\n              mul\n              or\n              swap1\n              sstore\n              pop\n                /* \"Campaign.sol\":2698:2703  false */\n              0x00\n                /* \"Campaign.sol\":2678:2688  newRequest */\n              dup2\n                /* \"Campaign.sol\":2678:2697  newRequest.complete */\n              0x02\n              add\n              0x14\n                /* \"Campaign.sol\":2678:2703  newRequest.complete=false */\n              0x0100\n              exp\n              dup2\n              sload\n              dup2\n              0xff\n              mul\n              not\n              and\n              swap1\n              dup4\n              iszero\n              iszero\n              mul\n              or\n              swap1\n              sstore\n              pop\n                /* \"Campaign.sol\":2739:2740  0 */\n              0x00\n                /* \"Campaign.sol\":2714:2724  newRequest */\n              dup2\n                /* \"Campaign.sol\":2714:2738  newRequest.approvalCount */\n              0x04\n              add\n                /* \"Campaign.sol\":2714:2740  newRequest.approvalCount=0 */\n              dup2\n              swap1\n              sstore\n              pop\n                /* \"Campaign.sol\":2193:2911  {... */\n              pop\n                /* \"Campaign.sol\":2085:2911  function createRequest( string memory description, uint value, address payable recipient) public restricted {... */\n              pop\n              pop\n              pop\n              jump\t// out\n                /* \"Campaign.sol\":908:939  uint public minimumContribution */\n            tag_69:\n              sload(0x03)\n              dup2\n              jump\t// out\n                /* \"Campaign.sol\":1007:1029  string public imageUrl */\n            tag_73:\n              0x06\n              dup1\n              sload\n              tag_134\n              swap1\n              tag_97\n              jump\t// in\n            tag_134:\n              dup1\n              0x1f\n              add\n              0x20\n              dup1\n              swap2\n              div\n              mul\n              0x20\n              add\n              mload(0x40)\n              swap1\n              dup2\n              add\n              0x40\n              mstore\n              dup1\n              swap3\n              swap2\n              swap1\n              dup2\n              dup2\n              mstore\n              0x20\n              add\n              dup3\n              dup1\n              sload\n              tag_135\n              swap1\n              tag_97\n              jump\t// in\n            tag_135:\n              dup1\n              iszero\n              tag_136\n              jumpi\n              dup1\n              0x1f\n              lt\n              tag_137\n              jumpi\n              0x0100\n              dup1\n              dup4\n              sload\n              div\n              mul\n              dup4\n              mstore\n              swap2\n              0x20\n              add\n              swap2\n              jump(tag_136)\n            tag_137:\n              dup3\n              add\n              swap2\n              swap1\n              0x00\n              mstore\n              keccak256(0x00, 0x20)\n              swap1\n            tag_138:\n              dup2\n              sload\n              dup2\n              mstore\n              swap1\n              0x01\n              add\n              swap1\n              0x20\n              add\n              dup1\n              dup4\n              gt\n              tag_138\n              jumpi\n              dup3\n              swap1\n              sub\n              0x1f\n              and\n              dup3\n              add\n              swap2\n            tag_136:\n              pop\n              pop\n              pop\n              pop\n              pop\n              dup2\n              jump\t// out\n                /* \"Campaign.sol\":1779:2031  function contribute() public payable{... */\n            tag_76:\n                /* \"Campaign.sol\":1842:1861  minimumContribution */\n              sload(0x03)\n                /* \"Campaign.sol\":1832:1841  msg.value */\n              callvalue\n                /* \"Campaign.sol\":1832:1861  msg.value>minimumContribution */\n              gt\n                /* \"Campaign.sol\":1824:1862  require(msg.value>minimumContribution) */\n              tag_140\n              jumpi\n              0x00\n              dup1\n              revert\n            tag_140:\n                /* \"Campaign.sol\":1876:1885  approvers */\n              0x07\n                /* \"Campaign.sol\":1876:1897  approvers[msg.sender] */\n              0x00\n                /* \"Campaign.sol\":1886:1896  msg.sender */\n              caller\n                /* \"Campaign.sol\":1876:1897  approvers[msg.sender] */\n              0xffffffffffffffffffffffffffffffffffffffff\n              and\n              0xffffffffffffffffffffffffffffffffffffffff\n              and\n              dup2\n              mstore\n              0x20\n              add\n              swap1\n              dup2\n              mstore\n              0x20\n              add\n              0x00\n              keccak256\n              0x00\n              swap1\n              sload\n              swap1\n              0x0100\n              exp\n              swap1\n              div\n              0xff\n              and\n                /* \"Campaign.sol\":1871:1926  if (!approvers[msg.sender]){... */\n              tag_141\n              jumpi\n                /* \"Campaign.sol\":1904:1918  approversCount */\n              0x08\n              0x00\n                /* \"Campaign.sol\":1904:1920  approversCount++ */\n              dup2\n              sload\n              dup1\n              swap3\n              swap2\n              swap1\n              tag_142\n              swap1\n              tag_131\n              jump\t// in\n            tag_142:\n              swap2\n              swap1\n              pop\n              sstore\n              pop\n                /* \"Campaign.sol\":1871:1926  if (!approvers[msg.sender]){... */\n            tag_141:\n                /* \"Campaign.sol\":2009:2013  true */\n              0x01\n                /* \"Campaign.sol\":1987:1996  approvers */\n              0x07\n                /* \"Campaign.sol\":1987:2008  approvers[msg.sender] */\n              0x00\n                /* \"Campaign.sol\":1997:2007  msg.sender */\n              caller\n                /* \"Campaign.sol\":1987:2008  approvers[msg.sender] */\n              0xffffffffffffffffffffffffffffffffffffffff\n              and\n              0xffffffffffffffffffffffffffffffffffffffff\n              and\n              dup2\n              mstore\n              0x20\n              add\n              swap1\n              dup2\n              mstore\n              0x20\n              add\n              0x00\n              keccak256\n              0x00\n                /* \"Campaign.sol\":1987:2013  approvers[msg.sender]=true */\n              0x0100\n              exp\n              dup2\n              sload\n              dup2\n              0xff\n              mul\n              not\n              and\n              swap1\n              dup4\n              iszero\n              iszero\n              mul\n              or\n              swap1\n              sstore\n              pop\n                /* \"Campaign.sol\":1779:2031  function contribute() public payable{... */\n              jump\t// out\n                /* \"Campaign.sol\":2919:3408  function approveRequest(uint index) public{... */\n            tag_80:\n                /* \"Campaign.sol\":3015:3038  Request storage request */\n              0x00\n                /* \"Campaign.sol\":3041:3049  requests */\n              0x01\n                /* \"Campaign.sol\":3041:3056  requests[index] */\n              0x00\n                /* \"Campaign.sol\":3050:3055  index */\n              dup4\n                /* \"Campaign.sol\":3041:3056  requests[index] */\n              dup2\n              mstore\n              0x20\n              add\n              swap1\n              dup2\n              mstore\n              0x20\n              add\n              0x00\n              keccak256\n                /* \"Campaign.sol\":3015:3056  Request storage request = requests[index] */\n              swap1\n              pop\n                /* \"Campaign.sol\":3131:3140  approvers */\n              0x07\n                /* \"Campaign.sol\":3131:3152  approvers[msg.sender] */\n              0x00\n                /* \"Campaign.sol\":3141:3151  msg.sender */\n              caller\n                /* \"Campaign.sol\":3131:3152  approvers[msg.sender] */\n              0xffffffffffffffffffffffffffffffffffffffff\n              and\n              0xffffffffffffffffffffffffffffffffffffffff\n              and\n              dup2\n              mstore\n              0x20\n              add\n              swap1\n              dup2\n              mstore\n              0x20\n              add\n              0x00\n              keccak256\n              0x00\n              swap1\n              sload\n              swap1\n              0x0100\n              exp\n              swap1\n              div\n              0xff\n              and\n                /* \"Campaign.sol\":3123:3153  require(approvers[msg.sender]) */\n              tag_144\n              jumpi\n              0x00\n              dup1\n              revert\n            tag_144:\n                /* \"Campaign.sol\":3219:3226  request */\n              dup1\n                /* \"Campaign.sol\":3219:3236  request.approvals */\n              0x03\n              add\n                /* \"Campaign.sol\":3219:3248  request.approvals[msg.sender] */\n              0x00\n                /* \"Campaign.sol\":3237:3247  msg.sender */\n              caller\n                /* \"Campaign.sol\":3219:3248  request.approvals[msg.sender] */\n              0xffffffffffffffffffffffffffffffffffffffff\n              and\n              0xffffffffffffffffffffffffffffffffffffffff\n              and\n              dup2\n              mstore\n              0x20\n              add\n              swap1\n              dup2\n              mstore\n              0x20\n              add\n              0x00\n              keccak256\n              0x00\n              swap1\n              sload\n              swap1\n              0x0100\n              exp\n              swap1\n              div\n              0xff\n              and\n                /* \"Campaign.sol\":3218:3248  !request.approvals[msg.sender] */\n              iszero\n                /* \"Campaign.sol\":3210:3249  require(!request.approvals[msg.sender]) */\n              tag_145\n              jumpi\n              0x00\n              dup1\n              revert\n            tag_145:\n                /* \"Campaign.sol\":3326:3330  true */\n              0x01\n                /* \"Campaign.sol\":3294:3301  request */\n              dup2\n                /* \"Campaign.sol\":3294:3311  request.approvals */\n              0x03\n              add\n                /* \"Campaign.sol\":3294:3323  request.approvals[msg.sender] */\n              0x00\n                /* \"Campaign.sol\":3312:3322  msg.sender */\n              caller\n                /* \"Campaign.sol\":3294:3323  request.approvals[msg.sender] */\n              0xffffffffffffffffffffffffffffffffffffffff\n              and\n              0xffffffffffffffffffffffffffffffffffffffff\n              and\n              dup2\n              mstore\n              0x20\n              add\n              swap1\n              dup2\n              mstore\n              0x20\n              add\n              0x00\n              keccak256\n              0x00\n                /* \"Campaign.sol\":3294:3330  request.approvals[msg.sender] = true */\n              0x0100\n              exp\n              dup2\n              sload\n              dup2\n              0xff\n              mul\n              not\n              and\n              swap1\n              dup4\n              iszero\n              iszero\n              mul\n              or\n              swap1\n              sstore\n              pop\n                /* \"Campaign.sol\":3377:3384  request */\n              dup1\n                /* \"Campaign.sol\":3377:3398  request.approvalCount */\n              0x04\n              add\n              0x00\n                /* \"Campaign.sol\":3377:3400  request.approvalCount++ */\n              dup2\n              sload\n              dup1\n              swap3\n              swap2\n              swap1\n              tag_146\n              swap1\n              tag_131\n              jump\t// in\n            tag_146:\n              swap2\n              swap1\n              pop\n              sstore\n              pop\n                /* \"Campaign.sol\":2961:3408  {... */\n              pop\n                /* \"Campaign.sol\":2919:3408  function approveRequest(uint index) public{... */\n              pop\n              jump\t// out\n                /* \"Campaign.sol\":975:1001  string public campaignDesc */\n            tag_83:\n              0x05\n              dup1\n              sload\n              tag_147\n              swap1\n              tag_97\n              jump\t// in\n            tag_147:\n              dup1\n              0x1f\n              add\n              0x20\n              dup1\n              swap2\n              div\n              mul\n              0x20\n              add\n              mload(0x40)\n              swap1\n              dup2\n              add\n              0x40\n              mstore\n              dup1\n              swap3\n              swap2\n              swap1\n              dup2\n              dup2\n              mstore\n              0x20\n              add\n              dup3\n              dup1\n              sload\n              tag_148\n              swap1\n              tag_97\n              jump\t// in\n            tag_148:\n              dup1\n              iszero\n              tag_149\n              jumpi\n              dup1\n              0x1f\n              lt\n              tag_150\n              jumpi\n              0x0100\n              dup1\n              dup4\n              sload\n              div\n              mul\n              dup4\n              mstore\n              swap2\n              0x20\n              add\n              swap2\n              jump(tag_149)\n            tag_150:\n              dup3\n              add\n              swap2\n              swap1\n              0x00\n              mstore\n              keccak256(0x00, 0x20)\n              swap1\n            tag_151:\n              dup2\n              sload\n              dup2\n              mstore\n              swap1\n              0x01\n              add\n              swap1\n              0x20\n              add\n              dup1\n              dup4\n              gt\n              tag_151\n              jumpi\n              dup3\n              swap1\n              sub\n              0x1f\n              and\n              dup3\n              add\n              swap2\n            tag_149:\n              pop\n              pop\n              pop\n              pop\n              pop\n              dup2\n              jump\t// out\n                /* \"#utility.yul\":7:82   */\n            tag_152:\n                /* \"#utility.yul\":40:46   */\n              0x00\n                /* \"#utility.yul\":73:75   */\n              0x40\n                /* \"#utility.yul\":67:76   */\n              mload\n                /* \"#utility.yul\":57:76   */\n              swap1\n              pop\n                /* \"#utility.yul\":7:82   */\n              swap1\n              jump\t// out\n                /* \"#utility.yul\":88:205   */\n            tag_153:\n                /* \"#utility.yul\":197:198   */\n              0x00\n                /* \"#utility.yul\":194:195   */\n              dup1\n                /* \"#utility.yul\":187:199   */\n              revert\n                /* \"#utility.yul\":211:328   */\n            tag_154:\n                /* \"#utility.yul\":320:321   */\n              0x00\n                /* \"#utility.yul\":317:318   */\n              dup1\n                /* \"#utility.yul\":310:322   */\n              revert\n                /* \"#utility.yul\":334:411   */\n            tag_155:\n                /* \"#utility.yul\":371:378   */\n              0x00\n                /* \"#utility.yul\":400:405   */\n              dup2\n                /* \"#utility.yul\":389:405   */\n              swap1\n              pop\n                /* \"#utility.yul\":334:411   */\n              swap2\n              swap1\n              pop\n              jump\t// out\n                /* \"#utility.yul\":417:539   */\n            tag_156:\n                /* \"#utility.yul\":490:514   */\n              tag_210\n                /* \"#utility.yul\":508:513   */\n              dup2\n                /* \"#utility.yul\":490:514   */\n              tag_155\n              jump\t// in\n            tag_210:\n                /* \"#utility.yul\":483:488   */\n              dup2\n                /* \"#utility.yul\":480:515   */\n              eq\n                /* \"#utility.yul\":470:533   */\n              tag_211\n              jumpi\n                /* \"#utility.yul\":529:530   */\n              0x00\n                /* \"#utility.yul\":526:527   */\n              dup1\n                /* \"#utility.yul\":519:531   */\n              revert\n                /* \"#utility.yul\":470:533   */\n            tag_211:\n                /* \"#utility.yul\":417:539   */\n              pop\n              jump\t// out\n                /* \"#utility.yul\":545:684   */\n            tag_157:\n                /* \"#utility.yul\":591:596   */\n              0x00\n                /* \"#utility.yul\":629:635   */\n              dup2\n                /* \"#utility.yul\":616:636   */\n              calldataload\n                /* \"#utility.yul\":607:636   */\n              swap1\n              pop\n                /* \"#utility.yul\":645:678   */\n              tag_213\n                /* \"#utility.yul\":672:677   */\n              dup2\n                /* \"#utility.yul\":645:678   */\n              tag_156\n              jump\t// in\n            tag_213:\n                /* \"#utility.yul\":545:684   */\n              swap3\n              swap2\n              pop\n              pop\n              jump\t// out\n                /* \"#utility.yul\":690:1019   */\n            tag_22:\n                /* \"#utility.yul\":749:755   */\n              0x00\n                /* \"#utility.yul\":798:800   */\n              0x20\n                /* \"#utility.yul\":786:795   */\n              dup3\n                /* \"#utility.yul\":777:784   */\n              dup5\n                /* \"#utility.yul\":773:796   */\n              sub\n                /* \"#utility.yul\":769:801   */\n              slt\n                /* \"#utility.yul\":766:885   */\n              iszero\n              tag_215\n              jumpi\n                /* \"#utility.yul\":804:883   */\n              tag_216\n              tag_153\n              jump\t// in\n            tag_216:\n                /* \"#utility.yul\":766:885   */\n            tag_215:\n                /* \"#utility.yul\":924:925   */\n              0x00\n                /* \"#utility.yul\":949:1002   */\n              tag_217\n                /* \"#utility.yul\":994:1001   */\n              dup5\n                /* \"#utility.yul\":985:991   */\n              dup3\n                /* \"#utility.yul\":974:983   */\n              dup6\n                /* \"#utility.yul\":970:992   */\n              add\n                /* \"#utility.yul\":949:1002   */\n              tag_157\n              jump\t// in\n            tag_217:\n                /* \"#utility.yul\":939:1002   */\n              swap2\n              pop\n                /* \"#utility.yul\":895:1012   */\n              pop\n                /* \"#utility.yul\":690:1019   */\n              swap3\n              swap2\n              pop\n              pop\n              jump\t// out\n                /* \"#utility.yul\":1025:1124   */\n            tag_158:\n                /* \"#utility.yul\":1077:1083   */\n              0x00\n                /* \"#utility.yul\":1111:1116   */\n              dup2\n                /* \"#utility.yul\":1105:1117   */\n              mload\n                /* \"#utility.yul\":1095:1117   */\n              swap1\n              pop\n                /* \"#utility.yul\":1025:1124   */\n              swap2\n              swap1\n              pop\n              jump\t// out\n                /* \"#utility.yul\":1130:1299   */\n            tag_159:\n                /* \"#utility.yul\":1214:1225   */\n              0x00\n                /* \"#utility.yul\":1248:1254   */\n              dup3\n                /* \"#utility.yul\":1243:1246   */\n              dup3\n                /* \"#utility.yul\":1236:1255   */\n              mstore\n                /* \"#utility.yul\":1288:1292   */\n              0x20\n                /* \"#utility.yul\":1283:1286   */\n              dup3\n                /* \"#utility.yul\":1279:1293   */\n              add\n                /* \"#utility.yul\":1264:1293   */\n              swap1\n              pop\n                /* \"#utility.yul\":1130:1299   */\n              swap3\n              swap2\n              pop\n              pop\n              jump\t// out\n                /* \"#utility.yul\":1305:1612   */\n            tag_160:\n                /* \"#utility.yul\":1373:1374   */\n              0x00\n                /* \"#utility.yul\":1383:1496   */\n            tag_221:\n                /* \"#utility.yul\":1397:1403   */\n              dup4\n                /* \"#utility.yul\":1394:1395   */\n              dup2\n                /* \"#utility.yul\":1391:1404   */\n              lt\n                /* \"#utility.yul\":1383:1496   */\n              iszero\n              tag_223\n              jumpi\n                /* \"#utility.yul\":1482:1483   */\n              dup1\n                /* \"#utility.yul\":1477:1480   */\n              dup3\n                /* \"#utility.yul\":1473:1484   */\n              add\n                /* \"#utility.yul\":1467:1485   */\n              mload\n                /* \"#utility.yul\":1463:1464   */\n              dup2\n                /* \"#utility.yul\":1458:1461   */\n              dup5\n                /* \"#utility.yul\":1454:1465   */\n              add\n                /* \"#utility.yul\":1447:1486   */\n              mstore\n                /* \"#utility.yul\":1419:1421   */\n              0x20\n                /* \"#utility.yul\":1416:1417   */\n              dup2\n                /* \"#utility.yul\":1412:1422   */\n              add\n                /* \"#utility.yul\":1407:1422   */\n              swap1\n              pop\n                /* \"#utility.yul\":1383:1496   */\n              jump(tag_221)\n            tag_223:\n                /* \"#utility.yul\":1514:1520   */\n              dup4\n                /* \"#utility.yul\":1511:1512   */\n              dup2\n                /* \"#utility.yul\":1508:1521   */\n              gt\n                /* \"#utility.yul\":1505:1606   */\n              iszero\n              tag_224\n              jumpi\n                /* \"#utility.yul\":1594:1595   */\n              0x00\n                /* \"#utility.yul\":1585:1591   */\n              dup5\n                /* \"#utility.yul\":1580:1583   */\n              dup5\n                /* \"#utility.yul\":1576:1592   */\n              add\n                /* \"#utility.yul\":1569:1596   */\n              mstore\n                /* \"#utility.yul\":1505:1606   */\n            tag_224:\n                /* \"#utility.yul\":1354:1612   */\n              pop\n                /* \"#utility.yul\":1305:1612   */\n              pop\n              pop\n              pop\n              jump\t// out\n                /* \"#utility.yul\":1618:1720   */\n            tag_161:\n                /* \"#utility.yul\":1659:1665   */\n              0x00\n                /* \"#utility.yul\":1710:1712   */\n              0x1f\n                /* \"#utility.yul\":1706:1713   */\n              not\n                /* \"#utility.yul\":1701:1703   */\n              0x1f\n                /* \"#utility.yul\":1694:1699   */\n              dup4\n                /* \"#utility.yul\":1690:1704   */\n              add\n                /* \"#utility.yul\":1686:1714   */\n              and\n                /* \"#utility.yul\":1676:1714   */\n              swap1\n              pop\n                /* \"#utility.yul\":1618:1720   */\n              swap2\n              swap1\n              pop\n              jump\t// out\n                /* \"#utility.yul\":1726:2090   */\n            tag_162:\n                /* \"#utility.yul\":1814:1817   */\n              0x00\n                /* \"#utility.yul\":1842:1881   */\n              tag_227\n                /* \"#utility.yul\":1875:1880   */\n              dup3\n                /* \"#utility.yul\":1842:1881   */\n              tag_158\n              jump\t// in\n            tag_227:\n                /* \"#utility.yul\":1897:1968   */\n              tag_228\n                /* \"#utility.yul\":1961:1967   */\n              dup2\n                /* \"#utility.yul\":1956:1959   */\n              dup6\n                /* \"#utility.yul\":1897:1968   */\n              tag_159\n              jump\t// in\n            tag_228:\n                /* \"#utility.yul\":1890:1968   */\n              swap4\n              pop\n                /* \"#utility.yul\":1977:2029   */\n              tag_229\n                /* \"#utility.yul\":2022:2028   */\n              dup2\n                /* \"#utility.yul\":2017:2020   */\n              dup6\n                /* \"#utility.yul\":2010:2014   */\n              0x20\n                /* \"#utility.yul\":2003:2008   */\n              dup7\n                /* \"#utility.yul\":1999:2015   */\n              add\n                /* \"#utility.yul\":1977:2029   */\n              tag_160\n              jump\t// in\n            tag_229:\n                /* \"#utility.yul\":2054:2083   */\n              tag_230\n                /* \"#utility.yul\":2076:2082   */\n              dup2\n                /* \"#utility.yul\":2054:2083   */\n              tag_161\n              jump\t// in\n            tag_230:\n                /* \"#utility.yul\":2049:2052   */\n              dup5\n                /* \"#utility.yul\":2045:2084   */\n              add\n                /* \"#utility.yul\":2038:2084   */\n              swap2\n              pop\n                /* \"#utility.yul\":1818:2090   */\n              pop\n                /* \"#utility.yul\":1726:2090   */\n              swap3\n              swap2\n              pop\n              pop\n              jump\t// out\n                /* \"#utility.yul\":2096:2409   */\n            tag_28:\n                /* \"#utility.yul\":2209:2213   */\n              0x00\n                /* \"#utility.yul\":2247:2249   */\n              0x20\n                /* \"#utility.yul\":2236:2245   */\n              dup3\n                /* \"#utility.yul\":2232:2250   */\n              add\n                /* \"#utility.yul\":2224:2250   */\n              swap1\n              pop\n                /* \"#utility.yul\":2296:2305   */\n              dup2\n                /* \"#utility.yul\":2290:2294   */\n              dup2\n                /* \"#utility.yul\":2286:2306   */\n              sub\n                /* \"#utility.yul\":2282:2283   */\n              0x00\n                /* \"#utility.yul\":2271:2280   */\n              dup4\n                /* \"#utility.yul\":2267:2284   */\n              add\n                /* \"#utility.yul\":2260:2307   */\n              mstore\n                /* \"#utility.yul\":2324:2402   */\n              tag_232\n                /* \"#utility.yul\":2397:2401   */\n              dup2\n                /* \"#utility.yul\":2388:2394   */\n              dup5\n                /* \"#utility.yul\":2324:2402   */\n              tag_162\n              jump\t// in\n            tag_232:\n                /* \"#utility.yul\":2316:2402   */\n              swap1\n              pop\n                /* \"#utility.yul\":2096:2409   */\n              swap3\n              swap2\n              pop\n              pop\n              jump\t// out\n                /* \"#utility.yul\":2415:2541   */\n            tag_163:\n                /* \"#utility.yul\":2452:2459   */\n              0x00\n                /* \"#utility.yul\":2492:2534   */\n              0xffffffffffffffffffffffffffffffffffffffff\n                /* \"#utility.yul\":2485:2490   */\n              dup3\n                /* \"#utility.yul\":2481:2535   */\n              and\n                /* \"#utility.yul\":2470:2535   */\n              swap1\n              pop\n                /* \"#utility.yul\":2415:2541   */\n              swap2\n              swap1\n              pop\n              jump\t// out\n                /* \"#utility.yul\":2547:2643   */\n            tag_164:\n                /* \"#utility.yul\":2584:2591   */\n              0x00\n                /* \"#utility.yul\":2613:2637   */\n              tag_235\n                /* \"#utility.yul\":2631:2636   */\n              dup3\n                /* \"#utility.yul\":2613:2637   */\n              tag_163\n              jump\t// in\n            tag_235:\n                /* \"#utility.yul\":2602:2637   */\n              swap1\n              pop\n                /* \"#utility.yul\":2547:2643   */\n              swap2\n              swap1\n              pop\n              jump\t// out\n                /* \"#utility.yul\":2649:2771   */\n            tag_165:\n                /* \"#utility.yul\":2722:2746   */\n              tag_237\n                /* \"#utility.yul\":2740:2745   */\n              dup2\n                /* \"#utility.yul\":2722:2746   */\n              tag_164\n              jump\t// in\n            tag_237:\n                /* \"#utility.yul\":2715:2720   */\n              dup2\n                /* \"#utility.yul\":2712:2747   */\n              eq\n                /* \"#utility.yul\":2702:2765   */\n              tag_238\n              jumpi\n                /* \"#utility.yul\":2761:2762   */\n              0x00\n                /* \"#utility.yul\":2758:2759   */\n              dup1\n                /* \"#utility.yul\":2751:2763   */\n              revert\n                /* \"#utility.yul\":2702:2765   */\n            tag_238:\n                /* \"#utility.yul\":2649:2771   */\n              pop\n              jump\t// out\n                /* \"#utility.yul\":2777:2916   */\n            tag_166:\n                /* \"#utility.yul\":2823:2828   */\n              0x00\n                /* \"#utility.yul\":2861:2867   */\n              dup2\n                /* \"#utility.yul\":2848:2868   */\n              calldataload\n                /* \"#utility.yul\":2839:2868   */\n              swap1\n              pop\n                /* \"#utility.yul\":2877:2910   */\n              tag_240\n                /* \"#utility.yul\":2904:2909   */\n              dup2\n                /* \"#utility.yul\":2877:2910   */\n              tag_165\n              jump\t// in\n            tag_240:\n                /* \"#utility.yul\":2777:2916   */\n              swap3\n              swap2\n              pop\n              pop\n              jump\t// out\n                /* \"#utility.yul\":2922:3251   */\n            tag_32:\n                /* \"#utility.yul\":2981:2987   */\n              0x00\n                /* \"#utility.yul\":3030:3032   */\n              0x20\n                /* \"#utility.yul\":3018:3027   */\n              dup3\n                /* \"#utility.yul\":3009:3016   */\n              dup5\n                /* \"#utility.yul\":3005:3028   */\n              sub\n                /* \"#utility.yul\":3001:3033   */\n              slt\n                /* \"#utility.yul\":2998:3117   */\n              iszero\n              tag_242\n              jumpi\n                /* \"#utility.yul\":3036:3115   */\n              tag_243\n              tag_153\n              jump\t// in\n            tag_243:\n                /* \"#utility.yul\":2998:3117   */\n            tag_242:\n                /* \"#utility.yul\":3156:3157   */\n              0x00\n                /* \"#utility.yul\":3181:3234   */\n              tag_244\n                /* \"#utility.yul\":3226:3233   */\n              dup5\n                /* \"#utility.yul\":3217:3223   */\n              dup3\n                /* \"#utility.yul\":3206:3215   */\n              dup6\n                /* \"#utility.yul\":3202:3224   */\n              add\n                /* \"#utility.yul\":3181:3234   */\n              tag_166\n              jump\t// in\n            tag_244:\n                /* \"#utility.yul\":3171:3234   */\n              swap2\n              pop\n                /* \"#utility.yul\":3127:3244   */\n              pop\n                /* \"#utility.yul\":2922:3251   */\n              swap3\n              swap2\n              pop\n              pop\n              jump\t// out\n                /* \"#utility.yul\":3257:3347   */\n            tag_167:\n                /* \"#utility.yul\":3291:3298   */\n              0x00\n                /* \"#utility.yul\":3334:3339   */\n              dup2\n                /* \"#utility.yul\":3327:3340   */\n              iszero\n                /* \"#utility.yul\":3320:3341   */\n              iszero\n                /* \"#utility.yul\":3309:3341   */\n              swap1\n              pop\n                /* \"#utility.yul\":3257:3347   */\n              swap2\n              swap1\n              pop\n              jump\t// out\n                /* \"#utility.yul\":3353:3462   */\n            tag_168:\n                /* \"#utility.yul\":3434:3455   */\n              tag_247\n                /* \"#utility.yul\":3449:3454   */\n              dup2\n                /* \"#utility.yul\":3434:3455   */\n              tag_167\n              jump\t// in\n            tag_247:\n                /* \"#utility.yul\":3429:3432   */\n              dup3\n                /* \"#utility.yul\":3422:3456   */\n              mstore\n                /* \"#utility.yul\":3353:3462   */\n              pop\n              pop\n              jump\t// out\n                /* \"#utility.yul\":3468:3678   */\n            tag_35:\n                /* \"#utility.yul\":3555:3559   */\n              0x00\n                /* \"#utility.yul\":3593:3595   */\n              0x20\n                /* \"#utility.yul\":3582:3591   */\n              dup3\n                /* \"#utility.yul\":3578:3596   */\n              add\n                /* \"#utility.yul\":3570:3596   */\n              swap1\n              pop\n                /* \"#utility.yul\":3606:3671   */\n              tag_249\n                /* \"#utility.yul\":3668:3669   */\n              0x00\n                /* \"#utility.yul\":3657:3666   */\n              dup4\n                /* \"#utility.yul\":3653:3670   */\n              add\n                /* \"#utility.yul\":3644:3650   */\n              dup5\n                /* \"#utility.yul\":3606:3671   */\n              tag_168\n              jump\t// in\n            tag_249:\n                /* \"#utility.yul\":3468:3678   */\n              swap3\n              swap2\n              pop\n              pop\n              jump\t// out\n                /* \"#utility.yul\":3684:3802   */\n            tag_169:\n                /* \"#utility.yul\":3771:3795   */\n              tag_251\n                /* \"#utility.yul\":3789:3794   */\n              dup2\n                /* \"#utility.yul\":3771:3795   */\n              tag_155\n              jump\t// in\n            tag_251:\n                /* \"#utility.yul\":3766:3769   */\n              dup3\n                /* \"#utility.yul\":3759:3796   */\n              mstore\n                /* \"#utility.yul\":3684:3802   */\n              pop\n              pop\n              jump\t// out\n                /* \"#utility.yul\":3808:3926   */\n            tag_170:\n                /* \"#utility.yul\":3895:3919   */\n              tag_253\n                /* \"#utility.yul\":3913:3918   */\n              dup2\n                /* \"#utility.yul\":3895:3919   */\n              tag_164\n              jump\t// in\n            tag_253:\n                /* \"#utility.yul\":3890:3893   */\n              dup3\n                /* \"#utility.yul\":3883:3920   */\n              mstore\n                /* \"#utility.yul\":3808:3926   */\n              pop\n              pop\n              jump\t// out\n                /* \"#utility.yul\":3932:5202   */\n            tag_40:\n                /* \"#utility.yul\":4281:4285   */\n              0x00\n                /* \"#utility.yul\":4319:4322   */\n              0x0100\n                /* \"#utility.yul\":4308:4317   */\n              dup3\n                /* \"#utility.yul\":4304:4323   */\n              add\n                /* \"#utility.yul\":4296:4323   */\n              swap1\n              pop\n                /* \"#utility.yul\":4333:4404   */\n              tag_255\n                /* \"#utility.yul\":4401:4402   */\n              0x00\n                /* \"#utility.yul\":4390:4399   */\n              dup4\n                /* \"#utility.yul\":4386:4403   */\n              add\n                /* \"#utility.yul\":4377:4383   */\n              dup12\n                /* \"#utility.yul\":4333:4404   */\n              tag_169\n              jump\t// in\n            tag_255:\n                /* \"#utility.yul\":4414:4486   */\n              tag_256\n                /* \"#utility.yul\":4482:4484   */\n              0x20\n                /* \"#utility.yul\":4471:4480   */\n              dup4\n                /* \"#utility.yul\":4467:4485   */\n              add\n                /* \"#utility.yul\":4458:4464   */\n              dup11\n                /* \"#utility.yul\":4414:4486   */\n              tag_169\n              jump\t// in\n            tag_256:\n                /* \"#utility.yul\":4496:4568   */\n              tag_257\n                /* \"#utility.yul\":4564:4566   */\n              0x40\n                /* \"#utility.yul\":4553:4562   */\n              dup4\n                /* \"#utility.yul\":4549:4567   */\n              add\n                /* \"#utility.yul\":4540:4546   */\n              dup10\n                /* \"#utility.yul\":4496:4568   */\n              tag_169\n              jump\t// in\n            tag_257:\n                /* \"#utility.yul\":4578:4650   */\n              tag_258\n                /* \"#utility.yul\":4646:4648   */\n              0x60\n                /* \"#utility.yul\":4635:4644   */\n              dup4\n                /* \"#utility.yul\":4631:4649   */\n              add\n                /* \"#utility.yul\":4622:4628   */\n              dup9\n                /* \"#utility.yul\":4578:4650   */\n              tag_169\n              jump\t// in\n            tag_258:\n                /* \"#utility.yul\":4660:4733   */\n              tag_259\n                /* \"#utility.yul\":4728:4731   */\n              0x80\n                /* \"#utility.yul\":4717:4726   */\n              dup4\n                /* \"#utility.yul\":4713:4732   */\n              add\n                /* \"#utility.yul\":4704:4710   */\n              dup8\n                /* \"#utility.yul\":4660:4733   */\n              tag_170\n              jump\t// in\n            tag_259:\n                /* \"#utility.yul\":4781:4790   */\n              dup2\n                /* \"#utility.yul\":4775:4779   */\n              dup2\n                /* \"#utility.yul\":4771:4791   */\n              sub\n                /* \"#utility.yul\":4765:4768   */\n              0xa0\n                /* \"#utility.yul\":4754:4763   */\n              dup4\n                /* \"#utility.yul\":4750:4769   */\n              add\n                /* \"#utility.yul\":4743:4792   */\n              mstore\n                /* \"#utility.yul\":4809:4887   */\n              tag_260\n                /* \"#utility.yul\":4882:4886   */\n              dup2\n                /* \"#utility.yul\":4873:4879   */\n              dup7\n                /* \"#utility.yul\":4809:4887   */\n              tag_162\n              jump\t// in\n            tag_260:\n                /* \"#utility.yul\":4801:4887   */\n              swap1\n              pop\n                /* \"#utility.yul\":4935:4944   */\n              dup2\n                /* \"#utility.yul\":4929:4933   */\n              dup2\n                /* \"#utility.yul\":4925:4945   */\n              sub\n                /* \"#utility.yul\":4919:4922   */\n              0xc0\n                /* \"#utility.yul\":4908:4917   */\n              dup4\n                /* \"#utility.yul\":4904:4923   */\n              add\n                /* \"#utility.yul\":4897:4946   */\n              mstore\n                /* \"#utility.yul\":4963:5041   */\n              tag_261\n                /* \"#utility.yul\":5036:5040   */\n              dup2\n                /* \"#utility.yul\":5027:5033   */\n              dup6\n                /* \"#utility.yul\":4963:5041   */\n              tag_162\n              jump\t// in\n            tag_261:\n                /* \"#utility.yul\":4955:5041   */\n              swap1\n              pop\n                /* \"#utility.yul\":5089:5098   */\n              dup2\n                /* \"#utility.yul\":5083:5087   */\n              dup2\n                /* \"#utility.yul\":5079:5099   */\n              sub\n                /* \"#utility.yul\":5073:5076   */\n              0xe0\n                /* \"#utility.yul\":5062:5071   */\n              dup4\n                /* \"#utility.yul\":5058:5077   */\n              add\n                /* \"#utility.yul\":5051:5100   */\n              mstore\n                /* \"#utility.yul\":5117:5195   */\n              tag_262\n                /* \"#utility.yul\":5190:5194   */\n              dup2\n                /* \"#utility.yul\":5181:5187   */\n              dup5\n                /* \"#utility.yul\":5117:5195   */\n              tag_162\n              jump\t// in\n            tag_262:\n                /* \"#utility.yul\":5109:5195   */\n              swap1\n              pop\n                /* \"#utility.yul\":3932:5202   */\n              swap10\n              swap9\n              pop\n              pop\n              pop\n              pop\n              pop\n              pop\n              pop\n              pop\n              pop\n              jump\t// out\n                /* \"#utility.yul\":5208:5430   */\n            tag_45:\n                /* \"#utility.yul\":5301:5305   */\n              0x00\n                /* \"#utility.yul\":5339:5341   */\n              0x20\n                /* \"#utility.yul\":5328:5337   */\n              dup3\n                /* \"#utility.yul\":5324:5342   */\n              add\n                /* \"#utility.yul\":5316:5342   */\n              swap1\n              pop\n                /* \"#utility.yul\":5352:5423   */\n              tag_264\n                /* \"#utility.yul\":5420:5421   */\n              0x00\n                /* \"#utility.yul\":5409:5418   */\n              dup4\n                /* \"#utility.yul\":5405:5422   */\n              add\n                /* \"#utility.yul\":5396:5402   */\n              dup5\n                /* \"#utility.yul\":5352:5423   */\n              tag_170\n              jump\t// in\n            tag_264:\n                /* \"#utility.yul\":5208:5430   */\n              swap3\n              swap2\n              pop\n              pop\n              jump\t// out\n                /* \"#utility.yul\":5436:5540   */\n            tag_171:\n                /* \"#utility.yul\":5481:5488   */\n              0x00\n                /* \"#utility.yul\":5510:5534   */\n              tag_266\n                /* \"#utility.yul\":5528:5533   */\n              dup3\n                /* \"#utility.yul\":5510:5534   */\n              tag_163\n              jump\t// in\n            tag_266:\n                /* \"#utility.yul\":5499:5534   */\n              swap1\n              pop\n                /* \"#utility.yul\":5436:5540   */\n              swap2\n              swap1\n              pop\n              jump\t// out\n                /* \"#utility.yul\":5546:5688   */\n            tag_172:\n                /* \"#utility.yul\":5649:5681   */\n              tag_268\n                /* \"#utility.yul\":5675:5680   */\n              dup2\n                /* \"#utility.yul\":5649:5681   */\n              tag_171\n              jump\t// in\n            tag_268:\n                /* \"#utility.yul\":5644:5647   */\n              dup3\n                /* \"#utility.yul\":5637:5682   */\n              mstore\n                /* \"#utility.yul\":5546:5688   */\n              pop\n              pop\n              jump\t// out\n                /* \"#utility.yul\":5694:6469   */\n            tag_56:\n                /* \"#utility.yul\":5929:5933   */\n              0x00\n                /* \"#utility.yul\":5967:5970   */\n              0xa0\n                /* \"#utility.yul\":5956:5965   */\n              dup3\n                /* \"#utility.yul\":5952:5971   */\n              add\n                /* \"#utility.yul\":5944:5971   */\n              swap1\n              pop\n                /* \"#utility.yul\":6017:6026   */\n              dup2\n                /* \"#utility.yul\":6011:6015   */\n              dup2\n                /* \"#utility.yul\":6007:6027   */\n              sub\n                /* \"#utility.yul\":6003:6004   */\n              0x00\n                /* \"#utility.yul\":5992:6001   */\n              dup4\n                /* \"#utility.yul\":5988:6005   */\n              add\n                /* \"#utility.yul\":5981:6028   */\n              mstore\n                /* \"#utility.yul\":6045:6123   */\n              tag_270\n                /* \"#utility.yul\":6118:6122   */\n              dup2\n                /* \"#utility.yul\":6109:6115   */\n              dup9\n                /* \"#utility.yul\":6045:6123   */\n              tag_162\n              jump\t// in\n            tag_270:\n                /* \"#utility.yul\":6037:6123   */\n              swap1\n              pop\n                /* \"#utility.yul\":6133:6205   */\n              tag_271\n                /* \"#utility.yul\":6201:6203   */\n              0x20\n                /* \"#utility.yul\":6190:6199   */\n              dup4\n                /* \"#utility.yul\":6186:6204   */\n              add\n                /* \"#utility.yul\":6177:6183   */\n              dup8\n                /* \"#utility.yul\":6133:6205   */\n              tag_169\n              jump\t// in\n            tag_271:\n                /* \"#utility.yul\":6215:6303   */\n              tag_272\n                /* \"#utility.yul\":6299:6301   */\n              0x40\n                /* \"#utility.yul\":6288:6297   */\n              dup4\n                /* \"#utility.yul\":6284:6302   */\n              add\n                /* \"#utility.yul\":6275:6281   */\n              dup7\n                /* \"#utility.yul\":6215:6303   */\n              tag_172\n              jump\t// in\n            tag_272:\n                /* \"#utility.yul\":6313:6379   */\n              tag_273\n                /* \"#utility.yul\":6375:6377   */\n              0x60\n                /* \"#utility.yul\":6364:6373   */\n              dup4\n                /* \"#utility.yul\":6360:6378   */\n              add\n                /* \"#utility.yul\":6351:6357   */\n              dup6\n                /* \"#utility.yul\":6313:6379   */\n              tag_168\n              jump\t// in\n            tag_273:\n                /* \"#utility.yul\":6389:6462   */\n              tag_274\n                /* \"#utility.yul\":6457:6460   */\n              0x80\n                /* \"#utility.yul\":6446:6455   */\n              dup4\n                /* \"#utility.yul\":6442:6461   */\n              add\n                /* \"#utility.yul\":6433:6439   */\n              dup5\n                /* \"#utility.yul\":6389:6462   */\n              tag_169\n              jump\t// in\n            tag_274:\n                /* \"#utility.yul\":5694:6469   */\n              swap7\n              swap6\n              pop\n              pop\n              pop\n              pop\n              pop\n              pop\n              jump\t// out\n                /* \"#utility.yul\":6475:6697   */\n            tag_61:\n                /* \"#utility.yul\":6568:6572   */\n              0x00\n                /* \"#utility.yul\":6606:6608   */\n              0x20\n                /* \"#utility.yul\":6595:6604   */\n              dup3\n                /* \"#utility.yul\":6591:6609   */\n              add\n                /* \"#utility.yul\":6583:6609   */\n              swap1\n              pop\n                /* \"#utility.yul\":6619:6690   */\n              tag_276\n                /* \"#utility.yul\":6687:6688   */\n              0x00\n                /* \"#utility.yul\":6676:6685   */\n              dup4\n                /* \"#utility.yul\":6672:6689   */\n              add\n                /* \"#utility.yul\":6663:6669   */\n              dup5\n                /* \"#utility.yul\":6619:6690   */\n              tag_169\n              jump\t// in\n            tag_276:\n                /* \"#utility.yul\":6475:6697   */\n              swap3\n              swap2\n              pop\n              pop\n              jump\t// out\n                /* \"#utility.yul\":6703:6820   */\n            tag_173:\n                /* \"#utility.yul\":6812:6813   */\n              0x00\n                /* \"#utility.yul\":6809:6810   */\n              dup1\n                /* \"#utility.yul\":6802:6814   */\n              revert\n                /* \"#utility.yul\":6826:6943   */\n            tag_174:\n                /* \"#utility.yul\":6935:6936   */\n              0x00\n                /* \"#utility.yul\":6932:6933   */\n              dup1\n                /* \"#utility.yul\":6925:6937   */\n              revert\n                /* \"#utility.yul\":6949:7129   */\n            tag_175:\n                /* \"#utility.yul\":6997:7074   */\n              0x4e487b7100000000000000000000000000000000000000000000000000000000\n                /* \"#utility.yul\":6994:6995   */\n              0x00\n                /* \"#utility.yul\":6987:7075   */\n              mstore\n                /* \"#utility.yul\":7094:7098   */\n              0x41\n                /* \"#utility.yul\":7091:7092   */\n              0x04\n                /* \"#utility.yul\":7084:7099   */\n              mstore\n                /* \"#utility.yul\":7118:7122   */\n              0x24\n                /* \"#utility.yul\":7115:7116   */\n              0x00\n                /* \"#utility.yul\":7108:7123   */\n              revert\n                /* \"#utility.yul\":7135:7416   */\n            tag_176:\n                /* \"#utility.yul\":7218:7245   */\n              tag_281\n                /* \"#utility.yul\":7240:7244   */\n              dup3\n                /* \"#utility.yul\":7218:7245   */\n              tag_161\n              jump\t// in\n            tag_281:\n                /* \"#utility.yul\":7210:7216   */\n              dup2\n                /* \"#utility.yul\":7206:7246   */\n              add\n                /* \"#utility.yul\":7348:7354   */\n              dup2\n                /* \"#utility.yul\":7336:7346   */\n              dup2\n                /* \"#utility.yul\":7333:7355   */\n              lt\n                /* \"#utility.yul\":7312:7330   */\n              0xffffffffffffffff\n                /* \"#utility.yul\":7300:7310   */\n              dup3\n                /* \"#utility.yul\":7297:7331   */\n              gt\n                /* \"#utility.yul\":7294:7356   */\n              or\n                /* \"#utility.yul\":7291:7379   */\n              iszero\n              tag_282\n              jumpi\n                /* \"#utility.yul\":7359:7377   */\n              tag_283\n              tag_175\n              jump\t// in\n            tag_283:\n                /* \"#utility.yul\":7291:7379   */\n            tag_282:\n                /* \"#utility.yul\":7399:7409   */\n              dup1\n                /* \"#utility.yul\":7395:7397   */\n              0x40\n                /* \"#utility.yul\":7388:7410   */\n              mstore\n                /* \"#utility.yul\":7178:7416   */\n              pop\n                /* \"#utility.yul\":7135:7416   */\n              pop\n              pop\n              jump\t// out\n                /* \"#utility.yul\":7422:7551   */\n            tag_177:\n                /* \"#utility.yul\":7456:7462   */\n              0x00\n                /* \"#utility.yul\":7483:7503   */\n              tag_285\n              tag_152\n              jump\t// in\n            tag_285:\n                /* \"#utility.yul\":7473:7503   */\n              swap1\n              pop\n                /* \"#utility.yul\":7512:7545   */\n              tag_286\n                /* \"#utility.yul\":7540:7544   */\n              dup3\n                /* \"#utility.yul\":7532:7538   */\n              dup3\n                /* \"#utility.yul\":7512:7545   */\n              tag_176\n              jump\t// in\n            tag_286:\n                /* \"#utility.yul\":7422:7551   */\n              swap2\n              swap1\n              pop\n              jump\t// out\n                /* \"#utility.yul\":7557:7865   */\n            tag_178:\n                /* \"#utility.yul\":7619:7623   */\n              0x00\n                /* \"#utility.yul\":7709:7727   */\n              0xffffffffffffffff\n                /* \"#utility.yul\":7701:7707   */\n              dup3\n                /* \"#utility.yul\":7698:7728   */\n              gt\n                /* \"#utility.yul\":7695:7751   */\n              iszero\n              tag_288\n              jumpi\n                /* \"#utility.yul\":7731:7749   */\n              tag_289\n              tag_175\n              jump\t// in\n            tag_289:\n                /* \"#utility.yul\":7695:7751   */\n            tag_288:\n                /* \"#utility.yul\":7769:7798   */\n              tag_290\n                /* \"#utility.yul\":7791:7797   */\n              dup3\n                /* \"#utility.yul\":7769:7798   */\n              tag_161\n              jump\t// in\n            tag_290:\n                /* \"#utility.yul\":7761:7798   */\n              swap1\n              pop\n                /* \"#utility.yul\":7853:7857   */\n              0x20\n                /* \"#utility.yul\":7847:7851   */\n              dup2\n                /* \"#utility.yul\":7843:7858   */\n              add\n                /* \"#utility.yul\":7835:7858   */\n              swap1\n              pop\n                /* \"#utility.yul\":7557:7865   */\n              swap2\n              swap1\n              pop\n              jump\t// out\n                /* \"#utility.yul\":7871:8025   */\n            tag_179:\n                /* \"#utility.yul\":7955:7961   */\n              dup3\n                /* \"#utility.yul\":7950:7953   */\n              dup2\n                /* \"#utility.yul\":7945:7948   */\n              dup4\n                /* \"#utility.yul\":7932:7962   */\n              calldatacopy\n                /* \"#utility.yul\":8017:8018   */\n              0x00\n                /* \"#utility.yul\":8008:8014   */\n              dup4\n                /* \"#utility.yul\":8003:8006   */\n              dup4\n                /* \"#utility.yul\":7999:8015   */\n              add\n                /* \"#utility.yul\":7992:8019   */\n              mstore\n                /* \"#utility.yul\":7871:8025   */\n              pop\n              pop\n              pop\n              jump\t// out\n                /* \"#utility.yul\":8031:8443   */\n            tag_180:\n                /* \"#utility.yul\":8109:8114   */\n              0x00\n                /* \"#utility.yul\":8134:8200   */\n              tag_293\n                /* \"#utility.yul\":8150:8199   */\n              tag_294\n                /* \"#utility.yul\":8192:8198   */\n              dup5\n                /* \"#utility.yul\":8150:8199   */\n              tag_178\n              jump\t// in\n            tag_294:\n                /* \"#utility.yul\":8134:8200   */\n              tag_177\n              jump\t// in\n            tag_293:\n                /* \"#utility.yul\":8125:8200   */\n              swap1\n              pop\n                /* \"#utility.yul\":8223:8229   */\n              dup3\n                /* \"#utility.yul\":8216:8221   */\n              dup2\n                /* \"#utility.yul\":8209:8230   */\n              mstore\n                /* \"#utility.yul\":8261:8265   */\n              0x20\n                /* \"#utility.yul\":8254:8259   */\n              dup2\n                /* \"#utility.yul\":8250:8266   */\n              add\n                /* \"#utility.yul\":8299:8302   */\n              dup5\n                /* \"#utility.yul\":8290:8296   */\n              dup5\n                /* \"#utility.yul\":8285:8288   */\n              dup5\n                /* \"#utility.yul\":8281:8297   */\n              add\n                /* \"#utility.yul\":8278:8303   */\n              gt\n                /* \"#utility.yul\":8275:8387   */\n              iszero\n              tag_295\n              jumpi\n                /* \"#utility.yul\":8306:8385   */\n              tag_296\n              tag_174\n              jump\t// in\n            tag_296:\n                /* \"#utility.yul\":8275:8387   */\n            tag_295:\n                /* \"#utility.yul\":8396:8437   */\n              tag_297\n                /* \"#utility.yul\":8430:8436   */\n              dup5\n                /* \"#utility.yul\":8425:8428   */\n              dup3\n                /* \"#utility.yul\":8420:8423   */\n              dup6\n                /* \"#utility.yul\":8396:8437   */\n              tag_179\n              jump\t// in\n            tag_297:\n                /* \"#utility.yul\":8115:8443   */\n              pop\n                /* \"#utility.yul\":8031:8443   */\n              swap4\n              swap3\n              pop\n              pop\n              pop\n              jump\t// out\n                /* \"#utility.yul\":8463:8803   */\n            tag_181:\n                /* \"#utility.yul\":8519:8524   */\n              0x00\n                /* \"#utility.yul\":8568:8571   */\n              dup3\n                /* \"#utility.yul\":8561:8565   */\n              0x1f\n                /* \"#utility.yul\":8553:8559   */\n              dup4\n                /* \"#utility.yul\":8549:8566   */\n              add\n                /* \"#utility.yul\":8545:8572   */\n              slt\n                /* \"#utility.yul\":8535:8657   */\n              tag_299\n              jumpi\n                /* \"#utility.yul\":8576:8655   */\n              tag_300\n              tag_173\n              jump\t// in\n            tag_300:\n                /* \"#utility.yul\":8535:8657   */\n            tag_299:\n                /* \"#utility.yul\":8693:8699   */\n              dup2\n                /* \"#utility.yul\":8680:8700   */\n              calldataload\n                /* \"#utility.yul\":8718:8797   */\n              tag_301\n                /* \"#utility.yul\":8793:8796   */\n              dup5\n                /* \"#utility.yul\":8785:8791   */\n              dup3\n                /* \"#utility.yul\":8778:8782   */\n              0x20\n                /* \"#utility.yul\":8770:8776   */\n              dup7\n                /* \"#utility.yul\":8766:8783   */\n              add\n                /* \"#utility.yul\":8718:8797   */\n              tag_180\n              jump\t// in\n            tag_301:\n                /* \"#utility.yul\":8709:8797   */\n              swap2\n              pop\n                /* \"#utility.yul\":8525:8803   */\n              pop\n                /* \"#utility.yul\":8463:8803   */\n              swap3\n              swap2\n              pop\n              pop\n              jump\t// out\n                /* \"#utility.yul\":8809:8947   */\n            tag_182:\n                /* \"#utility.yul\":8890:8922   */\n              tag_303\n                /* \"#utility.yul\":8916:8921   */\n              dup2\n                /* \"#utility.yul\":8890:8922   */\n              tag_171\n              jump\t// in\n            tag_303:\n                /* \"#utility.yul\":8883:8888   */\n              dup2\n                /* \"#utility.yul\":8880:8923   */\n              eq\n                /* \"#utility.yul\":8870:8941   */\n              tag_304\n              jumpi\n                /* \"#utility.yul\":8937:8938   */\n              0x00\n                /* \"#utility.yul\":8934:8935   */\n              dup1\n                /* \"#utility.yul\":8927:8939   */\n              revert\n                /* \"#utility.yul\":8870:8941   */\n            tag_304:\n                /* \"#utility.yul\":8809:8947   */\n              pop\n              jump\t// out\n                /* \"#utility.yul\":8953:9108   */\n            tag_183:\n                /* \"#utility.yul\":9007:9012   */\n              0x00\n                /* \"#utility.yul\":9045:9051   */\n              dup2\n                /* \"#utility.yul\":9032:9052   */\n              calldataload\n                /* \"#utility.yul\":9023:9052   */\n              swap1\n              pop\n                /* \"#utility.yul\":9061:9102   */\n              tag_306\n                /* \"#utility.yul\":9096:9101   */\n              dup2\n                /* \"#utility.yul\":9061:9102   */\n              tag_182\n              jump\t// in\n            tag_306:\n                /* \"#utility.yul\":8953:9108   */\n              swap3\n              swap2\n              pop\n              pop\n              jump\t// out\n                /* \"#utility.yul\":9114:9929   */\n            tag_65:\n                /* \"#utility.yul\":9209:9215   */\n              0x00\n                /* \"#utility.yul\":9217:9223   */\n              dup1\n                /* \"#utility.yul\":9225:9231   */\n              0x00\n                /* \"#utility.yul\":9274:9276   */\n              0x60\n                /* \"#utility.yul\":9262:9271   */\n              dup5\n                /* \"#utility.yul\":9253:9260   */\n              dup7\n                /* \"#utility.yul\":9249:9272   */\n              sub\n                /* \"#utility.yul\":9245:9277   */\n              slt\n                /* \"#utility.yul\":9242:9361   */\n              iszero\n              tag_308\n              jumpi\n                /* \"#utility.yul\":9280:9359   */\n              tag_309\n              tag_153\n              jump\t// in\n            tag_309:\n                /* \"#utility.yul\":9242:9361   */\n            tag_308:\n                /* \"#utility.yul\":9428:9429   */\n              0x00\n                /* \"#utility.yul\":9417:9426   */\n              dup5\n                /* \"#utility.yul\":9413:9430   */\n              add\n                /* \"#utility.yul\":9400:9431   */\n              calldataload\n                /* \"#utility.yul\":9458:9476   */\n              0xffffffffffffffff\n                /* \"#utility.yul\":9450:9456   */\n              dup2\n                /* \"#utility.yul\":9447:9477   */\n              gt\n                /* \"#utility.yul\":9444:9561   */\n              iszero\n              tag_310\n              jumpi\n                /* \"#utility.yul\":9480:9559   */\n              tag_311\n              tag_154\n              jump\t// in\n            tag_311:\n                /* \"#utility.yul\":9444:9561   */\n            tag_310:\n                /* \"#utility.yul\":9585:9648   */\n              tag_312\n                /* \"#utility.yul\":9640:9647   */\n              dup7\n                /* \"#utility.yul\":9631:9637   */\n              dup3\n                /* \"#utility.yul\":9620:9629   */\n              dup8\n                /* \"#utility.yul\":9616:9638   */\n              add\n                /* \"#utility.yul\":9585:9648   */\n              tag_181\n              jump\t// in\n            tag_312:\n                /* \"#utility.yul\":9575:9648   */\n              swap4\n              pop\n                /* \"#utility.yul\":9371:9658   */\n              pop\n                /* \"#utility.yul\":9697:9699   */\n              0x20\n                /* \"#utility.yul\":9723:9776   */\n              tag_313\n                /* \"#utility.yul\":9768:9775   */\n              dup7\n                /* \"#utility.yul\":9759:9765   */\n              dup3\n                /* \"#utility.yul\":9748:9757   */\n              dup8\n                /* \"#utility.yul\":9744:9766   */\n              add\n                /* \"#utility.yul\":9723:9776   */\n              tag_157\n              jump\t// in\n            tag_313:\n                /* \"#utility.yul\":9713:9776   */\n              swap3\n              pop\n                /* \"#utility.yul\":9668:9786   */\n              pop\n                /* \"#utility.yul\":9825:9827   */\n              0x40\n                /* \"#utility.yul\":9851:9912   */\n              tag_314\n                /* \"#utility.yul\":9904:9911   */\n              dup7\n                /* \"#utility.yul\":9895:9901   */\n              dup3\n                /* \"#utility.yul\":9884:9893   */\n              dup8\n                /* \"#utility.yul\":9880:9902   */\n              add\n                /* \"#utility.yul\":9851:9912   */\n              tag_183\n              jump\t// in\n            tag_314:\n                /* \"#utility.yul\":9841:9912   */\n              swap2\n              pop\n                /* \"#utility.yul\":9796:9922   */\n              pop\n                /* \"#utility.yul\":9114:9929   */\n              swap3\n              pop\n              swap3\n              pop\n              swap3\n              jump\t// out\n                /* \"#utility.yul\":9935:10108   */\n            tag_184:\n                /* \"#utility.yul\":10075:10100   */\n              0x596f7520617265206e6f7420617574686f72697a656421000000000000000000\n                /* \"#utility.yul\":10071:10072   */\n              0x00\n                /* \"#utility.yul\":10063:10069   */\n              dup3\n                /* \"#utility.yul\":10059:10073   */\n              add\n                /* \"#utility.yul\":10052:10101   */\n              mstore\n                /* \"#utility.yul\":9935:10108   */\n              pop\n              jump\t// out\n                /* \"#utility.yul\":10114:10480   */\n            tag_185:\n                /* \"#utility.yul\":10256:10259   */\n              0x00\n                /* \"#utility.yul\":10277:10344   */\n              tag_317\n                /* \"#utility.yul\":10341:10343   */\n              0x17\n                /* \"#utility.yul\":10336:10339   */\n              dup4\n                /* \"#utility.yul\":10277:10344   */\n              tag_159\n              jump\t// in\n            tag_317:\n                /* \"#utility.yul\":10270:10344   */\n              swap2\n              pop\n                /* \"#utility.yul\":10353:10446   */\n              tag_318\n                /* \"#utility.yul\":10442:10445   */\n              dup3\n                /* \"#utility.yul\":10353:10446   */\n              tag_184\n              jump\t// in\n            tag_318:\n                /* \"#utility.yul\":10471:10473   */\n              0x20\n                /* \"#utility.yul\":10466:10469   */\n              dup3\n                /* \"#utility.yul\":10462:10474   */\n              add\n                /* \"#utility.yul\":10455:10474   */\n              swap1\n              pop\n                /* \"#utility.yul\":10114:10480   */\n              swap2\n              swap1\n              pop\n              jump\t// out\n                /* \"#utility.yul\":10486:10905   */\n            tag_88:\n                /* \"#utility.yul\":10652:10656   */\n              0x00\n                /* \"#utility.yul\":10690:10692   */\n              0x20\n                /* \"#utility.yul\":10679:10688   */\n              dup3\n                /* \"#utility.yul\":10675:10693   */\n              add\n                /* \"#utility.yul\":10667:10693   */\n              swap1\n              pop\n                /* \"#utility.yul\":10739:10748   */\n              dup2\n                /* \"#utility.yul\":10733:10737   */\n              dup2\n                /* \"#utility.yul\":10729:10749   */\n              sub\n                /* \"#utility.yul\":10725:10726   */\n              0x00\n                /* \"#utility.yul\":10714:10723   */\n              dup4\n                /* \"#utility.yul\":10710:10727   */\n              add\n                /* \"#utility.yul\":10703:10750   */\n              mstore\n                /* \"#utility.yul\":10767:10898   */\n              tag_320\n                /* \"#utility.yul\":10893:10897   */\n              dup2\n                /* \"#utility.yul\":10767:10898   */\n              tag_185\n              jump\t// in\n            tag_320:\n                /* \"#utility.yul\":10759:10898   */\n              swap1\n              pop\n                /* \"#utility.yul\":10486:10905   */\n              swap2\n              swap1\n              pop\n              jump\t// out\n                /* \"#utility.yul\":10911:11091   */\n            tag_186:\n                /* \"#utility.yul\":10959:11036   */\n              0x4e487b7100000000000000000000000000000000000000000000000000000000\n                /* \"#utility.yul\":10956:10957   */\n              0x00\n                /* \"#utility.yul\":10949:11037   */\n              mstore\n                /* \"#utility.yul\":11056:11060   */\n              0x12\n                /* \"#utility.yul\":11053:11054   */\n              0x04\n                /* \"#utility.yul\":11046:11061   */\n              mstore\n                /* \"#utility.yul\":11080:11084   */\n              0x24\n                /* \"#utility.yul\":11077:11078   */\n              0x00\n                /* \"#utility.yul\":11070:11085   */\n              revert\n                /* \"#utility.yul\":11097:11277   */\n            tag_187:\n                /* \"#utility.yul\":11145:11222   */\n              0x4e487b7100000000000000000000000000000000000000000000000000000000\n                /* \"#utility.yul\":11142:11143   */\n              0x00\n                /* \"#utility.yul\":11135:11223   */\n              mstore\n                /* \"#utility.yul\":11242:11246   */\n              0x11\n                /* \"#utility.yul\":11239:11240   */\n              0x04\n                /* \"#utility.yul\":11232:11247   */\n              mstore\n                /* \"#utility.yul\":11266:11270   */\n              0x24\n                /* \"#utility.yul\":11263:11264   */\n              0x00\n                /* \"#utility.yul\":11256:11271   */\n              revert\n                /* \"#utility.yul\":11283:11468   */\n            tag_92:\n                /* \"#utility.yul\":11323:11324   */\n              0x00\n                /* \"#utility.yul\":11340:11360   */\n              tag_324\n                /* \"#utility.yul\":11358:11359   */\n              dup3\n                /* \"#utility.yul\":11340:11360   */\n              tag_155\n              jump\t// in\n            tag_324:\n                /* \"#utility.yul\":11335:11360   */\n              swap2\n              pop\n                /* \"#utility.yul\":11374:11394   */\n              tag_325\n                /* \"#utility.yul\":11392:11393   */\n              dup4\n                /* \"#utility.yul\":11374:11394   */\n              tag_155\n              jump\t// in\n            tag_325:\n                /* \"#utility.yul\":11369:11394   */\n              swap3\n              pop\n                /* \"#utility.yul\":11413:11414   */\n              dup3\n                /* \"#utility.yul\":11403:11438   */\n              tag_326\n              jumpi\n                /* \"#utility.yul\":11418:11436   */\n              tag_327\n              tag_186\n              jump\t// in\n            tag_327:\n                /* \"#utility.yul\":11403:11438   */\n            tag_326:\n                /* \"#utility.yul\":11460:11461   */\n              dup3\n                /* \"#utility.yul\":11457:11458   */\n              dup3\n                /* \"#utility.yul\":11453:11462   */\n              div\n                /* \"#utility.yul\":11448:11462   */\n              swap1\n              pop\n                /* \"#utility.yul\":11283:11468   */\n              swap3\n              swap2\n              pop\n              pop\n              jump\t// out\n                /* \"#utility.yul\":11474:11654   */\n            tag_188:\n                /* \"#utility.yul\":11522:11599   */\n              0x4e487b7100000000000000000000000000000000000000000000000000000000\n                /* \"#utility.yul\":11519:11520   */\n              0x00\n                /* \"#utility.yul\":11512:11600   */\n              mstore\n                /* \"#utility.yul\":11619:11623   */\n              0x22\n                /* \"#utility.yul\":11616:11617   */\n              0x04\n                /* \"#utility.yul\":11609:11624   */\n              mstore\n                /* \"#utility.yul\":11643:11647   */\n              0x24\n                /* \"#utility.yul\":11640:11641   */\n              0x00\n                /* \"#utility.yul\":11633:11648   */\n              revert\n                /* \"#utility.yul\":11660:11980   */\n            tag_97:\n                /* \"#utility.yul\":11704:11710   */\n              0x00\n                /* \"#utility.yul\":11741:11742   */\n              0x02\n                /* \"#utility.yul\":11735:11739   */\n              dup3\n                /* \"#utility.yul\":11731:11743   */\n              div\n                /* \"#utility.yul\":11721:11743   */\n              swap1\n              pop\n                /* \"#utility.yul\":11788:11789   */\n              0x01\n                /* \"#utility.yul\":11782:11786   */\n              dup3\n                /* \"#utility.yul\":11778:11790   */\n              and\n                /* \"#utility.yul\":11809:11827   */\n              dup1\n                /* \"#utility.yul\":11799:11880   */\n              tag_330\n              jumpi\n                /* \"#utility.yul\":11865:11869   */\n              0x7f\n                /* \"#utility.yul\":11857:11863   */\n              dup3\n                /* \"#utility.yul\":11853:11870   */\n              and\n                /* \"#utility.yul\":11843:11870   */\n              swap2\n              pop\n                /* \"#utility.yul\":11799:11880   */\n            tag_330:\n                /* \"#utility.yul\":11927:11929   */\n              0x20\n                /* \"#utility.yul\":11919:11925   */\n              dup3\n                /* \"#utility.yul\":11916:11930   */\n              lt\n                /* \"#utility.yul\":11896:11914   */\n              dup2\n                /* \"#utility.yul\":11893:11931   */\n              sub\n                /* \"#utility.yul\":11890:11974   */\n              tag_331\n              jumpi\n                /* \"#utility.yul\":11946:11964   */\n              tag_332\n              tag_188\n              jump\t// in\n            tag_332:\n                /* \"#utility.yul\":11890:11974   */\n            tag_331:\n                /* \"#utility.yul\":11711:11980   */\n              pop\n                /* \"#utility.yul\":11660:11980   */\n              swap2\n              swap1\n              pop\n              jump\t// out\n                /* \"#utility.yul\":11986:12219   */\n            tag_131:\n                /* \"#utility.yul\":12025:12028   */\n              0x00\n                /* \"#utility.yul\":12048:12072   */\n              tag_334\n                /* \"#utility.yul\":12066:12071   */\n              dup3\n                /* \"#utility.yul\":12048:12072   */\n              tag_155\n              jump\t// in\n            tag_334:\n                /* \"#utility.yul\":12039:12072   */\n              swap2\n              pop\n                /* \"#utility.yul\":12094:12160   */\n              0xffffffffffffffffffffffffffffffffffffffffffffffffffffffffffffffff\n                /* \"#utility.yul\":12087:12092   */\n              dup3\n                /* \"#utility.yul\":12084:12161   */\n              sub\n                /* \"#utility.yul\":12081:12184   */\n              tag_335\n              jumpi\n                /* \"#utility.yul\":12164:12182   */\n              tag_336\n              tag_187\n              jump\t// in\n            tag_336:\n                /* \"#utility.yul\":12081:12184   */\n            tag_335:\n                /* \"#utility.yul\":12211:12212   */\n              0x01\n                /* \"#utility.yul\":12204:12209   */\n              dup3\n                /* \"#utility.yul\":12200:12213   */\n              add\n                /* \"#utility.yul\":12193:12213   */\n              swap1\n              pop\n                /* \"#utility.yul\":11986:12219   */\n              swap2\n              swap1\n              pop\n              jump\t// out\n                /* \"#utility.yul\":12225:12366   */\n            tag_189:\n                /* \"#utility.yul\":12274:12278   */\n              0x00\n                /* \"#utility.yul\":12297:12300   */\n              dup2\n                /* \"#utility.yul\":12289:12300   */\n              swap1\n              pop\n                /* \"#utility.yul\":12320:12323   */\n              dup2\n                /* \"#utility.yul\":12317:12318   */\n              0x00\n                /* \"#utility.yul\":12310:12324   */\n              mstore\n                /* \"#utility.yul\":12354:12358   */\n              0x20\n                /* \"#utility.yul\":12351:12352   */\n              0x00\n                /* \"#utility.yul\":12341:12359   */\n              keccak256\n                /* \"#utility.yul\":12333:12359   */\n              swap1\n              pop\n                /* \"#utility.yul\":12225:12366   */\n              swap2\n              swap1\n              pop\n              jump\t// out\n                /* \"#utility.yul\":12372:12465   */\n            tag_190:\n                /* \"#utility.yul\":12409:12415   */\n              0x00\n                /* \"#utility.yul\":12456:12458   */\n              0x20\n                /* \"#utility.yul\":12451:12453   */\n              0x1f\n                /* \"#utility.yul\":12444:12449   */\n              dup4\n                /* \"#utility.yul\":12440:12454   */\n              add\n                /* \"#utility.yul\":12436:12459   */\n              div\n                /* \"#utility.yul\":12426:12459   */\n              swap1\n              pop\n                /* \"#utility.yul\":12372:12465   */\n              swap2\n              swap1\n              pop\n              jump\t// out\n                /* \"#utility.yul\":12471:12578   */\n            tag_191:\n                /* \"#utility.yul\":12515:12523   */\n              0x00\n                /* \"#utility.yul\":12565:12570   */\n              dup3\n                /* \"#utility.yul\":12559:12563   */\n              dup3\n                /* \"#utility.yul\":12555:12571   */\n              shl\n                /* \"#utility.yul\":12534:12571   */\n              swap1\n              pop\n                /* \"#utility.yul\":12471:12578   */\n              swap3\n              swap2\n              pop\n              pop\n              jump\t// out\n                /* \"#utility.yul\":12584:12977   */\n            tag_192:\n                /* \"#utility.yul\":12653:12659   */\n              0x00\n                /* \"#utility.yul\":12703:12704   */\n              0x08\n                /* \"#utility.yul\":12691:12701   */\n              dup4\n                /* \"#utility.yul\":12687:12705   */\n              mul\n                /* \"#utility.yul\":12726:12823   */\n              tag_341\n                /* \"#utility.yul\":12756:12822   */\n              0xffffffffffffffffffffffffffffffffffffffffffffffffffffffffffffffff\n                /* \"#utility.yul\":12745:12754   */\n              dup3\n                /* \"#utility.yul\":12726:12823   */\n              tag_191\n              jump\t// in\n            tag_341:\n                /* \"#utility.yul\":12844:12883   */\n              tag_342\n                /* \"#utility.yul\":12874:12882   */\n              dup7\n                /* \"#utility.yul\":12863:12872   */\n              dup4\n                /* \"#utility.yul\":12844:12883   */\n              tag_191\n              jump\t// in\n            tag_342:\n                /* \"#utility.yul\":12832:12883   */\n              swap6\n              pop\n                /* \"#utility.yul\":12916:12920   */\n              dup1\n                /* \"#utility.yul\":12912:12921   */\n              not\n                /* \"#utility.yul\":12905:12910   */\n              dup5\n                /* \"#utility.yul\":12901:12922   */\n              and\n                /* \"#utility.yul\":12892:12922   */\n              swap4\n              pop\n                /* \"#utility.yul\":12965:12969   */\n              dup1\n                /* \"#utility.yul\":12955:12963   */\n              dup7\n                /* \"#utility.yul\":12951:12970   */\n              and\n                /* \"#utility.yul\":12944:12949   */\n              dup5\n                /* \"#utility.yul\":12941:12971   */\n              or\n                /* \"#utility.yul\":12931:12971   */\n              swap3\n              pop\n                /* \"#utility.yul\":12660:12977   */\n              pop\n              pop\n                /* \"#utility.yul\":12584:12977   */\n              swap4\n              swap3\n              pop\n              pop\n              pop\n              jump\t// out\n                /* \"#utility.yul\":12983:13043   */\n            tag_193:\n                /* \"#utility.yul\":13011:13014   */\n              0x00\n                /* \"#utility.yul\":13032:13037   */\n              dup2\n                /* \"#utility.yul\":13025:13037   */\n              swap1\n              pop\n                /* \"#utility.yul\":12983:13043   */\n              swap2\n              swap1\n              pop\n              jump\t// out\n                /* \"#utility.yul\":13049:13191   */\n            tag_194:\n                /* \"#utility.yul\":13099:13108   */\n              0x00\n                /* \"#utility.yul\":13132:13185   */\n              tag_345\n                /* \"#utility.yul\":13150:13184   */\n              tag_346\n                /* \"#utility.yul\":13159:13183   */\n              tag_347\n                /* \"#utility.yul\":13177:13182   */\n              dup5\n                /* \"#utility.yul\":13159:13183   */\n              tag_155\n              jump\t// in\n            tag_347:\n                /* \"#utility.yul\":13150:13184   */\n              tag_193\n              jump\t// in\n            tag_346:\n                /* \"#utility.yul\":13132:13185   */\n              tag_155\n              jump\t// in\n            tag_345:\n                /* \"#utility.yul\":13119:13185   */\n              swap1\n              pop\n                /* \"#utility.yul\":13049:13191   */\n              swap2\n              swap1\n              pop\n              jump\t// out\n                /* \"#utility.yul\":13197:13272   */\n            tag_195:\n                /* \"#utility.yul\":13240:13243   */\n              0x00\n                /* \"#utility.yul\":13261:13266   */\n              dup2\n                /* \"#utility.yul\":13254:13266   */\n              swap1\n              pop\n                /* \"#utility.yul\":13197:13272   */\n              swap2\n              swap1\n              pop\n              jump\t// out\n                /* \"#utility.yul\":13278:13547   */\n            tag_196:\n                /* \"#utility.yul\":13388:13427   */\n              tag_350\n                /* \"#utility.yul\":13419:13426   */\n              dup4\n                /* \"#utility.yul\":13388:13427   */\n              tag_194\n              jump\t// in\n            tag_350:\n                /* \"#utility.yul\":13449:13540   */\n              tag_351\n                /* \"#utility.yul\":13498:13539   */\n              tag_352\n                /* \"#utility.yul\":13522:13538   */\n              dup3\n                /* \"#utility.yul\":13498:13539   */\n              tag_195\n              jump\t// in\n            tag_352:\n                /* \"#utility.yul\":13490:13496   */\n              dup5\n                /* \"#utility.yul\":13483:13487   */\n              dup5\n                /* \"#utility.yul\":13477:13488   */\n              sload\n                /* \"#utility.yul\":13449:13540   */\n              tag_192\n              jump\t// in\n            tag_351:\n                /* \"#utility.yul\":13443:13447   */\n              dup3\n                /* \"#utility.yul\":13436:13541   */\n              sstore\n                /* \"#utility.yul\":13354:13547   */\n              pop\n                /* \"#utility.yul\":13278:13547   */\n              pop\n              pop\n              pop\n              jump\t// out\n                /* \"#utility.yul\":13553:13626   */\n            tag_197:\n                /* \"#utility.yul\":13598:13601   */\n              0x00\n                /* \"#utility.yul\":13553:13626   */\n              swap1\n              jump\t// out\n                /* \"#utility.yul\":13632:13821   */\n            tag_198:\n                /* \"#utility.yul\":13709:13741   */\n              tag_355\n              tag_197\n              jump\t// in\n            tag_355:\n                /* \"#utility.yul\":13750:13815   */\n              tag_356\n                /* \"#utility.yul\":13808:13814   */\n              dup2\n                /* \"#utility.yul\":13800:13806   */\n              dup5\n                /* \"#utility.yul\":13794:13798   */\n              dup5\n                /* \"#utility.yul\":13750:13815   */\n              tag_196\n              jump\t// in\n            tag_356:\n                /* \"#utility.yul\":13685:13821   */\n              pop\n                /* \"#utility.yul\":13632:13821   */\n              pop\n              pop\n              jump\t// out\n                /* \"#utility.yul\":13827:14013   */\n            tag_199:\n                /* \"#utility.yul\":13887:14007   */\n            tag_358:\n                /* \"#utility.yul\":13904:13907   */\n              dup2\n                /* \"#utility.yul\":13897:13902   */\n              dup2\n                /* \"#utility.yul\":13894:13908   */\n              lt\n                /* \"#utility.yul\":13887:14007   */\n              iszero\n              tag_360\n              jumpi\n                /* \"#utility.yul\":13958:13997   */\n              tag_361\n                /* \"#utility.yul\":13995:13996   */\n              0x00\n                /* \"#utility.yul\":13988:13993   */\n              dup3\n                /* \"#utility.yul\":13958:13997   */\n              tag_198\n              jump\t// in\n            tag_361:\n                /* \"#utility.yul\":13931:13932   */\n              0x01\n                /* \"#utility.yul\":13924:13929   */\n              dup2\n                /* \"#utility.yul\":13920:13933   */\n              add\n                /* \"#utility.yul\":13911:13933   */\n              swap1\n              pop\n                /* \"#utility.yul\":13887:14007   */\n              jump(tag_358)\n            tag_360:\n                /* \"#utility.yul\":13827:14013   */\n              pop\n              pop\n              jump\t// out\n                /* \"#utility.yul\":14019:14562   */\n            tag_200:\n                /* \"#utility.yul\":14120:14122   */\n              0x1f\n                /* \"#utility.yul\":14115:14118   */\n              dup3\n                /* \"#utility.yul\":14112:14123   */\n              gt\n                /* \"#utility.yul\":14109:14555   */\n              iszero\n              tag_363\n              jumpi\n                /* \"#utility.yul\":14154:14192   */\n              tag_364\n                /* \"#utility.yul\":14186:14191   */\n              dup2\n                /* \"#utility.yul\":14154:14192   */\n              tag_189\n              jump\t// in\n            tag_364:\n                /* \"#utility.yul\":14238:14267   */\n              tag_365\n                /* \"#utility.yul\":14256:14266   */\n              dup5\n                /* \"#utility.yul\":14238:14267   */\n              tag_190\n              jump\t// in\n            tag_365:\n                /* \"#utility.yul\":14228:14236   */\n              dup2\n                /* \"#utility.yul\":14224:14268   */\n              add\n                /* \"#utility.yul\":14421:14423   */\n              0x20\n                /* \"#utility.yul\":14409:14419   */\n              dup6\n                /* \"#utility.yul\":14406:14424   */\n              lt\n                /* \"#utility.yul\":14403:14452   */\n              iszero\n              tag_366\n              jumpi\n                /* \"#utility.yul\":14442:14450   */\n              dup2\n                /* \"#utility.yul\":14427:14450   */\n              swap1\n              pop\n                /* \"#utility.yul\":14403:14452   */\n            tag_366:\n                /* \"#utility.yul\":14465:14545   */\n              tag_367\n                /* \"#utility.yul\":14521:14543   */\n              tag_368\n                /* \"#utility.yul\":14539:14542   */\n              dup6\n                /* \"#utility.yul\":14521:14543   */\n              tag_190\n              jump\t// in\n            tag_368:\n                /* \"#utility.yul\":14511:14519   */\n              dup4\n                /* \"#utility.yul\":14507:14544   */\n              add\n                /* \"#utility.yul\":14494:14505   */\n              dup3\n                /* \"#utility.yul\":14465:14545   */\n              tag_199\n              jump\t// in\n            tag_367:\n                /* \"#utility.yul\":14124:14555   */\n              pop\n              pop\n                /* \"#utility.yul\":14109:14555   */\n            tag_363:\n                /* \"#utility.yul\":14019:14562   */\n              pop\n              pop\n              pop\n              jump\t// out\n                /* \"#utility.yul\":14568:14685   */\n            tag_201:\n                /* \"#utility.yul\":14622:14630   */\n              0x00\n                /* \"#utility.yul\":14672:14677   */\n              dup3\n                /* \"#utility.yul\":14666:14670   */\n              dup3\n                /* \"#utility.yul\":14662:14678   */\n              shr\n                /* \"#utility.yul\":14641:14678   */\n              swap1\n              pop\n                /* \"#utility.yul\":14568:14685   */\n              swap3\n              swap2\n              pop\n              pop\n              jump\t// out\n                /* \"#utility.yul\":14691:14860   */\n            tag_202:\n                /* \"#utility.yul\":14735:14741   */\n              0x00\n                /* \"#utility.yul\":14768:14819   */\n              tag_371\n                /* \"#utility.yul\":14816:14817   */\n              0x00\n                /* \"#utility.yul\":14812:14818   */\n              not\n                /* \"#utility.yul\":14804:14809   */\n              dup5\n                /* \"#utility.yul\":14801:14802   */\n              0x08\n                /* \"#utility.yul\":14797:14810   */\n              mul\n                /* \"#utility.yul\":14768:14819   */\n              tag_201\n              jump\t// in\n            tag_371:\n                /* \"#utility.yul\":14764:14820   */\n              not\n                /* \"#utility.yul\":14849:14853   */\n              dup1\n                /* \"#utility.yul\":14843:14847   */\n              dup4\n                /* \"#utility.yul\":14839:14854   */\n              and\n                /* \"#utility.yul\":14829:14854   */\n              swap2\n              pop\n                /* \"#utility.yul\":14742:14860   */\n              pop\n                /* \"#utility.yul\":14691:14860   */\n              swap3\n              swap2\n              pop\n              pop\n              jump\t// out\n                /* \"#utility.yul\":14865:15160   */\n            tag_203:\n                /* \"#utility.yul\":14941:14945   */\n              0x00\n                /* \"#utility.yul\":15087:15116   */\n              tag_373\n                /* \"#utility.yul\":15112:15115   */\n              dup4\n                /* \"#utility.yul\":15106:15110   */\n              dup4\n                /* \"#utility.yul\":15087:15116   */\n              tag_202\n              jump\t// in\n            tag_373:\n                /* \"#utility.yul\":15079:15116   */\n              swap2\n              pop\n                /* \"#utility.yul\":15149:15152   */\n              dup3\n                /* \"#utility.yul\":15146:15147   */\n              0x02\n                /* \"#utility.yul\":15142:15153   */\n              mul\n                /* \"#utility.yul\":15136:15140   */\n              dup3\n                /* \"#utility.yul\":15133:15154   */\n              or\n                /* \"#utility.yul\":15125:15154   */\n              swap1\n              pop\n                /* \"#utility.yul\":14865:15160   */\n              swap3\n              swap2\n              pop\n              pop\n              jump\t// out\n                /* \"#utility.yul\":15165:16560   */\n            tag_133:\n                /* \"#utility.yul\":15282:15319   */\n              tag_375\n                /* \"#utility.yul\":15315:15318   */\n              dup3\n                /* \"#utility.yul\":15282:15319   */\n              tag_158\n              jump\t// in\n            tag_375:\n                /* \"#utility.yul\":15384:15402   */\n              0xffffffffffffffff\n                /* \"#utility.yul\":15376:15382   */\n              dup2\n                /* \"#utility.yul\":15373:15403   */\n              gt\n                /* \"#utility.yul\":15370:15426   */\n              iszero\n              tag_376\n              jumpi\n                /* \"#utility.yul\":15406:15424   */\n              tag_377\n              tag_175\n              jump\t// in\n            tag_377:\n                /* \"#utility.yul\":15370:15426   */\n            tag_376:\n                /* \"#utility.yul\":15450:15488   */\n              tag_378\n                /* \"#utility.yul\":15482:15486   */\n              dup3\n                /* \"#utility.yul\":15476:15487   */\n              sload\n                /* \"#utility.yul\":15450:15488   */\n              tag_97\n              jump\t// in\n            tag_378:\n                /* \"#utility.yul\":15535:15602   */\n              tag_379\n                /* \"#utility.yul\":15595:15601   */\n              dup3\n                /* \"#utility.yul\":15587:15593   */\n              dup3\n                /* \"#utility.yul\":15581:15585   */\n              dup6\n                /* \"#utility.yul\":15535:15602   */\n              tag_200\n              jump\t// in\n            tag_379:\n                /* \"#utility.yul\":15629:15630   */\n              0x00\n                /* \"#utility.yul\":15653:15657   */\n              0x20\n                /* \"#utility.yul\":15640:15657   */\n              swap1\n              pop\n                /* \"#utility.yul\":15685:15687   */\n              0x1f\n                /* \"#utility.yul\":15677:15683   */\n              dup4\n                /* \"#utility.yul\":15674:15688   */\n              gt\n                /* \"#utility.yul\":15702:15703   */\n              0x01\n                /* \"#utility.yul\":15697:16315   */\n              dup2\n              eq\n              tag_381\n              jumpi\n                /* \"#utility.yul\":16359:16360   */\n              0x00\n                /* \"#utility.yul\":16376:16382   */\n              dup5\n                /* \"#utility.yul\":16373:16450   */\n              iszero\n              tag_382\n              jumpi\n                /* \"#utility.yul\":16425:16434   */\n              dup3\n                /* \"#utility.yul\":16420:16423   */\n              dup8\n                /* \"#utility.yul\":16416:16435   */\n              add\n                /* \"#utility.yul\":16410:16436   */\n              mload\n                /* \"#utility.yul\":16401:16436   */\n              swap1\n              pop\n                /* \"#utility.yul\":16373:16450   */\n            tag_382:\n                /* \"#utility.yul\":16476:16543   */\n              tag_383\n                /* \"#utility.yul\":16536:16542   */\n              dup6\n                /* \"#utility.yul\":16529:16534   */\n              dup3\n                /* \"#utility.yul\":16476:16543   */\n              tag_203\n              jump\t// in\n            tag_383:\n                /* \"#utility.yul\":16470:16474   */\n              dup7\n                /* \"#utility.yul\":16463:16544   */\n              sstore\n                /* \"#utility.yul\":16332:16554   */\n              pop\n                /* \"#utility.yul\":15667:16554   */\n              jump(tag_380)\n                /* \"#utility.yul\":15697:16315   */\n            tag_381:\n                /* \"#utility.yul\":15749:15753   */\n              0x1f\n                /* \"#utility.yul\":15745:15754   */\n              not\n                /* \"#utility.yul\":15737:15743   */\n              dup5\n                /* \"#utility.yul\":15733:15755   */\n              and\n                /* \"#utility.yul\":15783:15820   */\n              tag_384\n                /* \"#utility.yul\":15815:15819   */\n              dup7\n                /* \"#utility.yul\":15783:15820   */\n              tag_189\n              jump\t// in\n            tag_384:\n                /* \"#utility.yul\":15842:15843   */\n              0x00\n                /* \"#utility.yul\":15856:16064   */\n            tag_385:\n                /* \"#utility.yul\":15870:15877   */\n              dup3\n                /* \"#utility.yul\":15867:15868   */\n              dup2\n                /* \"#utility.yul\":15864:15878   */\n              lt\n                /* \"#utility.yul\":15856:16064   */\n              iszero\n              tag_387\n              jumpi\n                /* \"#utility.yul\":15949:15958   */\n              dup5\n                /* \"#utility.yul\":15944:15947   */\n              dup10\n                /* \"#utility.yul\":15940:15959   */\n              add\n                /* \"#utility.yul\":15934:15960   */\n              mload\n                /* \"#utility.yul\":15926:15932   */\n              dup3\n                /* \"#utility.yul\":15919:15961   */\n              sstore\n                /* \"#utility.yul\":16000:16001   */\n              0x01\n                /* \"#utility.yul\":15992:15998   */\n              dup3\n                /* \"#utility.yul\":15988:16002   */\n              add\n                /* \"#utility.yul\":15978:16002   */\n              swap2\n              pop\n                /* \"#utility.yul\":16047:16049   */\n              0x20\n                /* \"#utility.yul\":16036:16045   */\n              dup6\n                /* \"#utility.yul\":16032:16050   */\n              add\n                /* \"#utility.yul\":16019:16050   */\n              swap5\n              pop\n                /* \"#utility.yul\":15893:15897   */\n              0x20\n                /* \"#utility.yul\":15890:15891   */\n              dup2\n                /* \"#utility.yul\":15886:15898   */\n              add\n                /* \"#utility.yul\":15881:15898   */\n              swap1\n              pop\n                /* \"#utility.yul\":15856:16064   */\n              jump(tag_385)\n            tag_387:\n                /* \"#utility.yul\":16092:16098   */\n              dup7\n                /* \"#utility.yul\":16083:16090   */\n              dup4\n                /* \"#utility.yul\":16080:16099   */\n              lt\n                /* \"#utility.yul\":16077:16256   */\n              iszero\n              tag_388\n              jumpi\n                /* \"#utility.yul\":16150:16159   */\n              dup5\n                /* \"#utility.yul\":16145:16148   */\n              dup10\n                /* \"#utility.yul\":16141:16160   */\n              add\n                /* \"#utility.yul\":16135:16161   */\n              mload\n                /* \"#utility.yul\":16193:16241   */\n              tag_389\n                /* \"#utility.yul\":16235:16239   */\n              0x1f\n                /* \"#utility.yul\":16227:16233   */\n              dup10\n                /* \"#utility.yul\":16223:16240   */\n              and\n                /* \"#utility.yul\":16212:16221   */\n              dup3\n                /* \"#utility.yul\":16193:16241   */\n              tag_202\n              jump\t// in\n            tag_389:\n                /* \"#utility.yul\":16185:16191   */\n              dup4\n                /* \"#utility.yul\":16178:16242   */\n              sstore\n                /* \"#utility.yul\":16100:16256   */\n              pop\n                /* \"#utility.yul\":16077:16256   */\n            tag_388:\n                /* \"#utility.yul\":16302:16303   */\n              0x01\n                /* \"#utility.yul\":16298:16299   */\n              0x02\n                /* \"#utility.yul\":16290:16296   */\n              dup9\n                /* \"#utility.yul\":16286:16300   */\n              mul\n                /* \"#utility.yul\":16282:16304   */\n              add\n                /* \"#utility.yul\":16276:16280   */\n              dup9\n                /* \"#utility.yul\":16269:16305   */\n              sstore\n                /* \"#utility.yul\":15704:16315   */\n              pop\n              pop\n              pop\n                /* \"#utility.yul\":15667:16554   */\n            tag_380:\n              pop\n                /* \"#utility.yul\":15257:16560   */\n              pop\n              pop\n              pop\n                /* \"#utility.yul\":15165:16560   */\n              pop\n              pop\n              jump\t// out\n\n            auxdata: 0xa264697066735822122052b908ac4be2b69165741732ef8b3084bde4bc9f097969616c3c8ab9b7c43e3964736f6c634300080f0033\n        }\n    }\n\n    auxdata: 0xa2646970667358221220430b50d5b7567d59e3cd9a4b2db4a034c7cceb0eff2dd0cab88d2c48e50a7e8764736f6c634300080f0033\n}\n","bytecode":{"linkReferences":{},"object":"608060405234801561001057600080fd5b50612676806100206000396000f3fe60806040523480156200001157600080fd5b5060043610620000465760003560e01c8063339d50a5146200004b5780634acb9d4f14620000815780638ef0392814620000a3575b600080fd5b6200006960048036038101906200006391906200029f565b620000c3565b6040516200007891906200035c565b60405180910390f35b6200008b62000103565b6040516200009a919062000447565b60405180910390f35b620000c16004803603810190620000bb9190620005cd565b62000193565b005b60008181548110620000d457600080fd5b906000526020600020016000915054906101000a900473ffffffffffffffffffffffffffffffffffffffff1681565b606060008054806020026020016040519081016040528092919081815260200182805480156200018957602002820191906000526020600020905b8160009054906101000a900473ffffffffffffffffffffffffffffffffffffffff1673ffffffffffffffffffffffffffffffffffffffff16815260200190600101908083116200013e575b5050505050905090565b60008433858585604051620001a89062000242565b620001b895949392919062000765565b604051809103906000f080158015620001d5573d6000803e3d6000fd5b5090506000819080600181540180825580915050600190039060005260206000200160009091909190916101000a81548173ffffffffffffffffffffffffffffffffffffffff021916908373ffffffffffffffffffffffffffffffffffffffff1602179055505050505050565b611e6980620007d883390190565b6000604051905090565b600080fd5b600080fd5b6000819050919050565b620002798162000264565b81146200028557600080fd5b50565b60008135905062000299816200026e565b92915050565b600060208284031215620002b857620002b76200025a565b5b6000620002c88482850162000288565b91505092915050565b600073ffffffffffffffffffffffffffffffffffffffff82169050919050565b6000819050919050565b60006200031c620003166200031084620002d1565b620002f1565b620002d1565b9050919050565b60006200033082620002fb565b9050919050565b6000620003448262000323565b9050919050565b620003568162000337565b82525050565b60006020820190506200037360008301846200034b565b92915050565b600081519050919050565b600082825260208201905092915050565b6000819050602082019050919050565b620003b08162000337565b82525050565b6000620003c48383620003a5565b60208301905092915050565b6000602082019050919050565b6000620003ea8262000379565b620003f6818562000384565b9350620004038362000395565b8060005b838110156200043a5781516200041e8882620003b6565b97506200042b83620003d0565b92505060018101905062000407565b5085935050505092915050565b60006020820190508181036000830152620004638184620003dd565b905092915050565b600080fd5b600080fd5b6000601f19601f8301169050919050565b7f4e487b7100000000000000000000000000000000000000000000000000000000600052604160045260246000fd5b620004c08262000475565b810181811067ffffffffffffffff82111715620004e257620004e162000486565b5b80604052505050565b6000620004f762000250565b9050620005058282620004b5565b919050565b600067ffffffffffffffff82111562000528576200052762000486565b5b620005338262000475565b9050602081019050919050565b82818337600083830152505050565b60006200056662000560846200050a565b620004eb565b90508281526020810184848401111562000585576200058462000470565b5b6200059284828562000540565b509392505050565b600082601f830112620005b257620005b16200046b565b5b8135620005c48482602086016200054f565b91505092915050565b60008060008060808587031215620005ea57620005e96200025a565b5b6000620005fa8782880162000288565b945050602085013567ffffffffffffffff8111156200061e576200061d6200025f565b5b6200062c878288016200059a565b935050604085013567ffffffffffffffff81111562000650576200064f6200025f565b5b6200065e878288016200059a565b925050606085013567ffffffffffffffff8111156200068257620006816200025f565b5b62000690878288016200059a565b91505092959194509250565b620006a78162000264565b82525050565b6000620006ba82620002d1565b9050919050565b620006cc81620006ad565b82525050565b600081519050919050565b600082825260208201905092915050565b60005b838110156200070e578082015181840152602081019050620006f1565b838111156200071e576000848401525b50505050565b60006200073182620006d2565b6200073d8185620006dd565b93506200074f818560208601620006ee565b6200075a8162000475565b840191505092915050565b600060a0820190506200077c60008301886200069c565b6200078b6020830187620006c1565b81810360408301526200079f818662000724565b90508181036060830152620007b5818562000724565b90508181036080830152620007cb818462000724565b9050969550505050505056fe60806040523480156200001157600080fd5b5060405162001e6938038062001e698339818101604052810190620000379190620002fd565b83600260006101000a81548173ffffffffffffffffffffffffffffffffffffffff021916908373ffffffffffffffffffffffffffffffffffffffff16021790555084600381905550826004908162000090919062000623565b508160059081620000a2919062000623565b508060069081620000b4919062000623565b5050505050506200070a565b6000604051905090565b600080fd5b600080fd5b6000819050919050565b620000e981620000d4565b8114620000f557600080fd5b50565b6000815190506200010981620000de565b92915050565b600073ffffffffffffffffffffffffffffffffffffffff82169050919050565b60006200013c826200010f565b9050919050565b6200014e816200012f565b81146200015a57600080fd5b50565b6000815190506200016e8162000143565b92915050565b600080fd5b600080fd5b6000601f19601f8301169050919050565b7f4e487b7100000000000000000000000000000000000000000000000000000000600052604160045260246000fd5b620001c9826200017e565b810181811067ffffffffffffffff82111715620001eb57620001ea6200018f565b5b80604052505050565b600062000200620000c0565b90506200020e8282620001be565b919050565b600067ffffffffffffffff8211156200023157620002306200018f565b5b6200023c826200017e565b9050602081019050919050565b60005b83811015620002695780820151818401526020810190506200024c565b8381111562000279576000848401525b50505050565b600062000296620002908462000213565b620001f4565b905082815260208101848484011115620002b557620002b462000179565b5b620002c284828562000249565b509392505050565b600082601f830112620002e257620002e162000174565b5b8151620002f48482602086016200027f565b91505092915050565b600080600080600060a086880312156200031c576200031b620000ca565b5b60006200032c88828901620000f8565b95505060206200033f888289016200015d565b945050604086015167ffffffffffffffff811115620003635762000362620000cf565b5b6200037188828901620002ca565b935050606086015167ffffffffffffffff811115620003955762000394620000cf565b5b620003a388828901620002ca565b925050608086015167ffffffffffffffff811115620003c757620003c6620000cf565b5b620003d588828901620002ca565b9150509295509295909350565b600081519050919050565b7f4e487b7100000000000000000000000000000000000000000000000000000000600052602260045260246000fd5b600060028204905060018216806200043557607f821691505b6020821081036200044b576200044a620003ed565b5b50919050565b60008190508160005260206000209050919050565b60006020601f8301049050919050565b600082821b905092915050565b600060088302620004b57fffffffffffffffffffffffffffffffffffffffffffffffffffffffffffffffff8262000476565b620004c1868362000476565b95508019841693508086168417925050509392505050565b6000819050919050565b600062000504620004fe620004f884620000d4565b620004d9565b620000d4565b9050919050565b6000819050919050565b6200052083620004e3565b620005386200052f826200050b565b84845462000483565b825550505050565b600090565b6200054f62000540565b6200055c81848462000515565b505050565b5b8181101562000584576200057860008262000545565b60018101905062000562565b5050565b601f821115620005d3576200059d8162000451565b620005a88462000466565b81016020851015620005b8578190505b620005d0620005c78562000466565b83018262000561565b50505b505050565b600082821c905092915050565b6000620005f860001984600802620005d8565b1980831691505092915050565b6000620006138383620005e5565b9150826002028217905092915050565b6200062e82620003e2565b67ffffffffffffffff8111156200064a57620006496200018f565b5b6200065682546200041c565b6200066382828562000588565b600060209050601f8311600181146200069b576000841562000686578287015190505b62000692858262000605565b86555062000702565b601f198416620006ab8662000451565b60005b82811015620006d557848901518255600182019150602085019450602081019050620006ae565b86831015620006f55784890151620006f1601f891682620005e5565b8355505b6001600288020188555050505b505050505050565b61174f806200071a6000396000f3fe6080604052600436106100dd5760003560e01c806382fde0931161007f578063aba8315011610059578063aba83150146102cd578063d7bb99ba146102f8578063d7d1bbdb14610302578063ebd94e211461032b576100dd565b806382fde0931461024e5780638a9cfd5514610279578063937e09b1146102a2576100dd565b80634051ddac116100bb5780634051ddac14610173578063481c6a75146101a557806349367252146101d057806381d12c581461020d576100dd565b806303441006146100e25780630724fda91461010b5780630a14439114610136575b600080fd5b3480156100ee57600080fd5b5061010960048036038101906101049190610e1d565b610356565b005b34801561011757600080fd5b506101206104c7565b60405161012d9190610ee3565b60405180910390f35b34801561014257600080fd5b5061015d60048036038101906101589190610f63565b610555565b60405161016a9190610fab565b60405180910390f35b34801561017f57600080fd5b50610188610575565b60405161019c989796959493929190610fe4565b60405180910390f35b3480156101b157600080fd5b506101ba610773565b6040516101c79190611077565b60405180910390f35b3480156101dc57600080fd5b506101f760048036038101906101f29190610e1d565b610799565b6040516102049190610fab565b60405180910390f35b34801561021957600080fd5b50610234600480360381019061022f9190610e1d565b610803565b6040516102459594939291906110b3565b60405180910390f35b34801561025a57600080fd5b506102636108ee565b604051610270919061110d565b60405180910390f35b34801561028557600080fd5b506102a0600480360381019061029b9190611289565b6108f4565b005b3480156102ae57600080fd5b506102b7610aa1565b6040516102c4919061110d565b60405180910390f35b3480156102d957600080fd5b506102e2610aa7565b6040516102ef9190610ee3565b60405180910390f35b610300610b35565b005b34801561030e57600080fd5b5061032960048036038101906103249190610e1d565b610c07565b005b34801561033757600080fd5b50610340610d45565b60405161034d9190610ee3565b60405180910390f35b600260009054906101000a900473ffffffffffffffffffffffffffffffffffffffff1673ffffffffffffffffffffffffffffffffffffffff163373ffffffffffffffffffffffffffffffffffffffff16146103e6576040517f08c379a00000000000000000000000000000000000000000000000000000000081526004016103dd90611344565b60405180910390fd5b60006001600083815260200190815260200160002090508060020160149054906101000a900460ff161561041957600080fd5b600260085461042891906113c2565b81600401541161043757600080fd5b8060020160009054906101000a900473ffffffffffffffffffffffffffffffffffffffff1673ffffffffffffffffffffffffffffffffffffffff166108fc82600101549081150290604051600060405180830381858888f193505050501580156104a5573d6000803e3d6000fd5b5060018160020160146101000a81548160ff0219169083151502179055505050565b600480546104d490611422565b80601f016020809104026020016040519081016040528092919081815260200182805461050090611422565b801561054d5780601f106105225761010080835404028352916020019161054d565b820191906000526020600020905b81548152906001019060200180831161053057829003601f168201915b505050505081565b60076020528060005260406000206000915054906101000a900460ff1681565b6000806000806000606080606060035447600054600854600260009054906101000a900473ffffffffffffffffffffffffffffffffffffffff166004600560068280546105c190611422565b80601f01602080910402602001604051908101604052809291908181526020018280546105ed90611422565b801561063a5780601f1061060f5761010080835404028352916020019161063a565b820191906000526020600020905b81548152906001019060200180831161061d57829003601f168201915b5050505050925081805461064d90611422565b80601f016020809104026020016040519081016040528092919081815260200182805461067990611422565b80156106c65780601f1061069b576101008083540402835291602001916106c6565b820191906000526020600020905b8154815290600101906020018083116106a957829003601f168201915b505050505091508080546106d990611422565b80601f016020809104026020016040519081016040528092919081815260200182805461070590611422565b80156107525780601f1061072757610100808354040283529160200191610752565b820191906000526020600020905b81548152906001019060200180831161073557829003601f168201915b50505050509050975097509750975097509750975097509091929394959697565b600260009054906101000a900473ffffffffffffffffffffffffffffffffffffffff1681565b60006001600083815260200190815260200160002060030160003373ffffffffffffffffffffffffffffffffffffffff1673ffffffffffffffffffffffffffffffffffffffff16815260200190815260200160002060009054906101000a900460ff169050919050565b600160205280600052604060002060009150905080600001805461082690611422565b80601f016020809104026020016040519081016040528092919081815260200182805461085290611422565b801561089f5780601f106108745761010080835404028352916020019161089f565b820191906000526020600020905b81548152906001019060200180831161088257829003601f168201915b5050505050908060010154908060020160009054906101000a900473ffffffffffffffffffffffffffffffffffffffff16908060020160149054906101000a900460ff16908060040154905085565b60085481565b600260009054906101000a900473ffffffffffffffffffffffffffffffffffffffff1673ffffffffffffffffffffffffffffffffffffffff163373ffffffffffffffffffffffffffffffffffffffff1614610984576040517f08c379a000000000000000000000000000000000000000000000000000000000815260040161097b90611344565b60405180910390fd5b600760003373ffffffffffffffffffffffffffffffffffffffff1673ffffffffffffffffffffffffffffffffffffffff16815260200190815260200160002060009054906101000a900460ff166109da57600080fd5b478211156109e757600080fd5b600060016000805481526020019081526020016000209050600080815480929190610a1190611453565b919050555083816000019081610a279190611647565b50828160010181905550818160020160006101000a81548173ffffffffffffffffffffffffffffffffffffffff021916908373ffffffffffffffffffffffffffffffffffffffff16021790555060008160020160146101000a81548160ff0219169083151502179055506000816004018190555050505050565b60035481565b60068054610ab490611422565b80601f0160208091040260200160405190810160405280929190818152602001828054610ae090611422565b8015610b2d5780601f10610b0257610100808354040283529160200191610b2d565b820191906000526020600020905b815481529060010190602001808311610b1057829003601f168201915b505050505081565b6003543411610b4357600080fd5b600760003373ffffffffffffffffffffffffffffffffffffffff1673ffffffffffffffffffffffffffffffffffffffff16815260200190815260200160002060009054906101000a900460ff16610bad5760086000815480929190610ba790611453565b91905055505b6001600760003373ffffffffffffffffffffffffffffffffffffffff1673ffffffffffffffffffffffffffffffffffffffff16815260200190815260200160002060006101000a81548160ff021916908315150217905550565b6000600160008381526020019081526020016000209050600760003373ffffffffffffffffffffffffffffffffffffffff1673ffffffffffffffffffffffffffffffffffffffff16815260200190815260200160002060009054906101000a900460ff16610c7457600080fd5b8060030160003373ffffffffffffffffffffffffffffffffffffffff1673ffffffffffffffffffffffffffffffffffffffff16815260200190815260200160002060009054906101000a900460ff1615610ccd57600080fd5b60018160030160003373ffffffffffffffffffffffffffffffffffffffff1673ffffffffffffffffffffffffffffffffffffffff16815260200190815260200160002060006101000a81548160ff021916908315150217905550806004016000815480929190610d3c90611453565b91905055505050565b60058054610d5290611422565b80601f0160208091040260200160405190810160405280929190818152602001828054610d7e90611422565b8015610dcb5780601f10610da057610100808354040283529160200191610dcb565b820191906000526020600020905b815481529060010190602001808311610dae57829003601f168201915b505050505081565b6000604051905090565b600080fd5b600080fd5b6000819050919050565b610dfa81610de7565b8114610e0557600080fd5b50565b600081359050610e1781610df1565b92915050565b600060208284031215610e3357610e32610ddd565b5b6000610e4184828501610e08565b91505092915050565b600081519050919050565b600082825260208201905092915050565b60005b83811015610e84578082015181840152602081019050610e69565b83811115610e93576000848401525b50505050565b6000601f19601f8301169050919050565b6000610eb582610e4a565b610ebf8185610e55565b9350610ecf818560208601610e66565b610ed881610e99565b840191505092915050565b60006020820190508181036000830152610efd8184610eaa565b905092915050565b600073ffffffffffffffffffffffffffffffffffffffff82169050919050565b6000610f3082610f05565b9050919050565b610f4081610f25565b8114610f4b57600080fd5b50565b600081359050610f5d81610f37565b92915050565b600060208284031215610f7957610f78610ddd565b5b6000610f8784828501610f4e565b91505092915050565b60008115159050919050565b610fa581610f90565b82525050565b6000602082019050610fc06000830184610f9c565b92915050565b610fcf81610de7565b82525050565b610fde81610f25565b82525050565b600061010082019050610ffa600083018b610fc6565b611007602083018a610fc6565b6110146040830189610fc6565b6110216060830188610fc6565b61102e6080830187610fd5565b81810360a08301526110408186610eaa565b905081810360c08301526110548185610eaa565b905081810360e08301526110688184610eaa565b90509998505050505050505050565b600060208201905061108c6000830184610fd5565b92915050565b600061109d82610f05565b9050919050565b6110ad81611092565b82525050565b600060a08201905081810360008301526110cd8188610eaa565b90506110dc6020830187610fc6565b6110e960408301866110a4565b6110f66060830185610f9c565b6111036080830184610fc6565b9695505050505050565b60006020820190506111226000830184610fc6565b92915050565b600080fd5b600080fd5b7f4e487b7100000000000000000000000000000000000000000000000000000000600052604160045260246000fd5b61116a82610e99565b810181811067ffffffffffffffff8211171561118957611188611132565b5b80604052505050565b600061119c610dd3565b90506111a88282611161565b919050565b600067ffffffffffffffff8211156111c8576111c7611132565b5b6111d182610e99565b9050602081019050919050565b82818337600083830152505050565b60006112006111fb846111ad565b611192565b90508281526020810184848401111561121c5761121b61112d565b5b6112278482856111de565b509392505050565b600082601f83011261124457611243611128565b5b81356112548482602086016111ed565b91505092915050565b61126681611092565b811461127157600080fd5b50565b6000813590506112838161125d565b92915050565b6000806000606084860312156112a2576112a1610ddd565b5b600084013567ffffffffffffffff8111156112c0576112bf610de2565b5b6112cc8682870161122f565b93505060206112dd86828701610e08565b92505060406112ee86828701611274565b9150509250925092565b7f596f7520617265206e6f7420617574686f72697a656421000000000000000000600082015250565b600061132e601783610e55565b9150611339826112f8565b602082019050919050565b6000602082019050818103600083015261135d81611321565b9050919050565b7f4e487b7100000000000000000000000000000000000000000000000000000000600052601260045260246000fd5b7f4e487b7100000000000000000000000000000000000000000000000000000000600052601160045260246000fd5b60006113cd82610de7565b91506113d883610de7565b9250826113e8576113e7611364565b5b828204905092915050565b7f4e487b7100000000000000000000000000000000000000000000000000000000600052602260045260246000fd5b6000600282049050600182168061143a57607f821691505b60208210810361144d5761144c6113f3565b5b50919050565b600061145e82610de7565b91507fffffffffffffffffffffffffffffffffffffffffffffffffffffffffffffffff82036114905761148f611393565b5b600182019050919050565b60008190508160005260206000209050919050565b60006020601f8301049050919050565b600082821b905092915050565b6000600883026114fd7fffffffffffffffffffffffffffffffffffffffffffffffffffffffffffffffff826114c0565b61150786836114c0565b95508019841693508086168417925050509392505050565b6000819050919050565b600061154461153f61153a84610de7565b61151f565b610de7565b9050919050565b6000819050919050565b61155e83611529565b61157261156a8261154b565b8484546114cd565b825550505050565b600090565b61158761157a565b611592818484611555565b505050565b5b818110156115b6576115ab60008261157f565b600181019050611598565b5050565b601f8211156115fb576115cc8161149b565b6115d5846114b0565b810160208510156115e4578190505b6115f86115f0856114b0565b830182611597565b50505b505050565b600082821c905092915050565b600061161e60001984600802611600565b1980831691505092915050565b6000611637838361160d565b9150826002028217905092915050565b61165082610e4a565b67ffffffffffffffff81111561166957611668611132565b5b6116738254611422565b61167e8282856115ba565b600060209050601f8311600181146116b1576000841561169f578287015190505b6116a9858261162b565b865550611711565b601f1984166116bf8661149b565b60005b828110156116e7578489015182556001820191506020850194506020810190506116c2565b868310156117045784890151611700601f89168261160d565b8355505b6001600288020188555050505b50505050505056fea264697066735822122052b908ac4be2b69165741732ef8b3084bde4bc9f097969616c3c8ab9b7c43e3964736f6c634300080f0033a2646970667358221220430b50d5b7567d59e3cd9a4b2db4a034c7cceb0eff2dd0cab88d2c48e50a7e8764736f6c634300080f0033","opcodes":"PUSH1 0x80 PUSH1 0x40 MSTORE CALLVALUE DUP1 ISZERO PUSH2 0x10 JUMPI PUSH1 0x0 DUP1 REVERT JUMPDEST POP PUSH2 0x2676 DUP1 PUSH2 0x20 PUSH1 0x0 CODECOPY PUSH1 0x0 RETURN INVALID PUSH1 0x80 PUSH1 0x40 MSTORE CALLVALUE DUP1 ISZERO PUSH3 0x11 JUMPI PUSH1 0x0 DUP1 REVERT JUMPDEST POP PUSH1 0x4 CALLDATASIZE LT PUSH3 0x46 JUMPI PUSH1 0x0 CALLDATALOAD PUSH1 0xE0 SHR DUP1 PUSH4 0x339D50A5 EQ PUSH3 0x4B JUMPI DUP1 PUSH4 0x4ACB9D4F EQ PUSH3 0x81 JUMPI DUP1 PUSH4 0x8EF03928 EQ PUSH3 0xA3 JUMPI JUMPDEST PUSH1 0x0 DUP1 REVERT JUMPDEST PUSH3 0x69 PUSH1 0x4 DUP1 CALLDATASIZE SUB DUP2 ADD SWAP1 PUSH3 0x63 SWAP2 SWAP1 PUSH3 0x29F JUMP JUMPDEST PUSH3 0xC3 JUMP JUMPDEST PUSH1 0x40 MLOAD PUSH3 0x78 SWAP2 SWAP1 PUSH3 0x35C JUMP JUMPDEST PUSH1 0x40 MLOAD DUP1 SWAP2 SUB SWAP1 RETURN JUMPDEST PUSH3 0x8B PUSH3 0x103 JUMP JUMPDEST PUSH1 0x40 MLOAD PUSH3 0x9A SWAP2 SWAP1 PUSH3 0x447 JUMP JUMPDEST PUSH1 0x40 MLOAD DUP1 SWAP2 SUB SWAP1 RETURN JUMPDEST PUSH3 0xC1 PUSH1 0x4 DUP1 CALLDATASIZE SUB DUP2 ADD SWAP1 PUSH3 0xBB SWAP2 SWAP1 PUSH3 0x5CD JUMP JUMPDEST PUSH3 0x193 JUMP JUMPDEST STOP JUMPDEST PUSH1 0x0 DUP2 DUP2 SLOAD DUP2 LT PUSH3 0xD4 JUMPI PUSH1 0x0 DUP1 REVERT JUMPDEST SWAP1 PUSH1 0x0 MSTORE PUSH1 0x20 PUSH1 0x0 KECCAK256 ADD PUSH1 0x0 SWAP2 POP SLOAD SWAP1 PUSH2 0x100 EXP SWAP1 DIV PUSH20 0xFFFFFFFFFFFFFFFFFFFFFFFFFFFFFFFFFFFFFFFF AND DUP2 JUMP JUMPDEST PUSH1 0x60 PUSH1 0x0 DUP1 SLOAD DUP1 PUSH1 0x20 MUL PUSH1 0x20 ADD PUSH1 0x40 MLOAD SWAP1 DUP2 ADD PUSH1 0x40 MSTORE DUP1 SWAP3 SWAP2 SWAP1 DUP2 DUP2 MSTORE PUSH1 0x20 ADD DUP3 DUP1 SLOAD DUP1 ISZERO PUSH3 0x189 JUMPI PUSH1 0x20 MUL DUP3 ADD SWAP2 SWAP1 PUSH1 0x0 MSTORE PUSH1 0x20 PUSH1 0x0 KECCAK256 SWAP1 JUMPDEST DUP2 PUSH1 0x0 SWAP1 SLOAD SWAP1 PUSH2 0x100 EXP SWAP1 DIV PUSH20 0xFFFFFFFFFFFFFFFFFFFFFFFFFFFFFFFFFFFFFFFF AND PUSH20 0xFFFFFFFFFFFFFFFFFFFFFFFFFFFFFFFFFFFFFFFF AND DUP2 MSTORE PUSH1 0x20 ADD SWAP1 PUSH1 0x1 ADD SWAP1 DUP1 DUP4 GT PUSH3 0x13E JUMPI JUMPDEST POP POP POP POP POP SWAP1 POP SWAP1 JUMP JUMPDEST PUSH1 0x0 DUP5 CALLER DUP6 DUP6 DUP6 PUSH1 0x40 MLOAD PUSH3 0x1A8 SWAP1 PUSH3 0x242 JUMP JUMPDEST PUSH3 0x1B8 SWAP6 SWAP5 SWAP4 SWAP3 SWAP2 SWAP1 PUSH3 0x765 JUMP JUMPDEST PUSH1 0x40 MLOAD DUP1 SWAP2 SUB SWAP1 PUSH1 0x0 CREATE DUP1 ISZERO DUP1 ISZERO PUSH3 0x1D5 JUMPI RETURNDATASIZE PUSH1 0x0 DUP1 RETURNDATACOPY RETURNDATASIZE PUSH1 0x0 REVERT JUMPDEST POP SWAP1 POP PUSH1 0x0 DUP2 SWAP1 DUP1 PUSH1 0x1 DUP2 SLOAD ADD DUP1 DUP3 SSTORE DUP1 SWAP2 POP POP PUSH1 0x1 SWAP1 SUB SWAP1 PUSH1 0x0 MSTORE PUSH1 0x20 PUSH1 0x0 KECCAK256 ADD PUSH1 0x0 SWAP1 SWAP2 SWAP1 SWAP2 SWAP1 SWAP2 PUSH2 0x100 EXP DUP2 SLOAD DUP2 PUSH20 0xFFFFFFFFFFFFFFFFFFFFFFFFFFFFFFFFFFFFFFFF MUL NOT AND SWAP1 DUP4 PUSH20 0xFFFFFFFFFFFFFFFFFFFFFFFFFFFFFFFFFFFFFFFF AND MUL OR SWAP1 SSTORE POP POP POP POP POP POP JUMP JUMPDEST PUSH2 0x1E69 DUP1 PUSH3 0x7D8 DUP4 CODECOPY ADD SWAP1 JUMP JUMPDEST PUSH1 0x0 PUSH1 0x40 MLOAD SWAP1 POP SWAP1 JUMP JUMPDEST PUSH1 0x0 DUP1 REVERT JUMPDEST PUSH1 0x0 DUP1 REVERT JUMPDEST PUSH1 0x0 DUP2 SWAP1 POP SWAP2 SWAP1 POP JUMP JUMPDEST PUSH3 0x279 DUP2 PUSH3 0x264 JUMP JUMPDEST DUP2 EQ PUSH3 0x285 JUMPI PUSH1 0x0 DUP1 REVERT JUMPDEST POP JUMP JUMPDEST PUSH1 0x0 DUP2 CALLDATALOAD SWAP1 POP PUSH3 0x299 DUP2 PUSH3 0x26E JUMP JUMPDEST SWAP3 SWAP2 POP POP JUMP JUMPDEST PUSH1 0x0 PUSH1 0x20 DUP3 DUP5 SUB SLT ISZERO PUSH3 0x2B8 JUMPI PUSH3 0x2B7 PUSH3 0x25A JUMP JUMPDEST JUMPDEST PUSH1 0x0 PUSH3 0x2C8 DUP5 DUP3 DUP6 ADD PUSH3 0x288 JUMP JUMPDEST SWAP2 POP POP SWAP3 SWAP2 POP POP JUMP JUMPDEST PUSH1 0x0 PUSH20 0xFFFFFFFFFFFFFFFFFFFFFFFFFFFFFFFFFFFFFFFF DUP3 AND SWAP1 POP SWAP2 SWAP1 POP JUMP JUMPDEST PUSH1 0x0 DUP2 SWAP1 POP SWAP2 SWAP1 POP JUMP JUMPDEST PUSH1 0x0 PUSH3 0x31C PUSH3 0x316 PUSH3 0x310 DUP5 PUSH3 0x2D1 JUMP JUMPDEST PUSH3 0x2F1 JUMP JUMPDEST PUSH3 0x2D1 JUMP JUMPDEST SWAP1 POP SWAP2 SWAP1 POP JUMP JUMPDEST PUSH1 0x0 PUSH3 0x330 DUP3 PUSH3 0x2FB JUMP JUMPDEST SWAP1 POP SWAP2 SWAP1 POP JUMP JUMPDEST PUSH1 0x0 PUSH3 0x344 DUP3 PUSH3 0x323 JUMP JUMPDEST SWAP1 POP SWAP2 SWAP1 POP JUMP JUMPDEST PUSH3 0x356 DUP2 PUSH3 0x337 JUMP JUMPDEST DUP3 MSTORE POP POP JUMP JUMPDEST PUSH1 0x0 PUSH1 0x20 DUP3 ADD SWAP1 POP PUSH3 0x373 PUSH1 0x0 DUP4 ADD DUP5 PUSH3 0x34B JUMP JUMPDEST SWAP3 SWAP2 POP POP JUMP JUMPDEST PUSH1 0x0 DUP2 MLOAD SWAP1 POP SWAP2 SWAP1 POP JUMP JUMPDEST PUSH1 0x0 DUP3 DUP3 MSTORE PUSH1 0x20 DUP3 ADD SWAP1 POP SWAP3 SWAP2 POP POP JUMP JUMPDEST PUSH1 0x0 DUP2 SWAP1 POP PUSH1 0x20 DUP3 ADD SWAP1 POP SWAP2 SWAP1 POP JUMP JUMPDEST PUSH3 0x3B0 DUP2 PUSH3 0x337 JUMP JUMPDEST DUP3 MSTORE POP POP JUMP JUMPDEST PUSH1 0x0 PUSH3 0x3C4 DUP4 DUP4 PUSH3 0x3A5 JUMP JUMPDEST PUSH1 0x20 DUP4 ADD SWAP1 POP SWAP3 SWAP2 POP POP JUMP JUMPDEST PUSH1 0x0 PUSH1 0x20 DUP3 ADD SWAP1 POP SWAP2 SWAP1 POP JUMP JUMPDEST PUSH1 0x0 PUSH3 0x3EA DUP3 PUSH3 0x379 JUMP JUMPDEST PUSH3 0x3F6 DUP2 DUP6 PUSH3 0x384 JUMP JUMPDEST SWAP4 POP PUSH3 0x403 DUP4 PUSH3 0x395 JUMP JUMPDEST DUP1 PUSH1 0x0 JUMPDEST DUP4 DUP2 LT ISZERO PUSH3 0x43A JUMPI DUP2 MLOAD PUSH3 0x41E DUP9 DUP3 PUSH3 0x3B6 JUMP JUMPDEST SWAP8 POP PUSH3 0x42B DUP4 PUSH3 0x3D0 JUMP JUMPDEST SWAP3 POP POP PUSH1 0x1 DUP2 ADD SWAP1 POP PUSH3 0x407 JUMP JUMPDEST POP DUP6 SWAP4 POP POP POP POP SWAP3 SWAP2 POP POP JUMP JUMPDEST PUSH1 0x0 PUSH1 0x20 DUP3 ADD SWAP1 POP DUP2 DUP2 SUB PUSH1 0x0 DUP4 ADD MSTORE PUSH3 0x463 DUP2 DUP5 PUSH3 0x3DD JUMP JUMPDEST SWAP1 POP SWAP3 SWAP2 POP POP JUMP JUMPDEST PUSH1 0x0 DUP1 REVERT JUMPDEST PUSH1 0x0 DUP1 REVERT JUMPDEST PUSH1 0x0 PUSH1 0x1F NOT PUSH1 0x1F DUP4 ADD AND SWAP1 POP SWAP2 SWAP1 POP JUMP JUMPDEST PUSH32 0x4E487B7100000000000000000000000000000000000000000000000000000000 PUSH1 0x0 MSTORE PUSH1 0x41 PUSH1 0x4 MSTORE PUSH1 0x24 PUSH1 0x0 REVERT JUMPDEST PUSH3 0x4C0 DUP3 PUSH3 0x475 JUMP JUMPDEST DUP2 ADD DUP2 DUP2 LT PUSH8 0xFFFFFFFFFFFFFFFF DUP3 GT OR ISZERO PUSH3 0x4E2 JUMPI PUSH3 0x4E1 PUSH3 0x486 JUMP JUMPDEST JUMPDEST DUP1 PUSH1 0x40 MSTORE POP POP POP JUMP JUMPDEST PUSH1 0x0 PUSH3 0x4F7 PUSH3 0x250 JUMP JUMPDEST SWAP1 POP PUSH3 0x505 DUP3 DUP3 PUSH3 0x4B5 JUMP JUMPDEST SWAP2 SWAP1 POP JUMP JUMPDEST PUSH1 0x0 PUSH8 0xFFFFFFFFFFFFFFFF DUP3 GT ISZERO PUSH3 0x528 JUMPI PUSH3 0x527 PUSH3 0x486 JUMP JUMPDEST JUMPDEST PUSH3 0x533 DUP3 PUSH3 0x475 JUMP JUMPDEST SWAP1 POP PUSH1 0x20 DUP2 ADD SWAP1 POP SWAP2 SWAP1 POP JUMP JUMPDEST DUP3 DUP2 DUP4 CALLDATACOPY PUSH1 0x0 DUP4 DUP4 ADD MSTORE POP POP POP JUMP JUMPDEST PUSH1 0x0 PUSH3 0x566 PUSH3 0x560 DUP5 PUSH3 0x50A JUMP JUMPDEST PUSH3 0x4EB JUMP JUMPDEST SWAP1 POP DUP3 DUP2 MSTORE PUSH1 0x20 DUP2 ADD DUP5 DUP5 DUP5 ADD GT ISZERO PUSH3 0x585 JUMPI PUSH3 0x584 PUSH3 0x470 JUMP JUMPDEST JUMPDEST PUSH3 0x592 DUP5 DUP3 DUP6 PUSH3 0x540 JUMP JUMPDEST POP SWAP4 SWAP3 POP POP POP JUMP JUMPDEST PUSH1 0x0 DUP3 PUSH1 0x1F DUP4 ADD SLT PUSH3 0x5B2 JUMPI PUSH3 0x5B1 PUSH3 0x46B JUMP JUMPDEST JUMPDEST DUP2 CALLDATALOAD PUSH3 0x5C4 DUP5 DUP3 PUSH1 0x20 DUP7 ADD PUSH3 0x54F JUMP JUMPDEST SWAP2 POP POP SWAP3 SWAP2 POP POP JUMP JUMPDEST PUSH1 0x0 DUP1 PUSH1 0x0 DUP1 PUSH1 0x80 DUP6 DUP8 SUB SLT ISZERO PUSH3 0x5EA JUMPI PUSH3 0x5E9 PUSH3 0x25A JUMP JUMPDEST JUMPDEST PUSH1 0x0 PUSH3 0x5FA DUP8 DUP3 DUP9 ADD PUSH3 0x288 JUMP JUMPDEST SWAP5 POP POP PUSH1 0x20 DUP6 ADD CALLDATALOAD PUSH8 0xFFFFFFFFFFFFFFFF DUP2 GT ISZERO PUSH3 0x61E JUMPI PUSH3 0x61D PUSH3 0x25F JUMP JUMPDEST JUMPDEST PUSH3 0x62C DUP8 DUP3 DUP9 ADD PUSH3 0x59A JUMP JUMPDEST SWAP4 POP POP PUSH1 0x40 DUP6 ADD CALLDATALOAD PUSH8 0xFFFFFFFFFFFFFFFF DUP2 GT ISZERO PUSH3 0x650 JUMPI PUSH3 0x64F PUSH3 0x25F JUMP JUMPDEST JUMPDEST PUSH3 0x65E DUP8 DUP3 DUP9 ADD PUSH3 0x59A JUMP JUMPDEST SWAP3 POP POP PUSH1 0x60 DUP6 ADD CALLDATALOAD PUSH8 0xFFFFFFFFFFFFFFFF DUP2 GT ISZERO PUSH3 0x682 JUMPI PUSH3 0x681 PUSH3 0x25F JUMP JUMPDEST JUMPDEST PUSH3 0x690 DUP8 DUP3 DUP9 ADD PUSH3 0x59A JUMP JUMPDEST SWAP2 POP POP SWAP3 SWAP6 SWAP2 SWAP5 POP SWAP3 POP JUMP JUMPDEST PUSH3 0x6A7 DUP2 PUSH3 0x264 JUMP JUMPDEST DUP3 MSTORE POP POP JUMP JUMPDEST PUSH1 0x0 PUSH3 0x6BA DUP3 PUSH3 0x2D1 JUMP JUMPDEST SWAP1 POP SWAP2 SWAP1 POP JUMP JUMPDEST PUSH3 0x6CC DUP2 PUSH3 0x6AD JUMP JUMPDEST DUP3 MSTORE POP POP JUMP JUMPDEST PUSH1 0x0 DUP2 MLOAD SWAP1 POP SWAP2 SWAP1 POP JUMP JUMPDEST PUSH1 0x0 DUP3 DUP3 MSTORE PUSH1 0x20 DUP3 ADD SWAP1 POP SWAP3 SWAP2 POP POP JUMP JUMPDEST PUSH1 0x0 JUMPDEST DUP4 DUP2 LT ISZERO PUSH3 0x70E JUMPI DUP1 DUP3 ADD MLOAD DUP2 DUP5 ADD MSTORE PUSH1 0x20 DUP2 ADD SWAP1 POP PUSH3 0x6F1 JUMP JUMPDEST DUP4 DUP2 GT ISZERO PUSH3 0x71E JUMPI PUSH1 0x0 DUP5 DUP5 ADD MSTORE JUMPDEST POP POP POP POP JUMP JUMPDEST PUSH1 0x0 PUSH3 0x731 DUP3 PUSH3 0x6D2 JUMP JUMPDEST PUSH3 0x73D DUP2 DUP6 PUSH3 0x6DD JUMP JUMPDEST SWAP4 POP PUSH3 0x74F DUP2 DUP6 PUSH1 0x20 DUP7 ADD PUSH3 0x6EE JUMP JUMPDEST PUSH3 0x75A DUP2 PUSH3 0x475 JUMP JUMPDEST DUP5 ADD SWAP2 POP POP SWAP3 SWAP2 POP POP JUMP JUMPDEST PUSH1 0x0 PUSH1 0xA0 DUP3 ADD SWAP1 POP PUSH3 0x77C PUSH1 0x0 DUP4 ADD DUP9 PUSH3 0x69C JUMP JUMPDEST PUSH3 0x78B PUSH1 0x20 DUP4 ADD DUP8 PUSH3 0x6C1 JUMP JUMPDEST DUP2 DUP2 SUB PUSH1 0x40 DUP4 ADD MSTORE PUSH3 0x79F DUP2 DUP7 PUSH3 0x724 JUMP JUMPDEST SWAP1 POP DUP2 DUP2 SUB PUSH1 0x60 DUP4 ADD MSTORE PUSH3 0x7B5 DUP2 DUP6 PUSH3 0x724 JUMP JUMPDEST SWAP1 POP DUP2 DUP2 SUB PUSH1 0x80 DUP4 ADD MSTORE PUSH3 0x7CB DUP2 DUP5 PUSH3 0x724 JUMP JUMPDEST SWAP1 POP SWAP7 SWAP6 POP POP POP POP POP POP JUMP INVALID PUSH1 0x80 PUSH1 0x40 MSTORE CALLVALUE DUP1 ISZERO PUSH3 0x11 JUMPI PUSH1 0x0 DUP1 REVERT JUMPDEST POP PUSH1 0x40 MLOAD PUSH3 0x1E69 CODESIZE SUB DUP1 PUSH3 0x1E69 DUP4 CODECOPY DUP2 DUP2 ADD PUSH1 0x40 MSTORE DUP2 ADD SWAP1 PUSH3 0x37 SWAP2 SWAP1 PUSH3 0x2FD JUMP JUMPDEST DUP4 PUSH1 0x2 PUSH1 0x0 PUSH2 0x100 EXP DUP2 SLOAD DUP2 PUSH20 0xFFFFFFFFFFFFFFFFFFFFFFFFFFFFFFFFFFFFFFFF MUL NOT AND SWAP1 DUP4 PUSH20 0xFFFFFFFFFFFFFFFFFFFFFFFFFFFFFFFFFFFFFFFF AND MUL OR SWAP1 SSTORE POP DUP5 PUSH1 0x3 DUP2 SWAP1 SSTORE POP DUP3 PUSH1 0x4 SWAP1 DUP2 PUSH3 0x90 SWAP2 SWAP1 PUSH3 0x623 JUMP JUMPDEST POP DUP2 PUSH1 0x5 SWAP1 DUP2 PUSH3 0xA2 SWAP2 SWAP1 PUSH3 0x623 JUMP JUMPDEST POP DUP1 PUSH1 0x6 SWAP1 DUP2 PUSH3 0xB4 SWAP2 SWAP1 PUSH3 0x623 JUMP JUMPDEST POP POP POP POP POP POP PUSH3 0x70A JUMP JUMPDEST PUSH1 0x0 PUSH1 0x40 MLOAD SWAP1 POP SWAP1 JUMP JUMPDEST PUSH1 0x0 DUP1 REVERT JUMPDEST PUSH1 0x0 DUP1 REVERT JUMPDEST PUSH1 0x0 DUP2 SWAP1 POP SWAP2 SWAP1 POP JUMP JUMPDEST PUSH3 0xE9 DUP2 PUSH3 0xD4 JUMP JUMPDEST DUP2 EQ PUSH3 0xF5 JUMPI PUSH1 0x0 DUP1 REVERT JUMPDEST POP JUMP JUMPDEST PUSH1 0x0 DUP2 MLOAD SWAP1 POP PUSH3 0x109 DUP2 PUSH3 0xDE JUMP JUMPDEST SWAP3 SWAP2 POP POP JUMP JUMPDEST PUSH1 0x0 PUSH20 0xFFFFFFFFFFFFFFFFFFFFFFFFFFFFFFFFFFFFFFFF DUP3 AND SWAP1 POP SWAP2 SWAP1 POP JUMP JUMPDEST PUSH1 0x0 PUSH3 0x13C DUP3 PUSH3 0x10F JUMP JUMPDEST SWAP1 POP SWAP2 SWAP1 POP JUMP JUMPDEST PUSH3 0x14E DUP2 PUSH3 0x12F JUMP JUMPDEST DUP2 EQ PUSH3 0x15A JUMPI PUSH1 0x0 DUP1 REVERT JUMPDEST POP JUMP JUMPDEST PUSH1 0x0 DUP2 MLOAD SWAP1 POP PUSH3 0x16E DUP2 PUSH3 0x143 JUMP JUMPDEST SWAP3 SWAP2 POP POP JUMP JUMPDEST PUSH1 0x0 DUP1 REVERT JUMPDEST PUSH1 0x0 DUP1 REVERT JUMPDEST PUSH1 0x0 PUSH1 0x1F NOT PUSH1 0x1F DUP4 ADD AND SWAP1 POP SWAP2 SWAP1 POP JUMP JUMPDEST PUSH32 0x4E487B7100000000000000000000000000000000000000000000000000000000 PUSH1 0x0 MSTORE PUSH1 0x41 PUSH1 0x4 MSTORE PUSH1 0x24 PUSH1 0x0 REVERT JUMPDEST PUSH3 0x1C9 DUP3 PUSH3 0x17E JUMP JUMPDEST DUP2 ADD DUP2 DUP2 LT PUSH8 0xFFFFFFFFFFFFFFFF DUP3 GT OR ISZERO PUSH3 0x1EB JUMPI PUSH3 0x1EA PUSH3 0x18F JUMP JUMPDEST JUMPDEST DUP1 PUSH1 0x40 MSTORE POP POP POP JUMP JUMPDEST PUSH1 0x0 PUSH3 0x200 PUSH3 0xC0 JUMP JUMPDEST SWAP1 POP PUSH3 0x20E DUP3 DUP3 PUSH3 0x1BE JUMP JUMPDEST SWAP2 SWAP1 POP JUMP JUMPDEST PUSH1 0x0 PUSH8 0xFFFFFFFFFFFFFFFF DUP3 GT ISZERO PUSH3 0x231 JUMPI PUSH3 0x230 PUSH3 0x18F JUMP JUMPDEST JUMPDEST PUSH3 0x23C DUP3 PUSH3 0x17E JUMP JUMPDEST SWAP1 POP PUSH1 0x20 DUP2 ADD SWAP1 POP SWAP2 SWAP1 POP JUMP JUMPDEST PUSH1 0x0 JUMPDEST DUP4 DUP2 LT ISZERO PUSH3 0x269 JUMPI DUP1 DUP3 ADD MLOAD DUP2 DUP5 ADD MSTORE PUSH1 0x20 DUP2 ADD SWAP1 POP PUSH3 0x24C JUMP JUMPDEST DUP4 DUP2 GT ISZERO PUSH3 0x279 JUMPI PUSH1 0x0 DUP5 DUP5 ADD MSTORE JUMPDEST POP POP POP POP JUMP JUMPDEST PUSH1 0x0 PUSH3 0x296 PUSH3 0x290 DUP5 PUSH3 0x213 JUMP JUMPDEST PUSH3 0x1F4 JUMP JUMPDEST SWAP1 POP DUP3 DUP2 MSTORE PUSH1 0x20 DUP2 ADD DUP5 DUP5 DUP5 ADD GT ISZERO PUSH3 0x2B5 JUMPI PUSH3 0x2B4 PUSH3 0x179 JUMP JUMPDEST JUMPDEST PUSH3 0x2C2 DUP5 DUP3 DUP6 PUSH3 0x249 JUMP JUMPDEST POP SWAP4 SWAP3 POP POP POP JUMP JUMPDEST PUSH1 0x0 DUP3 PUSH1 0x1F DUP4 ADD SLT PUSH3 0x2E2 JUMPI PUSH3 0x2E1 PUSH3 0x174 JUMP JUMPDEST JUMPDEST DUP2 MLOAD PUSH3 0x2F4 DUP5 DUP3 PUSH1 0x20 DUP7 ADD PUSH3 0x27F JUMP JUMPDEST SWAP2 POP POP SWAP3 SWAP2 POP POP JUMP JUMPDEST PUSH1 0x0 DUP1 PUSH1 0x0 DUP1 PUSH1 0x0 PUSH1 0xA0 DUP7 DUP9 SUB SLT ISZERO PUSH3 0x31C JUMPI PUSH3 0x31B PUSH3 0xCA JUMP JUMPDEST JUMPDEST PUSH1 0x0 PUSH3 0x32C DUP9 DUP3 DUP10 ADD PUSH3 0xF8 JUMP JUMPDEST SWAP6 POP POP PUSH1 0x20 PUSH3 0x33F DUP9 DUP3 DUP10 ADD PUSH3 0x15D JUMP JUMPDEST SWAP5 POP POP PUSH1 0x40 DUP7 ADD MLOAD PUSH8 0xFFFFFFFFFFFFFFFF DUP2 GT ISZERO PUSH3 0x363 JUMPI PUSH3 0x362 PUSH3 0xCF JUMP JUMPDEST JUMPDEST PUSH3 0x371 DUP9 DUP3 DUP10 ADD PUSH3 0x2CA JUMP JUMPDEST SWAP4 POP POP PUSH1 0x60 DUP7 ADD MLOAD PUSH8 0xFFFFFFFFFFFFFFFF DUP2 GT ISZERO PUSH3 0x395 JUMPI PUSH3 0x394 PUSH3 0xCF JUMP JUMPDEST JUMPDEST PUSH3 0x3A3 DUP9 DUP3 DUP10 ADD PUSH3 0x2CA JUMP JUMPDEST SWAP3 POP POP PUSH1 0x80 DUP7 ADD MLOAD PUSH8 0xFFFFFFFFFFFFFFFF DUP2 GT ISZERO PUSH3 0x3C7 JUMPI PUSH3 0x3C6 PUSH3 0xCF JUMP JUMPDEST JUMPDEST PUSH3 0x3D5 DUP9 DUP3 DUP10 ADD PUSH3 0x2CA JUMP JUMPDEST SWAP2 POP POP SWAP3 SWAP6 POP SWAP3 SWAP6 SWAP1 SWAP4 POP JUMP JUMPDEST PUSH1 0x0 DUP2 MLOAD SWAP1 POP SWAP2 SWAP1 POP JUMP JUMPDEST PUSH32 0x4E487B7100000000000000000000000000000000000000000000000000000000 PUSH1 0x0 MSTORE PUSH1 0x22 PUSH1 0x4 MSTORE PUSH1 0x24 PUSH1 0x0 REVERT JUMPDEST PUSH1 0x0 PUSH1 0x2 DUP3 DIV SWAP1 POP PUSH1 0x1 DUP3 AND DUP1 PUSH3 0x435 JUMPI PUSH1 0x7F DUP3 AND SWAP2 POP JUMPDEST PUSH1 0x20 DUP3 LT DUP2 SUB PUSH3 0x44B JUMPI PUSH3 0x44A PUSH3 0x3ED JUMP JUMPDEST JUMPDEST POP SWAP2 SWAP1 POP JUMP JUMPDEST PUSH1 0x0 DUP2 SWAP1 POP DUP2 PUSH1 0x0 MSTORE PUSH1 0x20 PUSH1 0x0 KECCAK256 SWAP1 POP SWAP2 SWAP1 POP JUMP JUMPDEST PUSH1 0x0 PUSH1 0x20 PUSH1 0x1F DUP4 ADD DIV SWAP1 POP SWAP2 SWAP1 POP JUMP JUMPDEST PUSH1 0x0 DUP3 DUP3 SHL SWAP1 POP SWAP3 SWAP2 POP POP JUMP JUMPDEST PUSH1 0x0 PUSH1 0x8 DUP4 MUL PUSH3 0x4B5 PUSH32 0xFFFFFFFFFFFFFFFFFFFFFFFFFFFFFFFFFFFFFFFFFFFFFFFFFFFFFFFFFFFFFFFF DUP3 PUSH3 0x476 JUMP JUMPDEST PUSH3 0x4C1 DUP7 DUP4 PUSH3 0x476 JUMP JUMPDEST SWAP6 POP DUP1 NOT DUP5 AND SWAP4 POP DUP1 DUP7 AND DUP5 OR SWAP3 POP POP POP SWAP4 SWAP3 POP POP POP JUMP JUMPDEST PUSH1 0x0 DUP2 SWAP1 POP SWAP2 SWAP1 POP JUMP JUMPDEST PUSH1 0x0 PUSH3 0x504 PUSH3 0x4FE PUSH3 0x4F8 DUP5 PUSH3 0xD4 JUMP JUMPDEST PUSH3 0x4D9 JUMP JUMPDEST PUSH3 0xD4 JUMP JUMPDEST SWAP1 POP SWAP2 SWAP1 POP JUMP JUMPDEST PUSH1 0x0 DUP2 SWAP1 POP SWAP2 SWAP1 POP JUMP JUMPDEST PUSH3 0x520 DUP4 PUSH3 0x4E3 JUMP JUMPDEST PUSH3 0x538 PUSH3 0x52F DUP3 PUSH3 0x50B JUMP JUMPDEST DUP5 DUP5 SLOAD PUSH3 0x483 JUMP JUMPDEST DUP3 SSTORE POP POP POP POP JUMP JUMPDEST PUSH1 0x0 SWAP1 JUMP JUMPDEST PUSH3 0x54F PUSH3 0x540 JUMP JUMPDEST PUSH3 0x55C DUP2 DUP5 DUP5 PUSH3 0x515 JUMP JUMPDEST POP POP POP JUMP JUMPDEST JUMPDEST DUP2 DUP2 LT ISZERO PUSH3 0x584 JUMPI PUSH3 0x578 PUSH1 0x0 DUP3 PUSH3 0x545 JUMP JUMPDEST PUSH1 0x1 DUP2 ADD SWAP1 POP PUSH3 0x562 JUMP JUMPDEST POP POP JUMP JUMPDEST PUSH1 0x1F DUP3 GT ISZERO PUSH3 0x5D3 JUMPI PUSH3 0x59D DUP2 PUSH3 0x451 JUMP JUMPDEST PUSH3 0x5A8 DUP5 PUSH3 0x466 JUMP JUMPDEST DUP2 ADD PUSH1 0x20 DUP6 LT ISZERO PUSH3 0x5B8 JUMPI DUP2 SWAP1 POP JUMPDEST PUSH3 0x5D0 PUSH3 0x5C7 DUP6 PUSH3 0x466 JUMP JUMPDEST DUP4 ADD DUP3 PUSH3 0x561 JUMP JUMPDEST POP POP JUMPDEST POP POP POP JUMP JUMPDEST PUSH1 0x0 DUP3 DUP3 SHR SWAP1 POP SWAP3 SWAP2 POP POP JUMP JUMPDEST PUSH1 0x0 PUSH3 0x5F8 PUSH1 0x0 NOT DUP5 PUSH1 0x8 MUL PUSH3 0x5D8 JUMP JUMPDEST NOT DUP1 DUP4 AND SWAP2 POP POP SWAP3 SWAP2 POP POP JUMP JUMPDEST PUSH1 0x0 PUSH3 0x613 DUP4 DUP4 PUSH3 0x5E5 JUMP JUMPDEST SWAP2 POP DUP3 PUSH1 0x2 MUL DUP3 OR SWAP1 POP SWAP3 SWAP2 POP POP JUMP JUMPDEST PUSH3 0x62E DUP3 PUSH3 0x3E2 JUMP JUMPDEST PUSH8 0xFFFFFFFFFFFFFFFF DUP2 GT ISZERO PUSH3 0x64A JUMPI PUSH3 0x649 PUSH3 0x18F JUMP JUMPDEST JUMPDEST PUSH3 0x656 DUP3 SLOAD PUSH3 0x41C JUMP JUMPDEST PUSH3 0x663 DUP3 DUP3 DUP6 PUSH3 0x588 JUMP JUMPDEST PUSH1 0x0 PUSH1 0x20 SWAP1 POP PUSH1 0x1F DUP4 GT PUSH1 0x1 DUP2 EQ PUSH3 0x69B JUMPI PUSH1 0x0 DUP5 ISZERO PUSH3 0x686 JUMPI DUP3 DUP8 ADD MLOAD SWAP1 POP JUMPDEST PUSH3 0x692 DUP6 DUP3 PUSH3 0x605 JUMP JUMPDEST DUP7 SSTORE POP PUSH3 0x702 JUMP JUMPDEST PUSH1 0x1F NOT DUP5 AND PUSH3 0x6AB DUP7 PUSH3 0x451 JUMP JUMPDEST PUSH1 0x0 JUMPDEST DUP3 DUP2 LT ISZERO PUSH3 0x6D5 JUMPI DUP5 DUP10 ADD MLOAD DUP3 SSTORE PUSH1 0x1 DUP3 ADD SWAP2 POP PUSH1 0x20 DUP6 ADD SWAP5 POP PUSH1 0x20 DUP2 ADD SWAP1 POP PUSH3 0x6AE JUMP JUMPDEST DUP7 DUP4 LT ISZERO PUSH3 0x6F5 JUMPI DUP5 DUP10 ADD MLOAD PUSH3 0x6F1 PUSH1 0x1F DUP10 AND DUP3 PUSH3 0x5E5 JUMP JUMPDEST DUP4 SSTORE POP JUMPDEST PUSH1 0x1 PUSH1 0x2 DUP9 MUL ADD DUP9 SSTORE POP POP POP JUMPDEST POP POP POP POP POP POP JUMP JUMPDEST PUSH2 0x174F DUP1 PUSH3 0x71A PUSH1 0x0 CODECOPY PUSH1 0x0 RETURN INVALID PUSH1 0x80 PUSH1 0x40 MSTORE PUSH1 0x4 CALLDATASIZE LT PUSH2 0xDD JUMPI PUSH1 0x0 CALLDATALOAD PUSH1 0xE0 SHR DUP1 PUSH4 0x82FDE093 GT PUSH2 0x7F JUMPI DUP1 PUSH4 0xABA83150 GT PUSH2 0x59 JUMPI DUP1 PUSH4 0xABA83150 EQ PUSH2 0x2CD JUMPI DUP1 PUSH4 0xD7BB99BA EQ PUSH2 0x2F8 JUMPI DUP1 PUSH4 0xD7D1BBDB EQ PUSH2 0x302 JUMPI DUP1 PUSH4 0xEBD94E21 EQ PUSH2 0x32B JUMPI PUSH2 0xDD JUMP JUMPDEST DUP1 PUSH4 0x82FDE093 EQ PUSH2 0x24E JUMPI DUP1 PUSH4 0x8A9CFD55 EQ PUSH2 0x279 JUMPI DUP1 PUSH4 0x937E09B1 EQ PUSH2 0x2A2 JUMPI PUSH2 0xDD JUMP JUMPDEST DUP1 PUSH4 0x4051DDAC GT PUSH2 0xBB JUMPI DUP1 PUSH4 0x4051DDAC EQ PUSH2 0x173 JUMPI DUP1 PUSH4 0x481C6A75 EQ PUSH2 0x1A5 JUMPI DUP1 PUSH4 0x49367252 EQ PUSH2 0x1D0 JUMPI DUP1 PUSH4 0x81D12C58 EQ PUSH2 0x20D JUMPI PUSH2 0xDD JUMP JUMPDEST DUP1 PUSH4 0x3441006 EQ PUSH2 0xE2 JUMPI DUP1 PUSH4 0x724FDA9 EQ PUSH2 0x10B JUMPI DUP1 PUSH4 0xA144391 EQ PUSH2 0x136 JUMPI JUMPDEST PUSH1 0x0 DUP1 REVERT JUMPDEST CALLVALUE DUP1 ISZERO PUSH2 0xEE JUMPI PUSH1 0x0 DUP1 REVERT JUMPDEST POP PUSH2 0x109 PUSH1 0x4 DUP1 CALLDATASIZE SUB DUP2 ADD SWAP1 PUSH2 0x104 SWAP2 SWAP1 PUSH2 0xE1D JUMP JUMPDEST PUSH2 0x356 JUMP JUMPDEST STOP JUMPDEST CALLVALUE DUP1 ISZERO PUSH2 0x117 JUMPI PUSH1 0x0 DUP1 REVERT JUMPDEST POP PUSH2 0x120 PUSH2 0x4C7 JUMP JUMPDEST PUSH1 0x40 MLOAD PUSH2 0x12D SWAP2 SWAP1 PUSH2 0xEE3 JUMP JUMPDEST PUSH1 0x40 MLOAD DUP1 SWAP2 SUB SWAP1 RETURN JUMPDEST CALLVALUE DUP1 ISZERO PUSH2 0x142 JUMPI PUSH1 0x0 DUP1 REVERT JUMPDEST POP PUSH2 0x15D PUSH1 0x4 DUP1 CALLDATASIZE SUB DUP2 ADD SWAP1 PUSH2 0x158 SWAP2 SWAP1 PUSH2 0xF63 JUMP JUMPDEST PUSH2 0x555 JUMP JUMPDEST PUSH1 0x40 MLOAD PUSH2 0x16A SWAP2 SWAP1 PUSH2 0xFAB JUMP JUMPDEST PUSH1 0x40 MLOAD DUP1 SWAP2 SUB SWAP1 RETURN JUMPDEST CALLVALUE DUP1 ISZERO PUSH2 0x17F JUMPI PUSH1 0x0 DUP1 REVERT JUMPDEST POP PUSH2 0x188 PUSH2 0x575 JUMP JUMPDEST PUSH1 0x40 MLOAD PUSH2 0x19C SWAP9 SWAP8 SWAP7 SWAP6 SWAP5 SWAP4 SWAP3 SWAP2 SWAP1 PUSH2 0xFE4 JUMP JUMPDEST PUSH1 0x40 MLOAD DUP1 SWAP2 SUB SWAP1 RETURN JUMPDEST CALLVALUE DUP1 ISZERO PUSH2 0x1B1 JUMPI PUSH1 0x0 DUP1 REVERT JUMPDEST POP PUSH2 0x1BA PUSH2 0x773 JUMP JUMPDEST PUSH1 0x40 MLOAD PUSH2 0x1C7 SWAP2 SWAP1 PUSH2 0x1077 JUMP JUMPDEST PUSH1 0x40 MLOAD DUP1 SWAP2 SUB SWAP1 RETURN JUMPDEST CALLVALUE DUP1 ISZERO PUSH2 0x1DC JUMPI PUSH1 0x0 DUP1 REVERT JUMPDEST POP PUSH2 0x1F7 PUSH1 0x4 DUP1 CALLDATASIZE SUB DUP2 ADD SWAP1 PUSH2 0x1F2 SWAP2 SWAP1 PUSH2 0xE1D JUMP JUMPDEST PUSH2 0x799 JUMP JUMPDEST PUSH1 0x40 MLOAD PUSH2 0x204 SWAP2 SWAP1 PUSH2 0xFAB JUMP JUMPDEST PUSH1 0x40 MLOAD DUP1 SWAP2 SUB SWAP1 RETURN JUMPDEST CALLVALUE DUP1 ISZERO PUSH2 0x219 JUMPI PUSH1 0x0 DUP1 REVERT JUMPDEST POP PUSH2 0x234 PUSH1 0x4 DUP1 CALLDATASIZE SUB DUP2 ADD SWAP1 PUSH2 0x22F SWAP2 SWAP1 PUSH2 0xE1D JUMP JUMPDEST PUSH2 0x803 JUMP JUMPDEST PUSH1 0x40 MLOAD PUSH2 0x245 SWAP6 SWAP5 SWAP4 SWAP3 SWAP2 SWAP1 PUSH2 0x10B3 JUMP JUMPDEST PUSH1 0x40 MLOAD DUP1 SWAP2 SUB SWAP1 RETURN JUMPDEST CALLVALUE DUP1 ISZERO PUSH2 0x25A JUMPI PUSH1 0x0 DUP1 REVERT JUMPDEST POP PUSH2 0x263 PUSH2 0x8EE JUMP JUMPDEST PUSH1 0x40 MLOAD PUSH2 0x270 SWAP2 SWAP1 PUSH2 0x110D JUMP JUMPDEST PUSH1 0x40 MLOAD DUP1 SWAP2 SUB SWAP1 RETURN JUMPDEST CALLVALUE DUP1 ISZERO PUSH2 0x285 JUMPI PUSH1 0x0 DUP1 REVERT JUMPDEST POP PUSH2 0x2A0 PUSH1 0x4 DUP1 CALLDATASIZE SUB DUP2 ADD SWAP1 PUSH2 0x29B SWAP2 SWAP1 PUSH2 0x1289 JUMP JUMPDEST PUSH2 0x8F4 JUMP JUMPDEST STOP JUMPDEST CALLVALUE DUP1 ISZERO PUSH2 0x2AE JUMPI PUSH1 0x0 DUP1 REVERT JUMPDEST POP PUSH2 0x2B7 PUSH2 0xAA1 JUMP JUMPDEST PUSH1 0x40 MLOAD PUSH2 0x2C4 SWAP2 SWAP1 PUSH2 0x110D JUMP JUMPDEST PUSH1 0x40 MLOAD DUP1 SWAP2 SUB SWAP1 RETURN JUMPDEST CALLVALUE DUP1 ISZERO PUSH2 0x2D9 JUMPI PUSH1 0x0 DUP1 REVERT JUMPDEST POP PUSH2 0x2E2 PUSH2 0xAA7 JUMP JUMPDEST PUSH1 0x40 MLOAD PUSH2 0x2EF SWAP2 SWAP1 PUSH2 0xEE3 JUMP JUMPDEST PUSH1 0x40 MLOAD DUP1 SWAP2 SUB SWAP1 RETURN JUMPDEST PUSH2 0x300 PUSH2 0xB35 JUMP JUMPDEST STOP JUMPDEST CALLVALUE DUP1 ISZERO PUSH2 0x30E JUMPI PUSH1 0x0 DUP1 REVERT JUMPDEST POP PUSH2 0x329 PUSH1 0x4 DUP1 CALLDATASIZE SUB DUP2 ADD SWAP1 PUSH2 0x324 SWAP2 SWAP1 PUSH2 0xE1D JUMP JUMPDEST PUSH2 0xC07 JUMP JUMPDEST STOP JUMPDEST CALLVALUE DUP1 ISZERO PUSH2 0x337 JUMPI PUSH1 0x0 DUP1 REVERT JUMPDEST POP PUSH2 0x340 PUSH2 0xD45 JUMP JUMPDEST PUSH1 0x40 MLOAD PUSH2 0x34D SWAP2 SWAP1 PUSH2 0xEE3 JUMP JUMPDEST PUSH1 0x40 MLOAD DUP1 SWAP2 SUB SWAP1 RETURN JUMPDEST PUSH1 0x2 PUSH1 0x0 SWAP1 SLOAD SWAP1 PUSH2 0x100 EXP SWAP1 DIV PUSH20 0xFFFFFFFFFFFFFFFFFFFFFFFFFFFFFFFFFFFFFFFF AND PUSH20 0xFFFFFFFFFFFFFFFFFFFFFFFFFFFFFFFFFFFFFFFF AND CALLER PUSH20 0xFFFFFFFFFFFFFFFFFFFFFFFFFFFFFFFFFFFFFFFF AND EQ PUSH2 0x3E6 JUMPI PUSH1 0x40 MLOAD PUSH32 0x8C379A000000000000000000000000000000000000000000000000000000000 DUP2 MSTORE PUSH1 0x4 ADD PUSH2 0x3DD SWAP1 PUSH2 0x1344 JUMP JUMPDEST PUSH1 0x40 MLOAD DUP1 SWAP2 SUB SWAP1 REVERT JUMPDEST PUSH1 0x0 PUSH1 0x1 PUSH1 0x0 DUP4 DUP2 MSTORE PUSH1 0x20 ADD SWAP1 DUP2 MSTORE PUSH1 0x20 ADD PUSH1 0x0 KECCAK256 SWAP1 POP DUP1 PUSH1 0x2 ADD PUSH1 0x14 SWAP1 SLOAD SWAP1 PUSH2 0x100 EXP SWAP1 DIV PUSH1 0xFF AND ISZERO PUSH2 0x419 JUMPI PUSH1 0x0 DUP1 REVERT JUMPDEST PUSH1 0x2 PUSH1 0x8 SLOAD PUSH2 0x428 SWAP2 SWAP1 PUSH2 0x13C2 JUMP JUMPDEST DUP2 PUSH1 0x4 ADD SLOAD GT PUSH2 0x437 JUMPI PUSH1 0x0 DUP1 REVERT JUMPDEST DUP1 PUSH1 0x2 ADD PUSH1 0x0 SWAP1 SLOAD SWAP1 PUSH2 0x100 EXP SWAP1 DIV PUSH20 0xFFFFFFFFFFFFFFFFFFFFFFFFFFFFFFFFFFFFFFFF AND PUSH20 0xFFFFFFFFFFFFFFFFFFFFFFFFFFFFFFFFFFFFFFFF AND PUSH2 0x8FC DUP3 PUSH1 0x1 ADD SLOAD SWAP1 DUP2 ISZERO MUL SWAP1 PUSH1 0x40 MLOAD PUSH1 0x0 PUSH1 0x40 MLOAD DUP1 DUP4 SUB DUP2 DUP6 DUP9 DUP9 CALL SWAP4 POP POP POP POP ISZERO DUP1 ISZERO PUSH2 0x4A5 JUMPI RETURNDATASIZE PUSH1 0x0 DUP1 RETURNDATACOPY RETURNDATASIZE PUSH1 0x0 REVERT JUMPDEST POP PUSH1 0x1 DUP2 PUSH1 0x2 ADD PUSH1 0x14 PUSH2 0x100 EXP DUP2 SLOAD DUP2 PUSH1 0xFF MUL NOT AND SWAP1 DUP4 ISZERO ISZERO MUL OR SWAP1 SSTORE POP POP POP JUMP JUMPDEST PUSH1 0x4 DUP1 SLOAD PUSH2 0x4D4 SWAP1 PUSH2 0x1422 JUMP JUMPDEST DUP1 PUSH1 0x1F ADD PUSH1 0x20 DUP1 SWAP2 DIV MUL PUSH1 0x20 ADD PUSH1 0x40 MLOAD SWAP1 DUP2 ADD PUSH1 0x40 MSTORE DUP1 SWAP3 SWAP2 SWAP1 DUP2 DUP2 MSTORE PUSH1 0x20 ADD DUP3 DUP1 SLOAD PUSH2 0x500 SWAP1 PUSH2 0x1422 JUMP JUMPDEST DUP1 ISZERO PUSH2 0x54D JUMPI DUP1 PUSH1 0x1F LT PUSH2 0x522 JUMPI PUSH2 0x100 DUP1 DUP4 SLOAD DIV MUL DUP4 MSTORE SWAP2 PUSH1 0x20 ADD SWAP2 PUSH2 0x54D JUMP JUMPDEST DUP3 ADD SWAP2 SWAP1 PUSH1 0x0 MSTORE PUSH1 0x20 PUSH1 0x0 KECCAK256 SWAP1 JUMPDEST DUP2 SLOAD DUP2 MSTORE SWAP1 PUSH1 0x1 ADD SWAP1 PUSH1 0x20 ADD DUP1 DUP4 GT PUSH2 0x530 JUMPI DUP3 SWAP1 SUB PUSH1 0x1F AND DUP3 ADD SWAP2 JUMPDEST POP POP POP POP POP DUP2 JUMP JUMPDEST PUSH1 0x7 PUSH1 0x20 MSTORE DUP1 PUSH1 0x0 MSTORE PUSH1 0x40 PUSH1 0x0 KECCAK256 PUSH1 0x0 SWAP2 POP SLOAD SWAP1 PUSH2 0x100 EXP SWAP1 DIV PUSH1 0xFF AND DUP2 JUMP JUMPDEST PUSH1 0x0 DUP1 PUSH1 0x0 DUP1 PUSH1 0x0 PUSH1 0x60 DUP1 PUSH1 0x60 PUSH1 0x3 SLOAD SELFBALANCE PUSH1 0x0 SLOAD PUSH1 0x8 SLOAD PUSH1 0x2 PUSH1 0x0 SWAP1 SLOAD SWAP1 PUSH2 0x100 EXP SWAP1 DIV PUSH20 0xFFFFFFFFFFFFFFFFFFFFFFFFFFFFFFFFFFFFFFFF AND PUSH1 0x4 PUSH1 0x5 PUSH1 0x6 DUP3 DUP1 SLOAD PUSH2 0x5C1 SWAP1 PUSH2 0x1422 JUMP JUMPDEST DUP1 PUSH1 0x1F ADD PUSH1 0x20 DUP1 SWAP2 DIV MUL PUSH1 0x20 ADD PUSH1 0x40 MLOAD SWAP1 DUP2 ADD PUSH1 0x40 MSTORE DUP1 SWAP3 SWAP2 SWAP1 DUP2 DUP2 MSTORE PUSH1 0x20 ADD DUP3 DUP1 SLOAD PUSH2 0x5ED SWAP1 PUSH2 0x1422 JUMP JUMPDEST DUP1 ISZERO PUSH2 0x63A JUMPI DUP1 PUSH1 0x1F LT PUSH2 0x60F JUMPI PUSH2 0x100 DUP1 DUP4 SLOAD DIV MUL DUP4 MSTORE SWAP2 PUSH1 0x20 ADD SWAP2 PUSH2 0x63A JUMP JUMPDEST DUP3 ADD SWAP2 SWAP1 PUSH1 0x0 MSTORE PUSH1 0x20 PUSH1 0x0 KECCAK256 SWAP1 JUMPDEST DUP2 SLOAD DUP2 MSTORE SWAP1 PUSH1 0x1 ADD SWAP1 PUSH1 0x20 ADD DUP1 DUP4 GT PUSH2 0x61D JUMPI DUP3 SWAP1 SUB PUSH1 0x1F AND DUP3 ADD SWAP2 JUMPDEST POP POP POP POP POP SWAP3 POP DUP2 DUP1 SLOAD PUSH2 0x64D SWAP1 PUSH2 0x1422 JUMP JUMPDEST DUP1 PUSH1 0x1F ADD PUSH1 0x20 DUP1 SWAP2 DIV MUL PUSH1 0x20 ADD PUSH1 0x40 MLOAD SWAP1 DUP2 ADD PUSH1 0x40 MSTORE DUP1 SWAP3 SWAP2 SWAP1 DUP2 DUP2 MSTORE PUSH1 0x20 ADD DUP3 DUP1 SLOAD PUSH2 0x679 SWAP1 PUSH2 0x1422 JUMP JUMPDEST DUP1 ISZERO PUSH2 0x6C6 JUMPI DUP1 PUSH1 0x1F LT PUSH2 0x69B JUMPI PUSH2 0x100 DUP1 DUP4 SLOAD DIV MUL DUP4 MSTORE SWAP2 PUSH1 0x20 ADD SWAP2 PUSH2 0x6C6 JUMP JUMPDEST DUP3 ADD SWAP2 SWAP1 PUSH1 0x0 MSTORE PUSH1 0x20 PUSH1 0x0 KECCAK256 SWAP1 JUMPDEST DUP2 SLOAD DUP2 MSTORE SWAP1 PUSH1 0x1 ADD SWAP1 PUSH1 0x20 ADD DUP1 DUP4 GT PUSH2 0x6A9 JUMPI DUP3 SWAP1 SUB PUSH1 0x1F AND DUP3 ADD SWAP2 JUMPDEST POP POP POP POP POP SWAP2 POP DUP1 DUP1 SLOAD PUSH2 0x6D9 SWAP1 PUSH2 0x1422 JUMP JUMPDEST DUP1 PUSH1 0x1F ADD PUSH1 0x20 DUP1 SWAP2 DIV MUL PUSH1 0x20 ADD PUSH1 0x40 MLOAD SWAP1 DUP2 ADD PUSH1 0x40 MSTORE DUP1 SWAP3 SWAP2 SWAP1 DUP2 DUP2 MSTORE PUSH1 0x20 ADD DUP3 DUP1 SLOAD PUSH2 0x705 SWAP1 PUSH2 0x1422 JUMP JUMPDEST DUP1 ISZERO PUSH2 0x752 JUMPI DUP1 PUSH1 0x1F LT PUSH2 0x727 JUMPI PUSH2 0x100 DUP1 DUP4 SLOAD DIV MUL DUP4 MSTORE SWAP2 PUSH1 0x20 ADD SWAP2 PUSH2 0x752 JUMP JUMPDEST DUP3 ADD SWAP2 SWAP1 PUSH1 0x0 MSTORE PUSH1 0x20 PUSH1 0x0 KECCAK256 SWAP1 JUMPDEST DUP2 SLOAD DUP2 MSTORE SWAP1 PUSH1 0x1 ADD SWAP1 PUSH1 0x20 ADD DUP1 DUP4 GT PUSH2 0x735 JUMPI DUP3 SWAP1 SUB PUSH1 0x1F AND DUP3 ADD SWAP2 JUMPDEST POP POP POP POP POP SWAP1 POP SWAP8 POP SWAP8 POP SWAP8 POP SWAP8 POP SWAP8 POP SWAP8 POP SWAP8 POP SWAP8 POP SWAP1 SWAP2 SWAP3 SWAP4 SWAP5 SWAP6 SWAP7 SWAP8 JUMP JUMPDEST PUSH1 0x2 PUSH1 0x0 SWAP1 SLOAD SWAP1 PUSH2 0x100 EXP SWAP1 DIV PUSH20 0xFFFFFFFFFFFFFFFFFFFFFFFFFFFFFFFFFFFFFFFF AND DUP2 JUMP JUMPDEST PUSH1 0x0 PUSH1 0x1 PUSH1 0x0 DUP4 DUP2 MSTORE PUSH1 0x20 ADD SWAP1 DUP2 MSTORE PUSH1 0x20 ADD PUSH1 0x0 KECCAK256 PUSH1 0x3 ADD PUSH1 0x0 CALLER PUSH20 0xFFFFFFFFFFFFFFFFFFFFFFFFFFFFFFFFFFFFFFFF AND PUSH20 0xFFFFFFFFFFFFFFFFFFFFFFFFFFFFFFFFFFFFFFFF AND DUP2 MSTORE PUSH1 0x20 ADD SWAP1 DUP2 MSTORE PUSH1 0x20 ADD PUSH1 0x0 KECCAK256 PUSH1 0x0 SWAP1 SLOAD SWAP1 PUSH2 0x100 EXP SWAP1 DIV PUSH1 0xFF AND SWAP1 POP SWAP2 SWAP1 POP JUMP JUMPDEST PUSH1 0x1 PUSH1 0x20 MSTORE DUP1 PUSH1 0x0 MSTORE PUSH1 0x40 PUSH1 0x0 KECCAK256 PUSH1 0x0 SWAP2 POP SWAP1 POP DUP1 PUSH1 0x0 ADD DUP1 SLOAD PUSH2 0x826 SWAP1 PUSH2 0x1422 JUMP JUMPDEST DUP1 PUSH1 0x1F ADD PUSH1 0x20 DUP1 SWAP2 DIV MUL PUSH1 0x20 ADD PUSH1 0x40 MLOAD SWAP1 DUP2 ADD PUSH1 0x40 MSTORE DUP1 SWAP3 SWAP2 SWAP1 DUP2 DUP2 MSTORE PUSH1 0x20 ADD DUP3 DUP1 SLOAD PUSH2 0x852 SWAP1 PUSH2 0x1422 JUMP JUMPDEST DUP1 ISZERO PUSH2 0x89F JUMPI DUP1 PUSH1 0x1F LT PUSH2 0x874 JUMPI PUSH2 0x100 DUP1 DUP4 SLOAD DIV MUL DUP4 MSTORE SWAP2 PUSH1 0x20 ADD SWAP2 PUSH2 0x89F JUMP JUMPDEST DUP3 ADD SWAP2 SWAP1 PUSH1 0x0 MSTORE PUSH1 0x20 PUSH1 0x0 KECCAK256 SWAP1 JUMPDEST DUP2 SLOAD DUP2 MSTORE SWAP1 PUSH1 0x1 ADD SWAP1 PUSH1 0x20 ADD DUP1 DUP4 GT PUSH2 0x882 JUMPI DUP3 SWAP1 SUB PUSH1 0x1F AND DUP3 ADD SWAP2 JUMPDEST POP POP POP POP POP SWAP1 DUP1 PUSH1 0x1 ADD SLOAD SWAP1 DUP1 PUSH1 0x2 ADD PUSH1 0x0 SWAP1 SLOAD SWAP1 PUSH2 0x100 EXP SWAP1 DIV PUSH20 0xFFFFFFFFFFFFFFFFFFFFFFFFFFFFFFFFFFFFFFFF AND SWAP1 DUP1 PUSH1 0x2 ADD PUSH1 0x14 SWAP1 SLOAD SWAP1 PUSH2 0x100 EXP SWAP1 DIV PUSH1 0xFF AND SWAP1 DUP1 PUSH1 0x4 ADD SLOAD SWAP1 POP DUP6 JUMP JUMPDEST PUSH1 0x8 SLOAD DUP2 JUMP JUMPDEST PUSH1 0x2 PUSH1 0x0 SWAP1 SLOAD SWAP1 PUSH2 0x100 EXP SWAP1 DIV PUSH20 0xFFFFFFFFFFFFFFFFFFFFFFFFFFFFFFFFFFFFFFFF AND PUSH20 0xFFFFFFFFFFFFFFFFFFFFFFFFFFFFFFFFFFFFFFFF AND CALLER PUSH20 0xFFFFFFFFFFFFFFFFFFFFFFFFFFFFFFFFFFFFFFFF AND EQ PUSH2 0x984 JUMPI PUSH1 0x40 MLOAD PUSH32 0x8C379A000000000000000000000000000000000000000000000000000000000 DUP2 MSTORE PUSH1 0x4 ADD PUSH2 0x97B SWAP1 PUSH2 0x1344 JUMP JUMPDEST PUSH1 0x40 MLOAD DUP1 SWAP2 SUB SWAP1 REVERT JUMPDEST PUSH1 0x7 PUSH1 0x0 CALLER PUSH20 0xFFFFFFFFFFFFFFFFFFFFFFFFFFFFFFFFFFFFFFFF AND PUSH20 0xFFFFFFFFFFFFFFFFFFFFFFFFFFFFFFFFFFFFFFFF AND DUP2 MSTORE PUSH1 0x20 ADD SWAP1 DUP2 MSTORE PUSH1 0x20 ADD PUSH1 0x0 KECCAK256 PUSH1 0x0 SWAP1 SLOAD SWAP1 PUSH2 0x100 EXP SWAP1 DIV PUSH1 0xFF AND PUSH2 0x9DA JUMPI PUSH1 0x0 DUP1 REVERT JUMPDEST SELFBALANCE DUP3 GT ISZERO PUSH2 0x9E7 JUMPI PUSH1 0x0 DUP1 REVERT JUMPDEST PUSH1 0x0 PUSH1 0x1 PUSH1 0x0 DUP1 SLOAD DUP2 MSTORE PUSH1 0x20 ADD SWAP1 DUP2 MSTORE PUSH1 0x20 ADD PUSH1 0x0 KECCAK256 SWAP1 POP PUSH1 0x0 DUP1 DUP2 SLOAD DUP1 SWAP3 SWAP2 SWAP1 PUSH2 0xA11 SWAP1 PUSH2 0x1453 JUMP JUMPDEST SWAP2 SWAP1 POP SSTORE POP DUP4 DUP2 PUSH1 0x0 ADD SWAP1 DUP2 PUSH2 0xA27 SWAP2 SWAP1 PUSH2 0x1647 JUMP JUMPDEST POP DUP3 DUP2 PUSH1 0x1 ADD DUP2 SWAP1 SSTORE POP DUP2 DUP2 PUSH1 0x2 ADD PUSH1 0x0 PUSH2 0x100 EXP DUP2 SLOAD DUP2 PUSH20 0xFFFFFFFFFFFFFFFFFFFFFFFFFFFFFFFFFFFFFFFF MUL NOT AND SWAP1 DUP4 PUSH20 0xFFFFFFFFFFFFFFFFFFFFFFFFFFFFFFFFFFFFFFFF AND MUL OR SWAP1 SSTORE POP PUSH1 0x0 DUP2 PUSH1 0x2 ADD PUSH1 0x14 PUSH2 0x100 EXP DUP2 SLOAD DUP2 PUSH1 0xFF MUL NOT AND SWAP1 DUP4 ISZERO ISZERO MUL OR SWAP1 SSTORE POP PUSH1 0x0 DUP2 PUSH1 0x4 ADD DUP2 SWAP1 SSTORE POP POP POP POP POP JUMP JUMPDEST PUSH1 0x3 SLOAD DUP2 JUMP JUMPDEST PUSH1 0x6 DUP1 SLOAD PUSH2 0xAB4 SWAP1 PUSH2 0x1422 JUMP JUMPDEST DUP1 PUSH1 0x1F ADD PUSH1 0x20 DUP1 SWAP2 DIV MUL PUSH1 0x20 ADD PUSH1 0x40 MLOAD SWAP1 DUP2 ADD PUSH1 0x40 MSTORE DUP1 SWAP3 SWAP2 SWAP1 DUP2 DUP2 MSTORE PUSH1 0x20 ADD DUP3 DUP1 SLOAD PUSH2 0xAE0 SWAP1 PUSH2 0x1422 JUMP JUMPDEST DUP1 ISZERO PUSH2 0xB2D JUMPI DUP1 PUSH1 0x1F LT PUSH2 0xB02 JUMPI PUSH2 0x100 DUP1 DUP4 SLOAD DIV MUL DUP4 MSTORE SWAP2 PUSH1 0x20 ADD SWAP2 PUSH2 0xB2D JUMP JUMPDEST DUP3 ADD SWAP2 SWAP1 PUSH1 0x0 MSTORE PUSH1 0x20 PUSH1 0x0 KECCAK256 SWAP1 JUMPDEST DUP2 SLOAD DUP2 MSTORE SWAP1 PUSH1 0x1 ADD SWAP1 PUSH1 0x20 ADD DUP1 DUP4 GT PUSH2 0xB10 JUMPI DUP3 SWAP1 SUB PUSH1 0x1F AND DUP3 ADD SWAP2 JUMPDEST POP POP POP POP POP DUP2 JUMP JUMPDEST PUSH1 0x3 SLOAD CALLVALUE GT PUSH2 0xB43 JUMPI PUSH1 0x0 DUP1 REVERT JUMPDEST PUSH1 0x7 PUSH1 0x0 CALLER PUSH20 0xFFFFFFFFFFFFFFFFFFFFFFFFFFFFFFFFFFFFFFFF AND PUSH20 0xFFFFFFFFFFFFFFFFFFFFFFFFFFFFFFFFFFFFFFFF AND DUP2 MSTORE PUSH1 0x20 ADD SWAP1 DUP2 MSTORE PUSH1 0x20 ADD PUSH1 0x0 KECCAK256 PUSH1 0x0 SWAP1 SLOAD SWAP1 PUSH2 0x100 EXP SWAP1 DIV PUSH1 0xFF AND PUSH2 0xBAD JUMPI PUSH1 0x8 PUSH1 0x0 DUP2 SLOAD DUP1 SWAP3 SWAP2 SWAP1 PUSH2 0xBA7 SWAP1 PUSH2 0x1453 JUMP JUMPDEST SWAP2 SWAP1 POP SSTORE POP JUMPDEST PUSH1 0x1 PUSH1 0x7 PUSH1 0x0 CALLER PUSH20 0xFFFFFFFFFFFFFFFFFFFFFFFFFFFFFFFFFFFFFFFF AND PUSH20 0xFFFFFFFFFFFFFFFFFFFFFFFFFFFFFFFFFFFFFFFF AND DUP2 MSTORE PUSH1 0x20 ADD SWAP1 DUP2 MSTORE PUSH1 0x20 ADD PUSH1 0x0 KECCAK256 PUSH1 0x0 PUSH2 0x100 EXP DUP2 SLOAD DUP2 PUSH1 0xFF MUL NOT AND SWAP1 DUP4 ISZERO ISZERO MUL OR SWAP1 SSTORE POP JUMP JUMPDEST PUSH1 0x0 PUSH1 0x1 PUSH1 0x0 DUP4 DUP2 MSTORE PUSH1 0x20 ADD SWAP1 DUP2 MSTORE PUSH1 0x20 ADD PUSH1 0x0 KECCAK256 SWAP1 POP PUSH1 0x7 PUSH1 0x0 CALLER PUSH20 0xFFFFFFFFFFFFFFFFFFFFFFFFFFFFFFFFFFFFFFFF AND PUSH20 0xFFFFFFFFFFFFFFFFFFFFFFFFFFFFFFFFFFFFFFFF AND DUP2 MSTORE PUSH1 0x20 ADD SWAP1 DUP2 MSTORE PUSH1 0x20 ADD PUSH1 0x0 KECCAK256 PUSH1 0x0 SWAP1 SLOAD SWAP1 PUSH2 0x100 EXP SWAP1 DIV PUSH1 0xFF AND PUSH2 0xC74 JUMPI PUSH1 0x0 DUP1 REVERT JUMPDEST DUP1 PUSH1 0x3 ADD PUSH1 0x0 CALLER PUSH20 0xFFFFFFFFFFFFFFFFFFFFFFFFFFFFFFFFFFFFFFFF AND PUSH20 0xFFFFFFFFFFFFFFFFFFFFFFFFFFFFFFFFFFFFFFFF AND DUP2 MSTORE PUSH1 0x20 ADD SWAP1 DUP2 MSTORE PUSH1 0x20 ADD PUSH1 0x0 KECCAK256 PUSH1 0x0 SWAP1 SLOAD SWAP1 PUSH2 0x100 EXP SWAP1 DIV PUSH1 0xFF AND ISZERO PUSH2 0xCCD JUMPI PUSH1 0x0 DUP1 REVERT JUMPDEST PUSH1 0x1 DUP2 PUSH1 0x3 ADD PUSH1 0x0 CALLER PUSH20 0xFFFFFFFFFFFFFFFFFFFFFFFFFFFFFFFFFFFFFFFF AND PUSH20 0xFFFFFFFFFFFFFFFFFFFFFFFFFFFFFFFFFFFFFFFF AND DUP2 MSTORE PUSH1 0x20 ADD SWAP1 DUP2 MSTORE PUSH1 0x20 ADD PUSH1 0x0 KECCAK256 PUSH1 0x0 PUSH2 0x100 EXP DUP2 SLOAD DUP2 PUSH1 0xFF MUL NOT AND SWAP1 DUP4 ISZERO ISZERO MUL OR SWAP1 SSTORE POP DUP1 PUSH1 0x4 ADD PUSH1 0x0 DUP2 SLOAD DUP1 SWAP3 SWAP2 SWAP1 PUSH2 0xD3C SWAP1 PUSH2 0x1453 JUMP JUMPDEST SWAP2 SWAP1 POP SSTORE POP POP POP JUMP JUMPDEST PUSH1 0x5 DUP1 SLOAD PUSH2 0xD52 SWAP1 PUSH2 0x1422 JUMP JUMPDEST DUP1 PUSH1 0x1F ADD PUSH1 0x20 DUP1 SWAP2 DIV MUL PUSH1 0x20 ADD PUSH1 0x40 MLOAD SWAP1 DUP2 ADD PUSH1 0x40 MSTORE DUP1 SWAP3 SWAP2 SWAP1 DUP2 DUP2 MSTORE PUSH1 0x20 ADD DUP3 DUP1 SLOAD PUSH2 0xD7E SWAP1 PUSH2 0x1422 JUMP JUMPDEST DUP1 ISZERO PUSH2 0xDCB JUMPI DUP1 PUSH1 0x1F LT PUSH2 0xDA0 JUMPI PUSH2 0x100 DUP1 DUP4 SLOAD DIV MUL DUP4 MSTORE SWAP2 PUSH1 0x20 ADD SWAP2 PUSH2 0xDCB JUMP JUMPDEST DUP3 ADD SWAP2 SWAP1 PUSH1 0x0 MSTORE PUSH1 0x20 PUSH1 0x0 KECCAK256 SWAP1 JUMPDEST DUP2 SLOAD DUP2 MSTORE SWAP1 PUSH1 0x1 ADD SWAP1 PUSH1 0x20 ADD DUP1 DUP4 GT PUSH2 0xDAE JUMPI DUP3 SWAP1 SUB PUSH1 0x1F AND DUP3 ADD SWAP2 JUMPDEST POP POP POP POP POP DUP2 JUMP JUMPDEST PUSH1 0x0 PUSH1 0x40 MLOAD SWAP1 POP SWAP1 JUMP JUMPDEST PUSH1 0x0 DUP1 REVERT JUMPDEST PUSH1 0x0 DUP1 REVERT JUMPDEST PUSH1 0x0 DUP2 SWAP1 POP SWAP2 SWAP1 POP JUMP JUMPDEST PUSH2 0xDFA DUP2 PUSH2 0xDE7 JUMP JUMPDEST DUP2 EQ PUSH2 0xE05 JUMPI PUSH1 0x0 DUP1 REVERT JUMPDEST POP JUMP JUMPDEST PUSH1 0x0 DUP2 CALLDATALOAD SWAP1 POP PUSH2 0xE17 DUP2 PUSH2 0xDF1 JUMP JUMPDEST SWAP3 SWAP2 POP POP JUMP JUMPDEST PUSH1 0x0 PUSH1 0x20 DUP3 DUP5 SUB SLT ISZERO PUSH2 0xE33 JUMPI PUSH2 0xE32 PUSH2 0xDDD JUMP JUMPDEST JUMPDEST PUSH1 0x0 PUSH2 0xE41 DUP5 DUP3 DUP6 ADD PUSH2 0xE08 JUMP JUMPDEST SWAP2 POP POP SWAP3 SWAP2 POP POP JUMP JUMPDEST PUSH1 0x0 DUP2 MLOAD SWAP1 POP SWAP2 SWAP1 POP JUMP JUMPDEST PUSH1 0x0 DUP3 DUP3 MSTORE PUSH1 0x20 DUP3 ADD SWAP1 POP SWAP3 SWAP2 POP POP JUMP JUMPDEST PUSH1 0x0 JUMPDEST DUP4 DUP2 LT ISZERO PUSH2 0xE84 JUMPI DUP1 DUP3 ADD MLOAD DUP2 DUP5 ADD MSTORE PUSH1 0x20 DUP2 ADD SWAP1 POP PUSH2 0xE69 JUMP JUMPDEST DUP4 DUP2 GT ISZERO PUSH2 0xE93 JUMPI PUSH1 0x0 DUP5 DUP5 ADD MSTORE JUMPDEST POP POP POP POP JUMP JUMPDEST PUSH1 0x0 PUSH1 0x1F NOT PUSH1 0x1F DUP4 ADD AND SWAP1 POP SWAP2 SWAP1 POP JUMP JUMPDEST PUSH1 0x0 PUSH2 0xEB5 DUP3 PUSH2 0xE4A JUMP JUMPDEST PUSH2 0xEBF DUP2 DUP6 PUSH2 0xE55 JUMP JUMPDEST SWAP4 POP PUSH2 0xECF DUP2 DUP6 PUSH1 0x20 DUP7 ADD PUSH2 0xE66 JUMP JUMPDEST PUSH2 0xED8 DUP2 PUSH2 0xE99 JUMP JUMPDEST DUP5 ADD SWAP2 POP POP SWAP3 SWAP2 POP POP JUMP JUMPDEST PUSH1 0x0 PUSH1 0x20 DUP3 ADD SWAP1 POP DUP2 DUP2 SUB PUSH1 0x0 DUP4 ADD MSTORE PUSH2 0xEFD DUP2 DUP5 PUSH2 0xEAA JUMP JUMPDEST SWAP1 POP SWAP3 SWAP2 POP POP JUMP JUMPDEST PUSH1 0x0 PUSH20 0xFFFFFFFFFFFFFFFFFFFFFFFFFFFFFFFFFFFFFFFF DUP3 AND SWAP1 POP SWAP2 SWAP1 POP JUMP JUMPDEST PUSH1 0x0 PUSH2 0xF30 DUP3 PUSH2 0xF05 JUMP JUMPDEST SWAP1 POP SWAP2 SWAP1 POP JUMP JUMPDEST PUSH2 0xF40 DUP2 PUSH2 0xF25 JUMP JUMPDEST DUP2 EQ PUSH2 0xF4B JUMPI PUSH1 0x0 DUP1 REVERT JUMPDEST POP JUMP JUMPDEST PUSH1 0x0 DUP2 CALLDATALOAD SWAP1 POP PUSH2 0xF5D DUP2 PUSH2 0xF37 JUMP JUMPDEST SWAP3 SWAP2 POP POP JUMP JUMPDEST PUSH1 0x0 PUSH1 0x20 DUP3 DUP5 SUB SLT ISZERO PUSH2 0xF79 JUMPI PUSH2 0xF78 PUSH2 0xDDD JUMP JUMPDEST JUMPDEST PUSH1 0x0 PUSH2 0xF87 DUP5 DUP3 DUP6 ADD PUSH2 0xF4E JUMP JUMPDEST SWAP2 POP POP SWAP3 SWAP2 POP POP JUMP JUMPDEST PUSH1 0x0 DUP2 ISZERO ISZERO SWAP1 POP SWAP2 SWAP1 POP JUMP JUMPDEST PUSH2 0xFA5 DUP2 PUSH2 0xF90 JUMP JUMPDEST DUP3 MSTORE POP POP JUMP JUMPDEST PUSH1 0x0 PUSH1 0x20 DUP3 ADD SWAP1 POP PUSH2 0xFC0 PUSH1 0x0 DUP4 ADD DUP5 PUSH2 0xF9C JUMP JUMPDEST SWAP3 SWAP2 POP POP JUMP JUMPDEST PUSH2 0xFCF DUP2 PUSH2 0xDE7 JUMP JUMPDEST DUP3 MSTORE POP POP JUMP JUMPDEST PUSH2 0xFDE DUP2 PUSH2 0xF25 JUMP JUMPDEST DUP3 MSTORE POP POP JUMP JUMPDEST PUSH1 0x0 PUSH2 0x100 DUP3 ADD SWAP1 POP PUSH2 0xFFA PUSH1 0x0 DUP4 ADD DUP12 PUSH2 0xFC6 JUMP JUMPDEST PUSH2 0x1007 PUSH1 0x20 DUP4 ADD DUP11 PUSH2 0xFC6 JUMP JUMPDEST PUSH2 0x1014 PUSH1 0x40 DUP4 ADD DUP10 PUSH2 0xFC6 JUMP JUMPDEST PUSH2 0x1021 PUSH1 0x60 DUP4 ADD DUP9 PUSH2 0xFC6 JUMP JUMPDEST PUSH2 0x102E PUSH1 0x80 DUP4 ADD DUP8 PUSH2 0xFD5 JUMP JUMPDEST DUP2 DUP2 SUB PUSH1 0xA0 DUP4 ADD MSTORE PUSH2 0x1040 DUP2 DUP7 PUSH2 0xEAA JUMP JUMPDEST SWAP1 POP DUP2 DUP2 SUB PUSH1 0xC0 DUP4 ADD MSTORE PUSH2 0x1054 DUP2 DUP6 PUSH2 0xEAA JUMP JUMPDEST SWAP1 POP DUP2 DUP2 SUB PUSH1 0xE0 DUP4 ADD MSTORE PUSH2 0x1068 DUP2 DUP5 PUSH2 0xEAA JUMP JUMPDEST SWAP1 POP SWAP10 SWAP9 POP POP POP POP POP POP POP POP POP JUMP JUMPDEST PUSH1 0x0 PUSH1 0x20 DUP3 ADD SWAP1 POP PUSH2 0x108C PUSH1 0x0 DUP4 ADD DUP5 PUSH2 0xFD5 JUMP JUMPDEST SWAP3 SWAP2 POP POP JUMP JUMPDEST PUSH1 0x0 PUSH2 0x109D DUP3 PUSH2 0xF05 JUMP JUMPDEST SWAP1 POP SWAP2 SWAP1 POP JUMP JUMPDEST PUSH2 0x10AD DUP2 PUSH2 0x1092 JUMP JUMPDEST DUP3 MSTORE POP POP JUMP JUMPDEST PUSH1 0x0 PUSH1 0xA0 DUP3 ADD SWAP1 POP DUP2 DUP2 SUB PUSH1 0x0 DUP4 ADD MSTORE PUSH2 0x10CD DUP2 DUP9 PUSH2 0xEAA JUMP JUMPDEST SWAP1 POP PUSH2 0x10DC PUSH1 0x20 DUP4 ADD DUP8 PUSH2 0xFC6 JUMP JUMPDEST PUSH2 0x10E9 PUSH1 0x40 DUP4 ADD DUP7 PUSH2 0x10A4 JUMP JUMPDEST PUSH2 0x10F6 PUSH1 0x60 DUP4 ADD DUP6 PUSH2 0xF9C JUMP JUMPDEST PUSH2 0x1103 PUSH1 0x80 DUP4 ADD DUP5 PUSH2 0xFC6 JUMP JUMPDEST SWAP7 SWAP6 POP POP POP POP POP POP JUMP JUMPDEST PUSH1 0x0 PUSH1 0x20 DUP3 ADD SWAP1 POP PUSH2 0x1122 PUSH1 0x0 DUP4 ADD DUP5 PUSH2 0xFC6 JUMP JUMPDEST SWAP3 SWAP2 POP POP JUMP JUMPDEST PUSH1 0x0 DUP1 REVERT JUMPDEST PUSH1 0x0 DUP1 REVERT JUMPDEST PUSH32 0x4E487B7100000000000000000000000000000000000000000000000000000000 PUSH1 0x0 MSTORE PUSH1 0x41 PUSH1 0x4 MSTORE PUSH1 0x24 PUSH1 0x0 REVERT JUMPDEST PUSH2 0x116A DUP3 PUSH2 0xE99 JUMP JUMPDEST DUP2 ADD DUP2 DUP2 LT PUSH8 0xFFFFFFFFFFFFFFFF DUP3 GT OR ISZERO PUSH2 0x1189 JUMPI PUSH2 0x1188 PUSH2 0x1132 JUMP JUMPDEST JUMPDEST DUP1 PUSH1 0x40 MSTORE POP POP POP JUMP JUMPDEST PUSH1 0x0 PUSH2 0x119C PUSH2 0xDD3 JUMP JUMPDEST SWAP1 POP PUSH2 0x11A8 DUP3 DUP3 PUSH2 0x1161 JUMP JUMPDEST SWAP2 SWAP1 POP JUMP JUMPDEST PUSH1 0x0 PUSH8 0xFFFFFFFFFFFFFFFF DUP3 GT ISZERO PUSH2 0x11C8 JUMPI PUSH2 0x11C7 PUSH2 0x1132 JUMP JUMPDEST JUMPDEST PUSH2 0x11D1 DUP3 PUSH2 0xE99 JUMP JUMPDEST SWAP1 POP PUSH1 0x20 DUP2 ADD SWAP1 POP SWAP2 SWAP1 POP JUMP JUMPDEST DUP3 DUP2 DUP4 CALLDATACOPY PUSH1 0x0 DUP4 DUP4 ADD MSTORE POP POP POP JUMP JUMPDEST PUSH1 0x0 PUSH2 0x1200 PUSH2 0x11FB DUP5 PUSH2 0x11AD JUMP JUMPDEST PUSH2 0x1192 JUMP JUMPDEST SWAP1 POP DUP3 DUP2 MSTORE PUSH1 0x20 DUP2 ADD DUP5 DUP5 DUP5 ADD GT ISZERO PUSH2 0x121C JUMPI PUSH2 0x121B PUSH2 0x112D JUMP JUMPDEST JUMPDEST PUSH2 0x1227 DUP5 DUP3 DUP6 PUSH2 0x11DE JUMP JUMPDEST POP SWAP4 SWAP3 POP POP POP JUMP JUMPDEST PUSH1 0x0 DUP3 PUSH1 0x1F DUP4 ADD SLT PUSH2 0x1244 JUMPI PUSH2 0x1243 PUSH2 0x1128 JUMP JUMPDEST JUMPDEST DUP2 CALLDATALOAD PUSH2 0x1254 DUP5 DUP3 PUSH1 0x20 DUP7 ADD PUSH2 0x11ED JUMP JUMPDEST SWAP2 POP POP SWAP3 SWAP2 POP POP JUMP JUMPDEST PUSH2 0x1266 DUP2 PUSH2 0x1092 JUMP JUMPDEST DUP2 EQ PUSH2 0x1271 JUMPI PUSH1 0x0 DUP1 REVERT JUMPDEST POP JUMP JUMPDEST PUSH1 0x0 DUP2 CALLDATALOAD SWAP1 POP PUSH2 0x1283 DUP2 PUSH2 0x125D JUMP JUMPDEST SWAP3 SWAP2 POP POP JUMP JUMPDEST PUSH1 0x0 DUP1 PUSH1 0x0 PUSH1 0x60 DUP5 DUP7 SUB SLT ISZERO PUSH2 0x12A2 JUMPI PUSH2 0x12A1 PUSH2 0xDDD JUMP JUMPDEST JUMPDEST PUSH1 0x0 DUP5 ADD CALLDATALOAD PUSH8 0xFFFFFFFFFFFFFFFF DUP2 GT ISZERO PUSH2 0x12C0 JUMPI PUSH2 0x12BF PUSH2 0xDE2 JUMP JUMPDEST JUMPDEST PUSH2 0x12CC DUP7 DUP3 DUP8 ADD PUSH2 0x122F JUMP JUMPDEST SWAP4 POP POP PUSH1 0x20 PUSH2 0x12DD DUP7 DUP3 DUP8 ADD PUSH2 0xE08 JUMP JUMPDEST SWAP3 POP POP PUSH1 0x40 PUSH2 0x12EE DUP7 DUP3 DUP8 ADD PUSH2 0x1274 JUMP JUMPDEST SWAP2 POP POP SWAP3 POP SWAP3 POP SWAP3 JUMP JUMPDEST PUSH32 0x596F7520617265206E6F7420617574686F72697A656421000000000000000000 PUSH1 0x0 DUP3 ADD MSTORE POP JUMP JUMPDEST PUSH1 0x0 PUSH2 0x132E PUSH1 0x17 DUP4 PUSH2 0xE55 JUMP JUMPDEST SWAP2 POP PUSH2 0x1339 DUP3 PUSH2 0x12F8 JUMP JUMPDEST PUSH1 0x20 DUP3 ADD SWAP1 POP SWAP2 SWAP1 POP JUMP JUMPDEST PUSH1 0x0 PUSH1 0x20 DUP3 ADD SWAP1 POP DUP2 DUP2 SUB PUSH1 0x0 DUP4 ADD MSTORE PUSH2 0x135D DUP2 PUSH2 0x1321 JUMP JUMPDEST SWAP1 POP SWAP2 SWAP1 POP JUMP JUMPDEST PUSH32 0x4E487B7100000000000000000000000000000000000000000000000000000000 PUSH1 0x0 MSTORE PUSH1 0x12 PUSH1 0x4 MSTORE PUSH1 0x24 PUSH1 0x0 REVERT JUMPDEST PUSH32 0x4E487B7100000000000000000000000000000000000000000000000000000000 PUSH1 0x0 MSTORE PUSH1 0x11 PUSH1 0x4 MSTORE PUSH1 0x24 PUSH1 0x0 REVERT JUMPDEST PUSH1 0x0 PUSH2 0x13CD DUP3 PUSH2 0xDE7 JUMP JUMPDEST SWAP2 POP PUSH2 0x13D8 DUP4 PUSH2 0xDE7 JUMP JUMPDEST SWAP3 POP DUP3 PUSH2 0x13E8 JUMPI PUSH2 0x13E7 PUSH2 0x1364 JUMP JUMPDEST JUMPDEST DUP3 DUP3 DIV SWAP1 POP SWAP3 SWAP2 POP POP JUMP JUMPDEST PUSH32 0x4E487B7100000000000000000000000000000000000000000000000000000000 PUSH1 0x0 MSTORE PUSH1 0x22 PUSH1 0x4 MSTORE PUSH1 0x24 PUSH1 0x0 REVERT JUMPDEST PUSH1 0x0 PUSH1 0x2 DUP3 DIV SWAP1 POP PUSH1 0x1 DUP3 AND DUP1 PUSH2 0x143A JUMPI PUSH1 0x7F DUP3 AND SWAP2 POP JUMPDEST PUSH1 0x20 DUP3 LT DUP2 SUB PUSH2 0x144D JUMPI PUSH2 0x144C PUSH2 0x13F3 JUMP JUMPDEST JUMPDEST POP SWAP2 SWAP1 POP JUMP JUMPDEST PUSH1 0x0 PUSH2 0x145E DUP3 PUSH2 0xDE7 JUMP JUMPDEST SWAP2 POP PUSH32 0xFFFFFFFFFFFFFFFFFFFFFFFFFFFFFFFFFFFFFFFFFFFFFFFFFFFFFFFFFFFFFFFF DUP3 SUB PUSH2 0x1490 JUMPI PUSH2 0x148F PUSH2 0x1393 JUMP JUMPDEST JUMPDEST PUSH1 0x1 DUP3 ADD SWAP1 POP SWAP2 SWAP1 POP JUMP JUMPDEST PUSH1 0x0 DUP2 SWAP1 POP DUP2 PUSH1 0x0 MSTORE PUSH1 0x20 PUSH1 0x0 KECCAK256 SWAP1 POP SWAP2 SWAP1 POP JUMP JUMPDEST PUSH1 0x0 PUSH1 0x20 PUSH1 0x1F DUP4 ADD DIV SWAP1 POP SWAP2 SWAP1 POP JUMP JUMPDEST PUSH1 0x0 DUP3 DUP3 SHL SWAP1 POP SWAP3 SWAP2 POP POP JUMP JUMPDEST PUSH1 0x0 PUSH1 0x8 DUP4 MUL PUSH2 0x14FD PUSH32 0xFFFFFFFFFFFFFFFFFFFFFFFFFFFFFFFFFFFFFFFFFFFFFFFFFFFFFFFFFFFFFFFF DUP3 PUSH2 0x14C0 JUMP JUMPDEST PUSH2 0x1507 DUP7 DUP4 PUSH2 0x14C0 JUMP JUMPDEST SWAP6 POP DUP1 NOT DUP5 AND SWAP4 POP DUP1 DUP7 AND DUP5 OR SWAP3 POP POP POP SWAP4 SWAP3 POP POP POP JUMP JUMPDEST PUSH1 0x0 DUP2 SWAP1 POP SWAP2 SWAP1 POP JUMP JUMPDEST PUSH1 0x0 PUSH2 0x1544 PUSH2 0x153F PUSH2 0x153A DUP5 PUSH2 0xDE7 JUMP JUMPDEST PUSH2 0x151F JUMP JUMPDEST PUSH2 0xDE7 JUMP JUMPDEST SWAP1 POP SWAP2 SWAP1 POP JUMP JUMPDEST PUSH1 0x0 DUP2 SWAP1 POP SWAP2 SWAP1 POP JUMP JUMPDEST PUSH2 0x155E DUP4 PUSH2 0x1529 JUMP JUMPDEST PUSH2 0x1572 PUSH2 0x156A DUP3 PUSH2 0x154B JUMP JUMPDEST DUP5 DUP5 SLOAD PUSH2 0x14CD JUMP JUMPDEST DUP3 SSTORE POP POP POP POP JUMP JUMPDEST PUSH1 0x0 SWAP1 JUMP JUMPDEST PUSH2 0x1587 PUSH2 0x157A JUMP JUMPDEST PUSH2 0x1592 DUP2 DUP5 DUP5 PUSH2 0x1555 JUMP JUMPDEST POP POP POP JUMP JUMPDEST JUMPDEST DUP2 DUP2 LT ISZERO PUSH2 0x15B6 JUMPI PUSH2 0x15AB PUSH1 0x0 DUP3 PUSH2 0x157F JUMP JUMPDEST PUSH1 0x1 DUP2 ADD SWAP1 POP PUSH2 0x1598 JUMP JUMPDEST POP POP JUMP JUMPDEST PUSH1 0x1F DUP3 GT ISZERO PUSH2 0x15FB JUMPI PUSH2 0x15CC DUP2 PUSH2 0x149B JUMP JUMPDEST PUSH2 0x15D5 DUP5 PUSH2 0x14B0 JUMP JUMPDEST DUP2 ADD PUSH1 0x20 DUP6 LT ISZERO PUSH2 0x15E4 JUMPI DUP2 SWAP1 POP JUMPDEST PUSH2 0x15F8 PUSH2 0x15F0 DUP6 PUSH2 0x14B0 JUMP JUMPDEST DUP4 ADD DUP3 PUSH2 0x1597 JUMP JUMPDEST POP POP JUMPDEST POP POP POP JUMP JUMPDEST PUSH1 0x0 DUP3 DUP3 SHR SWAP1 POP SWAP3 SWAP2 POP POP JUMP JUMPDEST PUSH1 0x0 PUSH2 0x161E PUSH1 0x0 NOT DUP5 PUSH1 0x8 MUL PUSH2 0x1600 JUMP JUMPDEST NOT DUP1 DUP4 AND SWAP2 POP POP SWAP3 SWAP2 POP POP JUMP JUMPDEST PUSH1 0x0 PUSH2 0x1637 DUP4 DUP4 PUSH2 0x160D JUMP JUMPDEST SWAP2 POP DUP3 PUSH1 0x2 MUL DUP3 OR SWAP1 POP SWAP3 SWAP2 POP POP JUMP JUMPDEST PUSH2 0x1650 DUP3 PUSH2 0xE4A JUMP JUMPDEST PUSH8 0xFFFFFFFFFFFFFFFF DUP2 GT ISZERO PUSH2 0x1669 JUMPI PUSH2 0x1668 PUSH2 0x1132 JUMP JUMPDEST JUMPDEST PUSH2 0x1673 DUP3 SLOAD PUSH2 0x1422 JUMP JUMPDEST PUSH2 0x167E DUP3 DUP3 DUP6 PUSH2 0x15BA JUMP JUMPDEST PUSH1 0x0 PUSH1 0x20 SWAP1 POP PUSH1 0x1F DUP4 GT PUSH1 0x1 DUP2 EQ PUSH2 0x16B1 JUMPI PUSH1 0x0 DUP5 ISZERO PUSH2 0x169F JUMPI DUP3 DUP8 ADD MLOAD SWAP1 POP JUMPDEST PUSH2 0x16A9 DUP6 DUP3 PUSH2 0x162B JUMP JUMPDEST DUP7 SSTORE POP PUSH2 0x1711 JUMP JUMPDEST PUSH1 0x1F NOT DUP5 AND PUSH2 0x16BF DUP7 PUSH2 0x149B JUMP JUMPDEST PUSH1 0x0 JUMPDEST DUP3 DUP2 LT ISZERO PUSH2 0x16E7 JUMPI DUP5 DUP10 ADD MLOAD DUP3 SSTORE PUSH1 0x1 DUP3 ADD SWAP2 POP PUSH1 0x20 DUP6 ADD SWAP5 POP PUSH1 0x20 DUP2 ADD SWAP1 POP PUSH2 0x16C2 JUMP JUMPDEST DUP7 DUP4 LT ISZERO PUSH2 0x1704 JUMPI DUP5 DUP10 ADD MLOAD PUSH2 0x1700 PUSH1 0x1F DUP10 AND DUP3 PUSH2 0x160D JUMP JUMPDEST DUP4 SSTORE POP JUMPDEST PUSH1 0x1 PUSH1 0x2 DUP9 MUL ADD DUP9 SSTORE POP POP POP JUMPDEST POP POP POP POP POP POP JUMP INVALID LOG2 PUSH5 0x6970667358 0x22 SLT KECCAK256 MSTORE 0xB9 ADDMOD 0xAC 0x4B 0xE2 0xB6 SWAP2 PUSH6 0x741732EF8B30 DUP5 0xBD 0xE4 0xBC SWAP16 MULMOD PUSH26 0x69616C3C8AB9B7C43E3964736F6C634300080F0033A264697066 PUSH20 0x58221220430B50D5B7567D59E3CD9A4B2DB4A034 0xC7 0xCC 0xEB 0xE SELFDESTRUCT 0x2D 0xD0 0xCA 0xB8 DUP14 0x2C BASEFEE 0xE5 EXP PUSH31 0x8764736F6C634300080F003300000000000000000000000000000000000000 "},"gasEstimates":{"creation":{"codeDepositCost":"1969200","executionCost":"2084","totalCost":"1971284"},"external":{"createCampaign(uint256,string,string,string)":"infinite","deployedCampaigns(uint256)":"infinite","getDeployedCampaigns()":"infinite"}},"methodIdentifiers":{"createCampaign(uint256,string,string,string)":"8ef03928","deployedCampaigns(uint256)":"339d50a5","getDeployedCampaigns()":"4acb9d4f"}},"storageLayout":{"storage":[{"astId":6,"contract":"Campaign.sol:CampaignFactory","label":"deployedCampaigns","offset":0,"slot":"0","type":"t_array(t_contract(Campaign)370)dyn_storage"}],"types":{"t_array(t_contract(Campaign)370)dyn_storage":{"base":"t_contract(Campaign)370","encoding":"dynamic_array","label":"contract Campaign[]","numberOfBytes":"32"},"t_contract(Campaign)370":{"encoding":"inplace","label":"contract Campaign","numberOfBytes":"20"}}},"userdoc":{"kind":"user","methods":{},"version":1}}